:020000040000fa
:080000000002040000000000f2
:020000040000fa
:04000800e606000008
:020000040000fa
:04000c0020070000c9
:020000040000fa
:040010007407000071
:020000040000fa
:0400140002070000df
:020000040000fa
:040018003c070000a1
:020000040000fa
:04001c005807000081
:020000040000fa
:040020009007000045
:020000040000fa
:04002400b007000021
:020000040000fa
:04002800b00700001d
:020000040000fa
:04002c00b007000019
:020000040000fa
:04003000b007000015
:020000040000fa
:04003400bc06000006
:020000040000fa
:04003800b00700000d
:020000040000fa
:04003c00b007000009
:020000040000fa
:04004000b007000005
:020000040000fa
:04004400b007000001
:020000040000fa
:04004800b0070000fd
:020000040000fa
:04004c00b0070000f9
:020000040000fa
:04005000b0070000f5
:020000040000fa
:04005400b0070000f1
:020000040000fa
:04005800b0070000ed
:020000040000fa
:04005c00b0070000e9
:020000040000fa
:04006000b0070000e5
:020000040000fa
:04006400b0070000e1
:020000040000fa
:04006800b0070000dd
:020000040000fa
:04006c00b0070000d9
:020000040000fa
:04007000b0070000d5
:020000040000fa
:04007400b0070000d1
:020000040000fa
:04007800b0070000cd
:020000040000fa
:04007c00b0070000c9
:020000040000fa
:04008000b0070000c5
:020000040000fa
:04008400b0070000c1
:020000040000fa
:04008800b0070000bd
:020000040000fa
:04008c00b0070000b9
:020000040000fa
:04009000b0070000b5
:020000040000fa
:04009400b0070000b1
:020000040000fa
:04009800b0070000ad
:020000040000fa
:04009c00b0070000a9
:020000040000fa
:0400a000b0070000a5
:020000040000fa
:0400a400b0070000a1
:020000040000fa
:0400a800b00700009d
:020000040000fa
:0400ac00b007000099
:020000040000fa
:0400b000b007000095
:020000040000fa
:0400b400b007000091
:020000040000fa
:0400b800b00700008d
:020000040000fa
:0400bc00b007000089
:020000040000fa
:0400c000b007000085
:020000040000fa
:0400c400b007000081
:020000040000fa
:0400c800b00700007d
:020000040000fa
:0400cc00b007000079
:020000040000fa
:0400d000b007000075
:020000040000fa
:0400d400b007000071
:020000040000fa
:0400d800b00700006d
:020000040000fa
:0400dc00b007000069
:020000040000fa
:0400e000b007000065
:020000040000fa
:0400e400b007000061
:020000040000fa
:0400e800b00700005d
:020000040000fa
:0400ec00b007000059
:020000040000fa
:0400f000b007000055
:020000040000fa
:0400f400b007000051
:020000040000fa
:0400f800b00700004d
:020000040000fa
:0400fc00b007000049
:020000040000fa
:04010000b007000044
:020000040000fa
:04010400b007000040
:020000040000fa
:04010800b00700003c
:020000040000fa
:04010c00b007000038
:020000040000fa
:04011000b007000034
:020000040000fa
:04011400b007000030
:020000040000fa
:04011800b00700002c
:020000040000fa
:04011c00b007000028
:020000040000fa
:04012000b007000024
:020000040000fa
:04012400b007000020
:020000040000fa
:04012800b00700001c
:020000040000fa
:04012c00b007000018
:020000040000fa
:04013000b007000014
:020000040000fa
:04013400b007000010
:020000040000fa
:04013800b00700000c
:020000040000fa
:04013c00b007000008
:020000040000fa
:04014000b007000004
:020000040000fa
:04014400b007000000
:020000040000fa
:04014800b0070000fc
:020000040000fa
:04014c00b0070000f8
:020000040000fa
:04015000b0070000f4
:020000040000fa
:04015400b0070000f0
:020000040000fa
:04015800b0070000ec
:020000040000fa
:04015c00b0070000e8
:020000040000fa
:04016000b0070000e4
:020000040000fa
:04016400b0070000e0
:020000040000fa
:04016800b0070000dc
:020000040000fa
:04016c00b0070000d8
:020000040000fa
:04017000b0070000d4
:020000040000fa
:04017400b0070000d0
:020000040000fa
:04017800b0070000cc
:020000040000fa
:04017c00b0070000c8
:020000040000fa
:040180001a0300005e
:020000040000fa
:04018400b0070000c0
:020000040000fa
:04018800b0070000bc
:020000040000fa
:04018c00b0070000b8
:020000040000fa
:04019000b0070000b4
:020000040000fa
:04019400b0070000b0
:020000040000fa
:04019800b0070000ac
:020000040000fa
:04019c00b0070000a8
:020000040000fa
:0401a000b0070000a4
:020000040000fa
:0401a400b0070000a0
:020000040000fa
:0401a800b00700009c
:020000040000fa
:0401ac00b007000098
:020000040000fa
:0401b000b007000094
:020000040000fa
:0401b400b007000090
:020000040000fa
:0401b800b00700008c
:020000040000fa
:0401bc00b007000088
:020000040000fa
:0401c000b007000084
:020000040000fa
:0401c400b007000080
:020000040000fa
:0401c800b00700007c
:020000040000fa
:0401cc00b007000078
:020000040000fa
:0401d000b007000074
:020000040000fa
:0401d400b007000070
:020000040000fa
:0401d800b00700006c
:020000040000fa
:0401dc00b007000068
:020000040000fa
:0401e000b007000064
:020000040000fa
:0401e400b007000060
:020000040000fa
:0401e800b00700005c
:020000040000fa
:0401ec00b007000058
:020000040000fa
:0401f000b007000054
:020000040000fa
:0401f400b007000050
:020000040000fa
:0401f800b00700004c
:020000040000fa
:0401fc00b007000048
:020000040000fa
:04020000b007000043
:020000040000fa
:04020400b00700003f
:020000040000fa
:04020800b00700003b
:020000040000fa
:04020c00b007000037
:020000040000fa
:04021000b007000033
:020000040000fa
:04021400b00700002f
:020000040000fa
:04021800b00700002b
:020000040000fa
:04021c00b007000027
:020000040000fa
:04022000b007000023
:020000040000fa
:04022400b00700001f
:020000040000fa
:04022800b00700001b
:020000040000fa
:04022c00b007000017
:020000040000fa
:04023000b007000013
:020000040000fa
:04023400b00700000f
:020000040000fa
:04023800b00700000b
:020000040000fa
:04023c00b007000007
:020000040000fa
:04024000b007000003
:020000040000fa
:04024400b0070000ff
:020000040000fa
:04024800b0070000fb
:020000040000fa
:04024c00b0070000f7
:020000040000fa
:04025000b0070000f3
:020000040000fa
:04025400b0070000ef
:020000040000fa
:04025800b0070000eb
:020000040000fa
:04025c00b0070000e7
:020000040000fa
:04026000b0070000e3
:020000040000fa
:04026400b0070000df
:020000040000fa
:100400008fe022000eff27000e0188000000000090
:10041000000020000000e000020032000001200087
:100420002002880014000700400307000000e000dd
:1004300003003a00e05a2a000100200002003700c1
:100440000000200001002000810f70000100320038
:100450000f000700000020000000e0000200320052
:100460000000020000000000c88b02000000000035
:100470000040da000000fe00401920000000e0000b
:1004800002003200002020009001880000000600d9
:10049000a1028800800478000000eb001f003700f4
:1004a000e284440054a0b4009905ba00e2844400f8
:1004b00054a0b4009906ba00e284440054a0b400e9
:1004c0000006eb00476fde00fd07b200ae018800ba
:1004d000636ce10003003a000ad801000000eb0061
:1004e0000e003700606ce10008003a00004deb00a0
:1004f0000a05e800020039003420ec000af0a000f0
:100500008b05e900f9ff3e00040037006168e10057
:10051000010032000086eb000b00070019c7ba008b
:100520000e04e0001905ba0003003a000a00e000da
:10053000dbff3a0000000600fe07b200ae028800b2
:100540008a047800f5ff37000cd0a300e20f4d00bd
:100550001c00390089027800354dba000a05e80010
:10056000020039003420ec000af0a0008b05e900fd
:100570000f003200254dba000a05e80002003900dc
:100580003420ec000af0a0008b05e90008003200de
:100590000c00e0000600320015cdba000a05e800a4
:1005a000020039003420ec000af0a0008b05e900bd
:1005b0008984e80054a0b4000b00e000e2ff3a0098
:1005c000000006009902ba00055d78008b05e9007d
:1005d000f7ff3200c82ade00055d78008b05e900d0
:1005e000f3ff32000c00e000f1ff320019ddba0029
:1005f000eeff37007a87040000000000648a0400e0
:1006000000000000ae88040000000000b0a104005b
:1006100000000000c2a1040000000000789a04005d
:10062000000000002aa1040000000000a2aa0400ab
:10063000000000003600f800809fbe00829fbe00d0
:10064000849fbe00869fbe000ac8a9008ac4ab0072
:100650000e00320088c4ab000c0032000004200001
:10066000402488009c10e200080032009c30ed001d
:100670009c10e20005003a008ac4a90000f02000a6
:100680009e10b600010032009e30ec00c2c4ab00e8
:100690000a003200c0c4ab0008003200c2c4a90086
:1006a0000004200000268800700050009e10e30027
:1006b00002003a0000102000d0848800c204ab0081
:1006c00006003200c004ab0004003200100020001d
:1006d00000268800c204a9009a30ef00c264ab0073
:1006e0002d013200c064ab002b013200c224ab00ec
:1006f00008003200c024ab000600320000858000f4
:10070000d00890000130b20000102000808f50000f
:1007100021013a00a290a90042268000800020001a
:100720000026880000858000a05890008180fb0092
:10073000a326800081806900ef80600015013a00e7
:10074000820078000138a3000500320082a1220057
:100750000128a30006003a00680151000400370098
:1007600082a022000128a30001003a006801510084
:10077000c3c3b30092c06100e8cf50004a003a0002
:10078000a24090008180fb00324190006301610033
:100790004811dd00828070000009900090099000ef
:1007a00002814000e0814900020898001308980087
:1007b000008580000001eb00720898001001900095
:1007c0004b11de000281ea00610161004b11dd0086
:1007d0009001900003b0a100030171001200980085
:1007e0000085800000599000f04f51000800320051
:1007f0008059900002c2b30082cf51000400320041
:10080000805990007041410082cf51000f003a00a2
:10081000000a9000900a9000700190008001eb00a7
:10082000820f5200838f5a00da0039006011b8003d
:1008300002089800130898000085800080589000f6
:100840008140e80001589800d2003700d00990009c
:100850000330b20002102000828f51000a003200e3
:1008600040019000828f500007003900000a90007c
:10087000900a900050019000e0019000820f520019
:10088000838f5a00c3003900900090000180a000bf
:100890001100980000858000805890008140e80099
:1008a00001589800bb003700eccf50000300320025
:1008b000c3c2b30083cf500030003a00a240900082
:1008c0008180fb0032419000630161004811dd002e
:1008d0008280700000099000900990000281400021
:1008e000e081490002089800130898000085800004
:1008f0000001eb0072089800100190004b11de001f
:100900000281ea00610161004b11dd00900190005d
:1009100003b0a1000301710012009800008580005f
:10092000d00990000330b20002102000828f5100e5
:100930000a00320040019000828f50000700390009
:10094000000a9000900a900050019000e001900091
:10095000820f5200838f5a008e0039009000900061
:100960000180a00011009800008580008058900050
:100970008140e800015898008600370082c2b30029
:1009800082cf50005a003a009000900001c0a000b1
:100990001100980000858000f00890008100e800b8
:1009a00071089800d0089000c808de00e38060005d
:1009b000e28f500005003200e38f50002700320024
:1009c000e18f500013003a00410037009000900082
:1009d00001d8a3006f0032007009900080109000d1
:1009e000810f51006b003600900090000160a00064
:1009f0001100980071c1b300008580004158980033
:100a00000085800080589000f140b30001589800a4
:100a1000600037009000900001d8a3005d00320014
:100a20007009900080109000810f5100590036002d
:100a3000900090000160a0001100980071c1b30007
:100a40000085800041589800008580008058900003
:100a5000f140b300015898004e003700a0589000b4
:100a60000104e000120035009000900001d8a300be
:100a7000480032007009900080109000810f5100f2
:100a800044003600900090000160a0001100980022
:100a900071c1b30000858000415898000085800036
:100aa00080589000f140b300015898003900370099
:100ab000900090000180a000110098000085800047
:100ac000805890008140e8000158980031003700bc
:100ad000900090000180a000110098000085800027
:100ae000805890008140e8000158980029003700a4
:100af00082c3b30082cf50000b003a0090009000f8
:100b00000150a0001100980011c1b30000858000c1
:100b1000415898000085800080589000f140b30053
:100b2000015898001b003700900090008140e800b9
:100b3000ff8060009001900002fe2f0002816100a2
:100b40008280700011009800008580009000900065
:100b5000ff806000f38f50000e0034009000900082
:100b60000160a0001100980031c1b3000085800031
:100b7000415898000085800080589000f140b300f3
:100b800001589800f00f2000202688002000200047
:100b900000268800e83e0700c244ab002a0032006d
:100ba000c044ab002800320040002000002688002e
:100bb000a44381000400e0001d0032000230200048
:100bc00003102000240090000000e0001500320017
:100bd000200090000000e00012003200d0089000d9
:100be00082806000828f500002003200838f5000ac
:100bf00006003a00b00090000100e000030032005f
:100c0000b00090008100e900310098009000900051
:100c100001c0a10011009800100078000000e00061
:100c2000eeff3a00140278000400e000e5ff3a000d
:100c3000a210a900a230a900a250a900a270a90088
:100c4000a470ef00bc3e0700c224ab004400320099
:100c5000c024ab0042003200a290a90000858000b1
:100c6000500990000230b20001102000810f5100a5
:100c700037003200900090008140e800ff80600063
:100c80009001900002fe2f000281610082807000be
:100c9000110098000085800090009000ff806000a7
:100ca000f38f50002a003400c4e4ab00020032008d
:100cb00001c2b30041589800c4a4ab000300320045
:100cc00011c2b3000085800041589800c484ab0075
:100cd0000300320021c2b300008580004158980013
:100ce000c464ab000300320031c2b3000085800051
:100cf00041589800c444ab000300320041c2b30025
:100d00000085800041589800c424ab0003003200e5
:100d100051c2b3000085800041589800c404ab0064
:100d20000300320061c2b300008580004158980082
:100d300000858000900090000160a00011009800e4
:100d40000085800080589000f140b3000158980061
:100d5000f00f2000202688002000200000268800b8
:100d60004f03be004f02be004f01be004f00be0049
:100d70003600f900004006003600f800809fbe00f3
:100d8000829fbe00849fbe00869fbe00f0858000cb
:100d90000000e00001003200000001007089220024
:100da0001048e80011c0b3000000e90001487800d5
:100db0000068a9004f03be004f02be004f01be00f5
:100dc0004f00be003600f900004006003600f80073
:100dd000809fbe00829fbe00849fbe00869fbe0093
:100de000c028a9000000eb00885207004f03be0096
:100df0004f02be004f01be004f00be003600f9009a
:100e0000004006003600f800809fbe00829fbe00b2
:100e1000849fbe00869fbe0077520700c048a9008d
:100e200010002000795207004f03be004f02be00a1
:100e30004f01be004f00be003600f9000040060022
:100e40003600f800809fbe00829fbe00849fbe00d7
:100e5000869fbe00c068a900200020006b520700da
:100e60004f03be004f02be004f01be004f00be0048
:100e70003600f900004006003600f800809fbe00f2
:100e8000829fbe00849fbe00869fbe00c088a900ce
:100e9000300020005d5207004f03be004f02be002d
:100ea0004f01be004f00be003600f90000400600b2
:100eb0003600f800809fbe00829fbe00849fbe0067
:100ec000869fbe00c0a8a900400020004f52070026
:100ed0004f03be004f02be004f01be004f00be00d8
:100ee0003600f900004006003600f800809fbe0082
:100ef000829fbe00849fbe00869fbe00c608a900d8
:100f000070002000415207004f03be004f02be0098
:100f10004f01be004f00be003600f9000040060041
:100f20003600f800809fbe00829fbe00849fbe00f6
:100f3000869fbe00c4a8ab0003003200c4a8a9006d
:100f40009000200031520700c488ab00030032003b
:100f5000c488a900a00020002c520700ffff370022
:100f60000040da000000fe00800078001104b100ab
:100f7000030035009101b10001003c000050a000c9
:100f800000000600800078001106b1000300350063
:100f90009101b10001003c000050a10000000600da
:100fa0000a00fa00e20f500034003e00c044810005
:100fb000e10f500003003200e20f500011003a0030
:100fc0000c003700032220000300e00001003a007b
:100fd0000040da002002e200020035002822ef0083
:100fe00021e2a8002342ab000d003a002342a800f2
:100ff0000b003700032320000300e00001003a004b
:101000000040da003002e200020035003822ef0032
:1010100031e2a8003342ab0001003a003342a8009d
:10102000820178000b0037003102fb00e10f500015
:1010300004003a002322ab00feff3a00241188008e
:10104000030037003322ab00feff3a00a4118800f2
:101050008301e9000300e000f3ff3a00e10f5000d4
:1010600003003a002302ab00feff32000b00370002
:101070003302ab00feff32000800370033002000cf
:10108000b3bf9f00c0bf9f00d1bf9f00e2bf9f00c2
:101090006a805700670a07006fb99700020078005e
:1010a0000080fa0000000600889fbe0080047800df
:1010b000d04481000000e00004003a000e00070068
:1010c0000084eb000000e00008003500d8448100f7
:1010d0000900e00005003200090044000600070096
:1010e0000000e00001003d000084eb0008007800f3
:1010f0004f04be0000000600800078000100e00000
:1011000003003a0000a22200d0448900000005003c
:101110000080eb0082e02200828f500002003e003f
:10112000d14489000000eb0000000600000005002b
:1011300003f0a200889fbe008a9fbe008c1f78002b
:1011400019010700200133006450e1004f00320014
:101150006420e1005200320003826c0007003b0073
:101160000905d0000306d000820f54000c065d0074
:10117000020039000200320089017800030678007d
:101180008582550004003d000003fd008103fd0041
:101190008502ea008b854200840f720002003b004a
:1011a00060001000e08018006011b8000005eb003e
:1011b0007a28e1000a00390006007800c75ddd00ea
:1011c000f707b200878075002d003700828171001b
:1011d0000a017800610560008180d1000080d300a1
:1011e0008502e900f9ff3b000604400087844800bf
:1011f00002003b0060041400e0841c000988a30086
:10120000070032008a8171008281710061016400ef
:101210008904d1000884d3008b05e800170037004b
:101220000978a30013003a000b00e000130034001b
:101230008b05e9000804440089844c000a447400ca
:101240000978a3000d003a000b00e000070034000d
:101250008b05e9000804440089844c0001003a0031
:101260000b0020000978a300f7ff32000001eb001b
:1012700002003700828171000a0178008f000700a8
:101280000cf0a70001f0a000d80037006420e100b6
:1012900002003a00838f6c00d80033000801be00c2
:1012a0000200be00d1003700889fbe008a9fbe00aa
:1012b0008c1f7800bc000700c300330003866c005d
:1012c0006450e1002e0032006420e100330032005f
:1012d0006150e1002f0032006120e1003100320056
:1012e00085855500eb07b0000900200008042000a8
:1012f000050037000804440089844c000a003100ce
:101300000603430087834b000001530081815b008b
:10131000f8ff33000203be000800a00008044400e8
:1013200089844c00f6ff3900c639dd008301730063
:1013300001003200130020008904d1000884d3008a
:101340000998a300050032000800a7000300a000d0
:101350008904d1000884d3008b05e8008904d100fa
:101360000884d3000001eb000281d2005300070083
:1013700001f0a1000cf0a70001f0a0009b003700d5
:101380006420e1009d0032000801be000200be00a2
:10139000f7ff37006120e100980032006000b800dc
:1013a000f3ff37000000200001f82700f0ff3700ae
:1013b00014002000df013700f4ff2f00dd013700ab
:1013c0000001be00630007000470a70003f0a10045
:1013d0006509b100160032000d0035006828e100f3
:1013e00006003500f0ff2f00f1ff27000300e000aa
:1013f00013003b0001002800000005000000400031
:10140000818048008502e900fcff3a0008003700af
:10141000f88f420002003c008000eb000000050055
:101420008100d1000080d3008502e800fcff3a0073
:101430000300e00002003b0060001000e0801800a4
:10144000000006000001be00420007000470a70073
:1014500003f0a10003f8a30013003a006509b100ee
:1014600010003200090035006928e1000200350053
:1014700001002800000005000000400081804800b5
:101480008502e900fcff3a0000000600f88f4200e8
:10149000050035008100d1000080d3008502e800fe
:1014a000fcff3a00000006008000eb000000050091
:1014b0004f89de0082017800b901370081002000e9
:1014c000618055000b003d000b00200061fe2f00e5
:1014d0000100e1001d00340082817100610164009f
:1014e0008904d1000884d3000000e800faff3a0024
:1014f00071002000610064000300700002006000c1
:101500000900320061044400e0844c000988a50011
:10151000050032008b05e8006808e10002003a008f
:101520008904d1000884d300f20f20000258e100a2
:1015300005003d00c75ddd00f907b2008980750038
:1015400008007800000006000bf827008b007800e8
:1015500000000500c70ade00f107b200f50fb20077
:1015600008003200e1cf4200020032000170a0000a
:1015700024000500810f70000100320004080500fe
:1015800044000500810f700002003a0014000500bd
:101590008502e9000000400081c04800fcff3b00dc
:1015a0000170a000240005000004be00e9ff070050
:1015b0000003be000405be000200be00e5ff0700f8
:1015c000844f7500000006000200be006450e10078
:1015d000050036006420e100020036000968a3001f
:1015e00001003a000800be000160a0004f0678002c
:1015f0004f05be004f04be0000000600f0ff2f00a4
:10160000f1ff2700f9ff3700889fbe008a9fbe00c8
:101610008c1f7800e4ff0700ebff330003866c00ab
:101620006450e100240032006420e1002700320011
:101630006150e100220032006120e100210032000f
:101640008b854200eb07b1000134b800003ab800c6
:101650000804420089844a00013ab8000030b8000a
:101660008880400009014a00040033000000400067
:1016700081804800020149008b05e900c909dd00ad
:10168000830170000100320013002000c814de0046
:101690004814dd004709de001200b200c808de0071
:1016a0000884700085ff070001f0a1000cf0a7007e
:1016b00001f0a000cdff37006120e100cfff320034
:1016c0000801be000200be00f7ff37006150e100d4
:1016d000fcff3a00c9ff37006022b8000602200074
:1016e0000000d0008180d2000482d2008582d20026
:1016f0000000a0000202520083825a000300310061
:101700000202420083824a000000a1000603e900b1
:10171000f3ff3a0000000600efff07000400be00e0
:1017200000000600889fbe008a9fbe003004420071
:10173000b0844a0030054b0090854b006000b1003a
:101740000898be000a90be000440e10005c8e10010
:1017500006d0e10007d8e100020031006800400037
:101760001008e8004f05be004f04be000000060050
:10177000889fbe008a9fbe001004780090049000ed
:1017800020059000b00590000418540005985c00f6
:1017900006185d0007985d00110020000440e1007c
:1017a00005c8e10006d0e10007d8e10001003900da
:1017b0008000eb00108810004f05be004f04be00f3
:1017c000000006001200fa00889fbe008a9fbe003b
:1017d0008c9fbe00e0b79f00f1b79f0082bf9f00c3
:1017e00093bf9f000605be000404be000000eb008e
:1017f000d0b79f00c0b79f00b0b79f00a0b79f00b1
:1018000090b79f00000678005fb19700cfb09700b7
:10181000820141003fb097000200e00004003d005b
:10182000370007007e805700beff07000300370027
:10183000330007007e805700cdff0700dfb697001a
:101840000d00e0000c0035006fb29700ffb297006a
:101850000fbb97009fbb97001000200001002000e5
:101860006011b800000272008182720002037300ee
:10187000838373001b0007000c06e80001042000ae
:10188000810f5600e0ff3a000d00e00004003d002b
:101890000802be000a03be007e805700a1ff0700b9
:1018a0005fa897000000e00005003a001fb2970013
:1018b000afb297003fb39700cfb39700090007007e
:1018c0006fb09700ffb097000fb997009fb99700ce
:1018d0004f06be004f05be004f04be000080fa0058
:1018e000000006000100070000000600a4b79f00ea
:1018f000b5b79f00c6b79f00d7b79f00000006008e
:101900004f09de0082817100b3b79f004f01de00f6
:101910008180400082807000a1b79f008fb0970047
:101920004f09de00000040000200700090b79f00e9
:101930007fa897004f01de00818040008280700008
:1019400081b79f000d0007004f3ade000000400005
:1019500004007000f0af9f0008000700040242007e
:1019600085824a0006034b0087834b00dfff070098
:101970000802be000a03be00000006002fb2970056
:10198000bfb297004fb39700dfb397000000060087
:10199000881f780018002000881f780089ff070042
:1019a0008f87e9004f04780000000600801feb00dd
:1019b00084ff07008f87e90000000600889fbe00b3
:1019c0008a9fbe00e00f5000e08f5800e00f5900e2
:1019d000e08f59000c003d006044b8006055b8002d
:1019e0000000540081805c0002015d0083815d0085
:1019f000180020001500070008003d00180007002f
:101a00000004eb00050037000004eb000f000700a6
:101a100002003d001200070018002000dcff070054
:101a20000800e000060032006022b8006033b80011
:101a30000000520081805a0002015b0083815b003c
:101a40004f05be004f04be0000000600e00f52002c
:101a5000e08f5a00e00f5b00e08f5b0000000600a3
:101a60006044b8006055b8000402540085825c00f0
:101a700006035d0087835d0000000600889fbe00ae
:101a80008a9fbe008c1f7800e00f5000e08f580046
:101a9000e00f5900e08f59000d003d006044b80090
:101aa0006055b8000000540081805c0002015d00b8
:101ab00083815d001c0020000820e10009a8e100ee
:101ac0000ab0e1000bb8e1000d003d00080037004e
:101ad0000006eb00e00f5200e08f5a00e00f5b00c1
:101ae000e08f5b0006003d006044b8006055b80020
:101af0000402540085825c0006035d0087835d005c
:101b0000aaff07000c00e000060032006022b800c7
:101b10006033b8000000520081805a0002015b006f
:101b200083815b004f0678004f05be004f04be0066
:101b300000000600889fbe008a9fbe00841f7800b8
:101b400099fe07004f00780011003300f0ff2f00ce
:101b5000838f6c0006003b00040565000a00a700a7
:101b60000800370009f0a600100020000800370028
:101b7000820f5400838f5c000300390010002000a6
:101b800001003e000000200009f0a7000000ea006c
:101b90004f05be004f04be000000e000000006003c
:101ba000881f7800030478000300e00007003d0070
:101bb00060001000e080180060011900e081190049
:101bc00002003b0001f02d00030037000400070075
:101bd00008f0a70001f0a0004f0478000000060004
:101be000889fbe008a9fbe000082700004027100c0
:101bf00004827100260032000004be000200be0014
:101c00006011b8006b092000950220000182cf000e
:101c10000a0039000541b1000082cf0007003900f9
:101c20000541b1000982cf00040039000541b1002f
:101c30000882cf00010039000541b1000542520081
:101c4000120032000a003b008281710061016400d1
:101c50008100d1000080d3008984d3000884d300a0
:101c60008b05e8000442e800f7ff3a000700370060
:101c70000804440089844c0000004800818048002a
:101c80008b05e9000442e900f9ff3a000bfe07006a
:101c90004f05be004f04be00000006000c00fa0015
:101ca000889fbe0000047800f0ff2700d0bf9f008f
:101cb0008004eb0099bf9f0088bf9f00a8bf9f00d2
:101cc000200c2000b0bf9f0078815700cfb0970054
:101cd00070805700e70007000fb8970009487800a8
:101ce0008fb89700088050004f04be000080fa00b3
:101cf000000006000800fa00889fbe008a9fbe0010
:101d00000084fb00d1c6b300814f50003a0036007a
:101d10004b062000110009000b84d80081057800d3
:101d2000720040004300dd0049532200008044005f
:101d30006022b8000600200007fe230090009000fb
:101d400020019000b001900010007800d808070032
:101d50000002be000203be0084bf9f0095bf9f002b
:101d6000a6bf9f00b7bf9f00aa0020001100090076
:101d70008a85d80080057800e9854500c35ddd00cf
:101d80008b8544001b0278009b0290002b0390007f
:101d9000bb0390000fb897009fb897002fb997002a
:101da000bfb99700c20807000002be000203be00d0
:101db00084bf9f0095bf9f00a6bf9f00b7bf9f0035
:101dc000110009000a84d800010478004344dd00b2
:101dd0008884440019027800990290002903900039
:101de000b90390000fb897009fb897002fb99700dc
:101df000bfb9970023003700ea4f500017003600a4
:101e0000aa002000110009000a84d800010578000a
:101e1000690440004344dd00495322000884440023
:101e20006022b8000600200007fe2300180078009a
:101e30009800900028019000b80190009c080700cd
:101e40004355dd008a84440019027800990290000d
:101e500029039000b90390000a0037004344dd00d5
:101e600040532200080440006022b8000600200011
:101e700007fe2300180078009800900028019000c9
:101e8000b80190008a0807004f05be004f04be004d
:101e90000080fa00000006000800fa00889fbe00db
:101ea0008a9fbe00d1c6b3000004e00027003d00b9
:101eb0000040ea000004fb00814f50000a0034009b
:101ec00042062000110009000204d800a9002000e9
:101ed000110009008900d800e9004000c308dd00b6
:101ee0004a53220025003700ea4f50001400340006
:101ef000a2002000110009000204d80001017800ae
:101f0000690040004300dd00415322000080400092
:101f10004311dd00828040001102780091029000a0
:101f200021039000b10390009000900020019000e8
:101f3000b0019000100078005d08070040003700f5
:101f40004344dd0040532200380037000004fb000a
:101f5000814f500029003400420620001100090082
:101f60000204d800a9002000110009008900d8004f
:101f7000e9004000c308dd004a4822008100450016
:101f8000110278009102900021039000b1039000ab
:101f90008b0920008a8545001b0078009b0090007b
:101fa0002b019000bb019000410807000002be0019
:101fb0000203be0084bf9f0095bf9f00a6bf9f0085
:101fc000b7bf9f00110009000904d8000104780080
:101fd0004344dd00080545001a0278009a0290008b
:101fe0002a039000ba0390000fb897009fb897009b
:101ff0002fb99700bfb99700cfff3700ea4f5000c5
:1020000008003400a2002000110009000204d800da
:1020100001017800690040004300dd0041482200d2
:10202000baff37004344dd00404822000804400066
:10203000180078009800900028019000b8019000e6
:102040004f05be004f04be000080fa0000000600ed
:10205000d0019000028151004240a90003003400e9
:1020600010017800014978000208e80001007800ba
:10207000000006006f02b000889fbe008a9fbe006d
:102080008c9fbe008e1f780000067800b1af9f00c5
:1020900092b79f006000b8006011b800d0af9f00f9
:1020a000e1af9f00f2af9f0083b79f008006eb0077
:1020b000d2043700bfa897008100e800b1af9f00ad
:1020c00051c2b300814f500003003a00bfa89700ef
:1020d0000007eb0011003700bc0090000000fb007f
:1020e0000168a300070032000d017800800078002d
:1020f0000c007800d6ff07000000e00005003a0061
:10210000be0437008c007800c8040700e10f4000cf
:10211000ba0432008d06e800b804370001017800e7
:1021200031407800d3c2b300834f50000c0032001e
:1021300007003c00edc15100834f50000a003200ff
:10214000ebc14100834f50000d003a0008003700fa
:1021500003c3b300834f500009003a000600370064
:102160000e30a000edff37000e00a000ebff37009f
:102170000e10a000e9ff37000e20a000e7ff370097
:102180000e18a300010032000e00a1000e38a300bb
:10219000010032000e20a1008000fb000103b1000d
:1021a000e98f50000c003e00020078008005eb0033
:1021b000ea59b900b005fb000b03b1008285450068
:1021c000000178009000fb000103b100e98f50008e
:1021d000f7ff3600080037008005eb00a1c2b3000e
:1021e000814f500004003a009fb19700c30578006a
:1021f00093b79f000201e800e0c2b300924f1000c5
:1022000016003a000ee0a00064405000d24f1000cb
:1022100003003200020078008001eb000800370064
:102220009fb297004503780095b79f00e6b79f00df
:102230000201e8000c003700ea19b9008281400071
:1022400000017800b000fb000103b100e98f5000ed
:10225000f9ff3600e3b79f00030037000ec0a0006f
:102260008003eb00e7b79f008201780033407800dd
:1022700003017800c1c6b300814f50002b0032002b
:10228000b3af9f0014003c00e8c05000814f5000e5
:102290002400320009003c00ecc05000814f500087
:1022a0002a003200ebc04000814f50008c00320009
:1022b0000004e00056043200a200370061c6b300fb
:1022c000814f50001b003200e3c04000814f50009e
:1022d0009c003a001300370031c7b300814f500013
:1022e0001e00320007003c00e4c05000814f500047
:1022f000130032008140e800814f500091003a0005
:102300001200370051c7b300814f500092003200d5
:10231000e3c04000814f50008a003a00e0cf9f00a8
:102320000c003700e0cf9f008d0037000e40a0006a
:10233000cdff3700e0cf9f000ea0a000880037003f
:10234000e0cf9f000e60a00085003700e0cf9f0027
:102350000e50a0000e70a00081003700e0cf9f005b
:102360009fb097004100780091b79f00000478006b
:102370000000e00001003a00287522008800780083
:102380000000eb00010037000000e8000081400081
:102390001204e000fcff3a00800478006fb197005f
:1023a0000200e00003003200890f510001003100fb
:1023b000820478000005eb00898f5500010036008b
:1023c00009855500680767002a003a0011003700a8
:1023d0003c0090000068a300070032000d01780067
:1023e000010220000c00780019ff07000000e00047
:1023f00006003a00060037008c007800000220003a
:102400000a040700e10f4000010032008d06e800d9
:102410000a05e9000a00e000edff3a000085eb0044
:10242000140037003c0090000068a300090032004f
:1024300008007800b000fb00000478000d0178006f
:102440000c00780002ff07000000e00008003a00de
:1024500008003700880078003100fb000104780094
:102460008c007800f1030700e10f4000010032000a
:102470008d06e800090078008004e9000000e00013
:10248000e8ff3a000e00e000dc03320011003700e4
:102490003c0090000068a300070032000d017800a6
:1024a000010220000c007800e9fe07000000e000b7
:1024b00006003a00060037008c0078000002200079
:1024c000da030700e10f4000010032008d06e8004a
:1024d0000a05e9000a00e000edff3a00c7033700f3
:1024e0009fb197004302780093b79f00cfa2de0010
:1024f000482bdd004820de0000007300c828de0005
:10250000e0cf9f000e48a300080032000004e00066
:1025100006003200e14f400004003200f0cf9f007f
:1025200084d79f002900200002003700f4cf9f00cd
:1025300019002000e7fc2f008f8343000704e80008
:1025400096ff3700e0cf9f00e8fc2f000f04440007
:102550001900200091ff3700e0cf9f000e0cb30060
:102560000170200081006700700067000100e0003a
:10257000220232000ec8a3000200320061002000d7
:10258000e1b79f000000e000080032001fb0970094
:102590006800500010027800900290002003900024
:1025a000b003900090b79f00080037001fb197005c
:1025b00064015100120078009200900092b79f00d1
:1025c0004b0607000002be000203be00a4b79f0036
:1025d000b5b79f00c6b79f00d7b79f006022b8006d
:1025e0006033b8002fb09700bfb097004fb197008d
:1025f000dfb19700900507000000e0000a003d00f1
:102600002fb09700bfb097004fb19700dfb1970090
:1026100003f0a200a0b79f00b1b79f00c2b79f0010
:10262000d3b79f003e00b3000000eb0090af9f00c7
:102630006022b8006033b8002fb09700bfb0970099
:102640004fb19700dfb19700df0507000000e00001
:102650003400320024fd2f000f0242002fb09700fb
:10266000bfb097004fb19700dfb197007206070027
:102670001fa897000000e900e300b900a2002000b5
:10268000110009000200d80090af9f000000e00098
:1026900002003d000000e90090af9f001fac9700d2
:1026a0000840ea00fcfd07002fb29700bfb2970078
:1026b0004fb39700dfb397007d0607000002be000e
:1026c0000203be00d4af9f00e5af9f00f6af9f00ae
:1026d00087b79f006022b8000600200007ff230094
:1026e000550507000000e00002003d000804e90075
:1026f0000b0037006022b8000600200047022400cb
:102700005fa89700efa897007fa997008fb1970067
:102710004e0507000000e000020035000804e80054
:1027200098af9f00efb29700ec8f52000f003c0073
:10273000054078006ffd07000002be000203be00e6
:102740002fb09700bfb097004fb19700dfb197004f
:10275000bb0407000002be000203be00a4b79f0036
:10276000b5b79f00c6b79f00d7b79f001fac9700b3
:10277000e90f540015003c006022b8006033b80037
:102780002fb09700bfb097004fb19700dfb197000f
:102790008d0507000000e000310032002fb09700e7
:1027a000bfb097004fb19700dfb19700ef0507006a
:1027b000e00f5000e08f5800e00f5900e08f590003
:1027c00027003a00e10f54002500340004002000e7
:1027d00005002e00b6e02200170124005fa8970034
:1027e000efa897007fa997008fb197001205070007
:1027f0000000e00002003d006904540001003700c1
:102800006804540098af9f002fd09700a2fd0700e6
:102810000002be000203be00d4af9f00e5af9f00e0
:10282000f6af9f0087b79f002fb09700bfb097000b
:102830004fb19700dfb1970009050700cb050700ee
:102840000004be006000b8006011b800a0b79f008f
:10285000b1b79f00c2b79f00d3b79f0016003700e3
:102860002fb09700bfb097004fb19700dfb197002e
:10287000be0507000004be00ed0507000002be0013
:102880000203be002fb09700bfb097004fb1970072
:10289000dfb197007c0607000002be000203be0005
:1028a000a4b79f00b5b79f00c6b79f00d7b79f00da
:1028b0000000eb0090af9f00a175220010c0b30094
:1028c00005003700e4804000b10f5400a18f5c0088
:1028d000030039000040e800ea4f5000f9ff3a00d9
:1028e000e0cf9f009fa8970081805500efb297002e
:1028f000858050000000fb00008550000500e000ce
:10290000010032000a05e90063006700010032009f
:102910000a05e9000e28a3003900320061016700b2
:102920000e18a3000f0032003c0090000068a300c6
:1029300006003200b10220000200e0000100320077
:102940008180e8000d0178000d003700b002200002
:102950000200e000010032000080e8008c007800f6
:102960000e0037000200e000220032003c00900020
:102970000068a300070032000d017800010220006a
:102980000c007800b2fd07000000e00006003a00ed
:10299000180037008c00780000022000a302070016
:1029a000e10f4000130032008d06e80011003700ef
:1029b0003c0090000068a300070032000d01780081
:1029c000010320000c007800a1fd07000000e000da
:1029d00006003a00060037008c0078000003200053
:1029e00092020700e10f4000010032008d06e8006e
:1029f0000a05e9000a00e000edff3c00590037003d
:102a00000e38a30014003a00110037003c0090007b
:102a10000068a300070032000d01780001022000c9
:102a20000c0078008afd07000000e00006003a0074
:102a3000060037008c007800000220007b020700af
:102a4000e10f4000010032008d06e8000a05e900b0
:102a50000a00e000edff3c00610167000e18a300d2
:102a60000e0032003c0090000068a3000500320018
:102a7000b10220000200e000230032008180e80063
:102a800021003700b00220000200e0000100320007
:102a90000080e8008c0078002e0037000200e00083
:102aa000300032003c0090000068a30003003200b8
:102ab0000d01780001022000140037008c0078001e
:102ac00000022000230037003c019000a075220086
:102ad0008100fb000268a30011003200c208dd0083
:102ae0008100400011017800910190000800be00b3
:102af000f9fa0700a20020000300200006fb0700ef
:102b000001032000808040000d0178000c00780057
:102b10004ffd07000000e00011003a0011003700ef
:102b2000c208dd0081004000110178009101900091
:102b30000800be00e8fa0700a20020000300200001
:102b4000f5fa070002032000000141008c00780024
:102b50000200780035020700e10f4000010032005a
:102b60008d06e8006fc897008040e900e1cf9f0024
:102b70000004e000d4ff3a00130037003c0090004e
:102b80000068a300070032000d0178000103200057
:102b90000c0078002efd07000000e00006003a005f
:102ba000060037008c007800000320001f02070099
:102bb000e10f4000010032008d06e8001fa89700d9
:102bc0000000e90090af9f001fa897000000e00000
:102bd000eaff3c006fb39700e80f53000300340096
:102be00080c0b300e0cf9f0002003700cfeb97001a
:102bf000e7cf9f006fc897008005fb00efb09700fc
:102c00008b8550000004e000100032003c00900072
:102c10000068a300070032000d017800e1022000e7
:102c20000c0078000afd07000000e00006003a00f2
:102c3000060037008c007800e0022000fb0107004e
:102c4000e10f4000010032008d06e8006fc89700d8
:102c500091fc07000002be000203be002fb09700e7
:102c6000bfb097004fb19700dfb197001005070084
:102c7000be040700300037003c019000a17522001f
:102c80000000fb000268a300110032004200dd00da
:102c90008080400011017800910190000800be0082
:102ca0008dfa0700a2002000030020009afa070016
:102cb00001032000808040000d0178000c007800a6
:102cc000e3fc07000000e00011003a0011003700ab
:102cd0004200dd00808040001101780091019000e9
:102ce0000800be007cfa0700a200200003002000bc
:102cf00089fa070002032000000141008c007800df
:102d000002007800c9010700e10f40000100320015
:102d10008d06e8006fc997000200fb004200dd004d
:102d2000a175220000804000100178009001900001
:102d30000800be0078fa07000004be00efc8970044
:102d40000140e900e0cf9f000104e000caff3a0023
:102d5000110037003c0090000068a300070032001b
:102d60000d017800010320000c007800b8fc07007a
:102d70000000e00006003a00060037008c007800f2
:102d800000032000a9010700e10f4000010032000c
:102d90008d06e8008b05e9000b00e000edff3a002e
:102da0000e38a300950132000a00e00093013400c0
:102db0003c0090000068a300070032000d0178007d
:102dc000010220000c007800a1fc07000000e000d8
:102dd00006003a00060037008c0078000002200050
:102de00092010700e10f4000010032008d06e8006b
:102df0000a05e900eeff3a00800137008e007800f6
:102e0000010cb20013003a000000e000060032009e
:102e10009fb19700e481510013047800930490005f
:102e200093b79f00040037001fb297004404780056
:102e300094b79f00cfc4de00e00f5400e08f5c0029
:102e400010003d003e00b30060041400e0841c004c
:102e50000c0037000000e000060032009fb297002f
:102e6000e4825200150478009504900095b79f0005
:102e7000040037001fb397004604780096b79f0000
:102e80008004eb00efb397000700e00006003a0073
:102e90000880740000f0a7000000ea000000e900cc
:102ea0004f00de00e0b79f000e007800000cb2007b
:102eb000c0af9f0000042000cfa89700808f500073
:102ec0002300320003003c000100e0000800320053
:102ed0002d003700000820004fa99700800f5100f7
:102ee0000d003200000c2000800f510026003a0037
:102ef000a175220010c0b300e4804000b10f54005f
:102f0000a18f5c001f0039000040e800ea4f50002c
:102f1000f9ff3a001b00370010c0b3000201200087
:102f200003002000820f5400838f5c0015003900dd
:102f3000441add00cc11de00830172004411dd0073
:102f40000040e800e84f5000f6ff3a000d0037005f
:102f500010c0b3008200200003002000820f540044
:102f6000838f5c0007003900c31add00cd11de003d
:102f7000838172004311dd000040e800eb4f5000f8
:102f8000f6ff3a00e0cf9f006fcb97000600fb00f2
:102f9000efb39700870f500002003d00e7cf9f007e
:102fa00004003700efb09700808f500001003d0013
:102fb000e0b79f000b00e0000300320063006700f1
:102fc000010032008b05e9000ee8a3000600320084
:102fd0006fb19700828f5500020034008285550042
:102fe000010037008005eb00efc997000300fb00ec
:102ff0000002eb00a4b79f00808f55000200340050
:1030000000805500a0b79f000e28a3003c003200ae
:10301000610167000e18a3000f0032003c00900011
:103020000068a30006003200b10220000200e000a8
:10303000010032008180e8000d0178000d003700aa
:10304000b00220000200e000010032000080e80031
:103050008c0078000e0037000200e0001000320003
:103060003c0090000068a300070032000d017800ca
:10307000010220000c007800f5fb07000000e000d2
:1030800006003a00060037008c007800000220009d
:10309000e6000700e10f4000010032008d06e80065
:1030a000afb297000500e00052003200050578003d
:1030b0003c0090000068a300070032000d0178007a
:1030c000010320000c007800e1fb07000000e00095
:1030d00006003a00060037008c007800000320004c
:1030e000d2000700e10f4000010032008d06e80029
:1030f0000a05e900eeff3a00aab79f003d0037003d
:103100002fb397000600e000160032000e38a3002f
:1031100014003a00060578003c0090000068a30007
:10312000070032000d017800010220000c00780039
:10313000c7fb07000000e00006003a000600370069
:103140008c00780000022000b8000700e10f40006a
:10315000010032008d06e8000a05e900eeff3a00a2
:10316000aab79f00610167000e18a3000f0032008c
:103170003c0090000068a30006003200b10220006d
:103180000200e000010032008180e8000d017800bb
:103190000d003700b00220000200e0000100320004
:1031a0000080e8008c0078000e0037000200e0008c
:1031b000100032003c0090000068a30007003200bd
:1031c0000d017800010220000c007800a0fb070030
:1031d0000000e00006003a00060037008c0078008e
:1031e0000002200091000700e10f400001003200c2
:1031f0008d06e800efb397000702e900e320b9006d
:10320000a0af9f004222dd00a07522000002420014
:1032100004057800cfad97005d003700efb0970050
:103220008100e900e1b79f0000042000808f550075
:103230003800320003003c000b00e00007003200c1
:103240003e00370000082000808f5500200032002b
:10325000000c2000808f550038003a000e48a30073
:10326000110032001a0278009a0290000401be0098
:103270000800be00f4b79f0085bf9f0016f9070045
:10328000e0cf9f000000fb00cf80de007fb2970000
:103290008fba97000401be00fd030700000454002c
:1032a00081845c00070037001a01780011000900d2
:1032b0000284d800a2002000110009000280d8007a
:1032c000e1cf9f006fc997000243b0000f003700a5
:1032d000107422000e58a300010032000073220077
:1032e000a1752200810055000801be008100e9009f
:1032f000030033008301d1000281d300fbff3700bc
:103300006f0161000201400012417800e2cf9f008e
:103310000a0037000800be002faa97000402e90047
:10332000030033008100d1000080d300fbff370091
:10333000674060000043b000e0cf9f00bc009000f9
:10334000efca97000500fb000168a30007003200e8
:103350000d017800800078000c0078003cfb07002d
:103360000000e00005003a00050037008c007800fe
:103370002e000700e10f4000010032008d06e8003a
:103380002fab970063035300a6af9f006405550061
:10339000efb397000700e000a0ff3a000e38a3004b
:1033a000160032002fb097000000e0001300340038
:1033b000000578003c0090000068a3000700320080
:1033c0000d017800010220000c00780020fb0700ae
:1033d0000000e00006003a00060037008c0078008c
:1033e0000002200011000700e10f40000100320040
:1033f0008d06e8000a05e900eeff3a00bfa8970035
:1034000011407800e0cf9f000004e00029fb3a0063
:103410000d0078004f0778004f06be004f05be0034
:103420004f04be006f02b10000000600889fbe007e
:1034300001047800b80090008084eb000118a3001c
:103440003a003200180190000198a30002003a00ef
:103450000200e00035003a000190a000310498001d
:1034600080047800f90fb2000200e00002003a0088
:1034700028009000000c7800ea8f540005003a0004
:103480000178a30003003a0088007800d0002000f3
:10349000e6ff070018009000d8009000810f500050
:1034a0000b0032000000e8001004980018007800bb
:1034b00009487800000ce80011c0b3000089220020
:1034c00001487800ea8f540018003a0005003700e0
:1034d0008800780009407800170107008004780010
:1034e00012003700380090000088a3000f0032005f
:1034f00018019000a800900048009000a8f607006e
:1035000098009000810f50000400320038009000b5
:103510000003b300300498008084eb000000eb004f
:103520001004980028009000000c78000900780032
:103530004f04be0000000600889fbe008a9fbe00a8
:103540008c9fbe00a1872200d24381000200e000d0
:103550000b003a0064814000d24389002244890074
:10356000a100980011448900214190000204a000ac
:10357000a2409800614190000204a000e24098003f
:10358000670440004244de004244dd0014448100f0
:1035900001a2220089e02200818454002d00200035
:1035a000110009008d04d800800678000886e80024
:1035b0000c0646008001eb000200370013002000db
:1035c0000b027800a44090000108a3000200320022
:1035d0000a003700120a780014017800a240900017
:1035e0000108a300fbff320088004200810f510058
:1035f000020039000800e00041003d009405780019
:103600000b00a100848f5500edff3e00e18f5100bb
:10361000eaff3a008d0f540002003600890f540073
:10362000130039006141b8006148b900b4ff2f00b0
:10363000050020000000520081805a00800f5100d8
:10364000818f5900020035006405440009003700ed
:1036500000a22200bae0220000055500080545003e
:10366000110009000985d8008985b90001003700db
:103670000c0578000a0078008bf60700e10f400087
:1036800005003a00640544000a00780086f6070049
:10369000e10f40002c0032002144810080087800b6
:1036a00021448100e481400021419000830f5000bb
:1036b000020032000204a000010037000204a10051
:1036c000a2409800640555000a0540000a087800e9
:1036d0002a448900a1872200010d7800224481003c
:1036e000a24090000104a00021419800a040900059
:1036f0000104a100214098008001eb00b0ff3700d9
:1037000011448900810f5100080036001101780032
:103710009101900032448900434489009408780064
:103720000041eb0011448100a24098001344810045
:10373000030a7800a44090000104a00021429800f0
:1037400064004200010037000000eb004f06be009d
:103750004f05be004f04be00000006000000e00060
:10376000080032006400500011448100810f5000b5
:103770000100310010448900a04090000104a10024
:103780002140980000000600889fbe008a9fbe006e
:103790000004be000900e00007003a000000eb0052
:1037a0000800e0003600320008007800ebff070058
:1037b0000000eb00320037000800e00003003a0090
:1037c000090078005cff07002d00370064005400fa
:1037d0009005780068f897000008a3000200320006
:1037e00008007800ddff07000900780052ff07009d
:1037f000800478000000eb000900e00020003200a7
:10380000888f54001b00320069bd970009055500e0
:1038100042d5de0088855500c2ddde000a01780051
:103820008b0f5500010036000b0178004211dd00be
:10383000880078000900780014000700888f540081
:103840000e0031004255dd000a854400880f550006
:103850000a0036000804550042c4de004244dd0080
:10386000088444003044810041448100008cbe0043
:1038700002003700080078000100370009007800d6
:103880004f05be004f04be00000006008001780016
:1038900002003700b15978000201e9000200e0009f
:1038a000fcff3a00000006008001780002003700ab
:1038b000815978000201e9000200e000fcff3a00b3
:1038c0000000060000017800b1417800035978003b
:1038d0000304e000fcff3a000000060080007800ce
:1038e0003104e000feff3a000080ea000080400062
:1038f0000000060080017800060037000201e900a0
:10390000b142780085597800030278000504e00090
:1039100006003200030278000200e000f7ff3a00e0
:1039200002003700005aeb000201e9000200e0004b
:10393000fcff3a00000006000200fa00889fbe006b
:10394000a0ff9f0001047800380090000068a300e9
:1039500033003a00e200600005003a000003b300c3
:1039600030049800110498000080eb002e0037000e
:10397000d80490000900e00006003a001200200080
:10398000e68057004800900085f50700190498006c
:1039900023003700a80090000100e00008003a0072
:1039a0003189220021049800010c780021002000b8
:1039b00051049800110498000030a00030049800d1
:1039c00018019000a80090004800900074f50700ce
:1039d000280090008080eb0011049800aff8970059
:1039e00001487800000ce8002ff89700ea4f5000db
:1039f0000b003a00380090000088a3000800320055
:103a000018019000a80090004800900064f507009d
:103a10000000eb0010049800a8009000010c780052
:103a2000aff897000100fb004f04be000080fa00d1
:103a30000000060000c0da000000060000000000e0
:103a40002800fa00889fbe008a9fbe008c9fbe009f
:103a500007067800878669000c003b0003047800a5
:103a60008704780008f0a10009f0a100840f50003d
:103a7000858f5800860f5900890f5c0003003300c2
:103a80000cf0a20001003a000cf0a100ff000700ba
:103a90006400e1005f003200780147006408e10043
:103aa000610032006c014700748557003200be008f
:103ab0001201be003a04be001a05be001e039000ab
:103ac000be0a90008503530006003d000004fd007f
:103ad0008104fd000205fd008305fd008703ea0067
:103ae000050378000df8a300040032006004140000
:103af000e0841c0060051d00e0851d006022b80008
:103b00007d0320000d38e1008006eb000b0039003a
:103b10004433dd00f300b200830173003900370045
:103b2000848272000d027800e10664008b85d1006a
:103b30000a85d3008984d3000884d3008703e90071
:103b4000f7ff3b0008004000898048000a01490057
:103b50008b81490004003b0060001000e0801800e9
:103b600060011900e08119000358a3000900320028
:103b70008d82720084827200610260008301d10034
:103b80000281d3008180d3000080d3000603e800c7
:103b90001b0037000348a30017003a000600e000ae
:103ba000170034000603e9000d00a30000004800e0
:103bb0008180480002014900838149000348a30035
:103bc0000f003a000600e000090034000603e90097
:103bd00000004000818048000201490083814900c3
:103be00001003a000003eb000348a300f5ff320098
:103bf0006022b80002003700848272006182660091
:103c00007600070003f0a1000cf0a70003f0a0006d
:103c1000b2003700640147006408e10002003a0086
:103c20000df8a300aa003a0032007800b200780034
:103c30001201be00a90037008f1fd1009a010700b2
:103c40008f87e9000000e00000000600809feb0085
:103c5000950107008f87e9000000e00000000600e2
:103c60002800fa00889fbe008a9fbe008c9fbe007d
:103c700003866b00850007006400e1004400320009
:103c80006408e1004a0032006100e10046003200b1
:103c90006108e10049003200ec0647006000b8000e
:103ca0003d02be003d03be00f48657006011b8001f
:103cb0003d04be003d05be007d0320000b00370023
:103cc0000000a0008d06e90013003200040242004b
:103cd00085824a0006034b0087834b0000004000aa
:103ce0008180480002014900838149000802520096
:103cf00089825a000a035b008b835b00f0ff3b0064
:103d00000802420089824a000a034b008b834b0061
:103d10008d06e900edff3a0084827200868272000f
:103d2000f707b20087827200010032001500200000
:103d30001e0490003e0b900006035400e63fb000c6
:103d40000368a300070032000000a7000500a000e0
:103d50008301d1000281d3008180d3000080d30091
:103d60000603e8008301d1000281d3008180d300e3
:103d70000080d3000002eb000482d200170007008d
:103d800003f0a1000cf0a70003f0a00053003700df
:103d9000640247006408e1004d0032003400be00b8
:103da0003401be00f6ff37006108e1004800320030
:103db0006011b8006000b800f1ff370003ff270072
:103dc00002002000fbff3700801feb0036010700d8
:103dd0008f87e9000000e0000000060018002000c6
:103de00057002000080453000d003d00060020008d
:103df00097fc2f000740e1001e003400848272000f
:103e0000610260008301d1000281d3008180d30070
:103e10000080d3000804e800f8ff3a0047002000c3
:103e20006104600005047400040464000d003200a5
:103e300061004000e080480060014900e0814900e5
:103e400003b8a500070032000603e8006538e1006a
:103e500004003a008301d1000281d3008180d300a5
:103e60000080d300f87f20000830e1000300350017
:103e7000080378006000b8006011b8004433dd002a
:103e8000f300b200830173000000060068044700dd
:103e90000294be000094be00fc0447008694be005d
:103ea0008494be00090078004901070008007800ea
:103eb0004701070099007800814f70000b003b001c
:103ec0000800be00210107004f00b10003003700c9
:103ed000f3ff2700f2ff2f006110b9004f06be006c
:103ee0004f05be004f04be000080fa00000006002f
:103ef0008103780097f507000001be006000b8005c
:103f00000478a30013003a006220e10015003e008f
:103f10000d0039008301d1000281d3008180d300dc
:103f20008301d1000281d3008180d3008301d100bd
:103f30000281d3008180d3000538b000c42add009f
:103f4000f300b2008381720007f0a70003f0a00025
:103f500000000600f3ff2700f2ff2f006110b900f8
:103f6000fbff370003ff2700f7ff37001400fa00bc
:103f7000889fbe008a9fbe008c9fbe000004be00ca
:103f80000205be00680047000a90be000890be000f
:103f90000f0107000070a7000bf0a1000bf8a300b1
:103fa00020003a009e0990000e099000fe0090004b
:103fb0006e0090009e0290003443200084825200e4
:103fc000c6ff32000a003c00b4fc2f000428e100c8
:103fd000140034008301d1000281d3008180d3001a
:103fe0000080d3008502e800faff3a00bbff3700eb
:103ff000b40020000428e10007003c00000040005d
:104000008180480002014900838149008502e9005e
:10401000faff3a00b1ff3700030028000200200039
:10402000010037006011b8006000b800abff370036
:104030006011b8000d0137001400fa00889fbe001f
:104040008a9fbe008c9fbe00040678000004be005c
:104050000205be00680047000a90be000890be003e
:10406000db0007006200e1000800be000a01be009c
:10407000040020000b003a001e029000e43fb10053
:104080006e009000fe0090000e0990009e099000c6
:10409000f300b20005fe2300858171000bf0a7003c
:1040a00003f0a000040e78008cff37000000000031
:1040b0002800fa00889fbe008a9fbe008c9fbe0029
:1040c00003866b0071ff07000028a30064003a001c
:1040d0000128a30068003a000008a30062003a002b
:1040e0000108a30066003a001e009000be08900080
:1040f00081064000ed3fb100f4805700ee019000d2
:10410000111ab8008e099000311bb8009e0990006a
:10411000311cb800511db800f48557004600070057
:10412000fe0190003a0007008b85e8003e00070082
:104130008e09900040000700ee0190003400070057
:104140008b85e800380007008e09900040000700ca
:104150009e0990001b18b800890440000a85480099
:10416000fe019000340007008b85e800380007004e
:10417000ee019000300007008e0990001b18b80077
:10418000890440000a8548000a98a30008003a0004
:104190000402420085824a0006034b0087834b00dd
:1041a00008044c0089844c000a054d008d06e90086
:1041b00084827200850273004c3add008502720031
:1041c0000100320015002000443ade001400b20065
:1041d0004538de00cb45dd000b007000c540de0039
:1041e000cb4ddd008b8070004549de00cb55dd00f6
:1041f0000b017100c551de000d037800f7fe0700ca
:1042000003f0a1000cf0a70003f0a00033ff37007b
:104210001b18b8008502400006834800e0834b006d
:1042200060044c00070037001b18b800060340006c
:1042300087834800faff37001b18b8008703400047
:1042400008844800e0844c0060054d000000060032
:104250001b18b8000804400089844800faff3700a2
:104260000108a3001aff3a005800be000000000039
:104270005801be00e2ff37000008a30014ff3a0017
:1042800009047800f8ff370007f0a200ecfd3700c2
:10429000020ab900001bb9000200b8008100420008
:1042a0008100430000000600889fbe008a9fbe0078
:1042b0008c9fbe000404be000605be00809fbe00a9
:1042c000829fbe0030000700040678000800be0090
:1042d0000a01be002c000700840678004f03be00d0
:1042e0004f02be008d4f76007fb097001300330061
:1042f000f0ff2f008b8f6b0006003b000d06660061
:104300000c00a7000a00370007f0a60010002000ec
:104310000a003700880f5200898f5a008a0f5b000d
:104320008b8f5b00030039001000200001003e006d
:104330000000200007f0a7000000ea004f06be00c2
:104340004f05be004f04be0000000600e48240009e
:104350001078a30007003200640240001178a30027
:104360003400be001401be00050032000330a70077
:104370000000060035007800b50078001501be0089
:104380000330a0000000060005ff27000582610041
:10439000070032000428e10001003200240005007b
:1043a0000600070001003a0044000500040805006b
:1043b00002000700f9ff3a00140005006f82610057
:1043c0008102700085027100850272000000060003
:1043d0005002be00e40050005003be004439de002d
:1043e000f700b200f37f20000301610009003200f2
:1043f0000218e10016003a00850172008301730083
:10440000838173000008200015003a00400020005e
:1044100013003700850172008301730083817300ec
:1044200005003a0004a8be0006a8be001000200047
:104430000b0037000201e9000402420085824a00b5
:1044400006034b0087834b000748a300f9ff3200a7
:104450000740a00004a8be0006a8be00200020005f
:10446000800098009200980000000600889fbe001f
:104470000082700004027100048271002400320086
:1044800036432000c50020008383cf000a00390096
:104490000541b1008283cf00070039000541b1001a
:1044a0008183cf00040039000541b1008083cf0033
:1044b000010039000541b10085c353006022b800f6
:1044c000120032000a003b00848272006102600028
:1044d0008301d1000281d3008180d3000080d3000a
:1044e0000603e8008743e800f7ff3a0007003700bb
:1044f000000040008180480002014900838149009a
:104500000603e9008743e900f9ff3a0033fe07009c
:084510004f04be00000006008c
:020000040000fa
:10451800494e00005452000041200000494e00005e
:104528004455000053540000524900004553000010
:104538002000000050560000542000004c54000099
:1045480044200000505500004e4500000055000072
:104558006e64000065720000205600006f6c000059
:104568007461000067650000004f00007665000078
:1045780072200000566f00006c7400006167000034
:104588006500000053430000522000005452000010
:104598004950000000490000474200005420000034
:1045a8005452000049500000005900002d500000ee
:1045b800686100007365000020410000627300001c
:1045c800656e0000740000004f7600006572000000
:1045d8005f5600006f6c00007461000067650000a2
:1045e800206900006e200000506800006173000020
:1045f80065200000005500006e6400006572000030
:104608005f5600006f6c0000746100006765000071
:10461800206900006e2000005068000061730000ef
:104628006500000042610000745f000052650000f0
:10463800765f0000506f00006c6100007269000036
:104648007479000000460000617500006c74000079
:104658002044000065740000656300007465000074
:1046680064000000536800006f72000074200000ae
:10467800636900007263000075690000740000003f
:104688005265000076650000727300006520000026
:10469800506f00006c6100007269000074790000be
:1046a8002044000065740000656300007465000024
:1046b80064000000252e000031660000002500007f
:1046c8006400000052420000435f000053500000a5
:1046d8003a0000004f5000005f5600004f4c0000a9
:1046e80054410000474500003a00000050480000cf
:1046f8005f4200003d000000505f0000593d00008f
:1047080000500000485f0000523d000000450000d6
:10471800424300005f530000503a00000049000087
:104728005f420000617400005f530000503a0000cf
:10473800004900005f420000617400003a00000078
:104748005365000074200000746900006d65000066
:104758003a0000003a0000005254000043200000d4
:104768004f46000046200000544900004d45000017
:104778003a00000052540000432000004d69000038
:104788006e7300003a000000772b0000004600001e
:10479800617500006c740000733300002e63000024
:1047a80073760000005300004352000020540000bc
:1047b8007269000070000000343a000034380000cc
:1047c8003a35000030000000343a0000343300006d
:1047d8003a35000030000000313600002e3000006d
:1047e800332e00003230000032310000000a000091
:1047f800257300002c250000732c00002573000091
:104808002c250000732c0000257300000000000018
:104818002e2e00000030000031320000333400003a
:104828003536000037380000396100006263000047
:08483800646500006600000049
:020000040000fa
:10484000200a90008002eb00c022dd00040020005e
:10485000500990008001eb0002007200838072001a
:1048600000000600881f78003531800003202000fa
:1048700030318000808161002706a8002726a8002b
:1048800022318000213180002431800020318000dd
:104890000588a300010032002706a8000300e000fd
:1048a000010032002726a8006f0361007403430053
:1048b000020fb2004411de00ea11b9000203430006
:1048c0004933dd000001eb0001c8a3000100320004
:1048d000a200200003f0200083826000c82ade00ce
:1048e00085024100020f2000028460004444de0083
:1048f000ea44b900ef8060008100440086807000c7
:10490000c52add0081807200f18288002183880041
:1049100001838800020362004433de00ea33b900f9
:104920006f026200040243004b22dd004c03de00f4
:10493000ea33b90083016000c819de0086814100b6
:10494000c519dd00020160004411de00ea11b90062
:104950006f006000000141000208a3000300320064
:1049600040c6b3005af0b700010037005a70ef009c
:104970000201d1000400710000807100e082880013
:10498000108388004f047800000006006a70ef0072
:104990008008900070009000000006006ad0bf0000
:1049a0000080fb0000000600630320000001eb0014
:1049b0000202400082824000154a78000201e800ad
:1049c0008301e900faff3a00000006000100400000
:1049d0001040780000000600889fbe008a1f780003
:1049e000000478001880fb00184190004811dd0099
:1049f000020170006000b800a33e0700e14f5000c4
:104a00000300320080c0b3006af0b700970037009f
:104a10001880fb0098449000c84cdd0089047000a9
:104a2000e9f8930050c5b30080cf500052003a001f
:104a3000f9f89300a0cab30080cf50004e003a00ae
:104a40006103200009007800e0ff070061c4b300a3
:104a5000814f500021003a007103200009007800c6
:104a6000daff070011c4b300814f50001b003a0069
:104a70008103200009007800d4ff070041c5b3007e
:104a8000814f500015003a00910320000900780082
:104a9000ceff070011c3b300814f50000f003a0052
:104aa0006102200009007800c8ff070091c2b3002e
:104ab000814f500009003a000040eb00204498006c
:104ac00030449800404498005044980020c0b300ff
:104ad000206498000040eb006400370021052000ae
:104ae00009007800b9ff070061c4b300814f50008e
:104af00021003a003105200009007800b3ff0700cb
:104b000011c4b300814f50001b003a004105200042
:104b100009007800adff070041c5b300814f500088
:104b200015003a005105200009007800a7ff070092
:104b300031c3b300814f50000f003a002104200020
:104b400009007800a1ff070091c2b300814f500017
:104b500009003a000040eb002044980030449800df
:104b6000404498005044980030c0b300206498003e
:104b70000040eb003d003700e9f8930050c5b3005a
:104b800080cf500004003a00f9f89300a0cab300a7
:104b900080cf50000300320040c0b3006af0b7007d
:104ba00032003700e91bb00042c0b30016002000fd
:104bb000050524000a80210017c0b3008949900030
:104bc0008381fb00194a90004822dd0004807100b7
:104bd000a94990008381fb00394a90004822dd00fa
:104be0008480710020449800c801de00334498009e
:104bf000414498004808de00504498004940900025
:104c0000ee4f500013003e00494090000000fb00b2
:104c10000030dd008500600006003a008a00600078
:104c200008003a000018a3000a0032002764980028
:104c30000800370020c0b300206498000040eb005b
:104c40000a00370030c0b300206498000040eb0039
:104c5000060037000241e90002003200f0844400ff
:104c6000d6ff370050c0b3006af0b7004f05780098
:104c70004f04be0000000600010040008000e80074
:104c80001181fb004811dd009080fb000280700064
:104c900000000600889fbe008a9fbe008004780046
:104ca000010478008800780009007800f2ff07000e
:104cb000000578008880e80009007800eeff070012
:104cc0008000eb00c000dd00000020008005eb004c
:104cd0000a0070008b8070004f05be004f04be00bc
:104ce00000000600f8874700889fbe008a9fbe002c
:104cf0008c9fbe008e1f7800000578001a80fb0094
:104d00001a4190004811dd0002017000aa41900094
:104d10008381fb003a4290004822dd00048071004c
:104d2000ca4190008381fb005a4290004822dd0076
:104d300084807100d43d07008040780080c0b300bb
:104d4000e1cf500071013a001a80fb009a459000b3
:104d5000c85ddd008b0570000006eb008c06780056
:104d6000030037001d002000010037001c00200058
:104d70006bf9930030c0b30051c5b300814f5100af
:104d8000d6003a007bf99300a1cab300814f5100cd
:104d9000d2003a001a80fb001a4790008e0078007b
:104da000480fdd000e077000e10020000e007800c3
:104db000b1ff070000047800d10020000e00780049
:104dc00002ff0700c0e79f00106598006141b8002e
:104dd00082b79f0093b79f002a4090000080fb009d
:104de000ba409000c808dd00010470004a409000fd
:104df0000080fb00da409000c808dd0081047000ec
:104e00000204440083844c00684598004840de005a
:104e100070459800094d98004848de00104d9800f4
:104e2000010120000e007800e8fe0700e0ef9f007f
:104e300000659800610120000e0078008eff0700d9
:104e40008000eb00405d98004801de00525d980054
:104e5000615d98004809de00725d9800e00f500027
:104e6000e08f580009003a00410220000e0078004f
:104e700088ff0700405d98004801de00525d980001
:104e8000615d98004808de00705d98006fea970049
:104e90000481fb008001eb004a5a90000482fb0071
:104ea000da5a9000c82add00050072006a5a9000a4
:104eb0000482fb00fa5a9000c82add0085007200c7
:104ec000828ab9000013b800d6b79f00e7b79f00e9
:104ed00087034200e7b79f005fb09700efb09700ed
:104ee0000000440081804c00f0b79f0081bf9f000c
:104ef000204d9800ffb097004808de00304d980024
:104f00000ff19700424d98008fb997004818de00c6
:104f1000504d9800110120000e00780056ff070048
:104f2000b0b79f0020559800000278004820de00ae
:104f300030559800310120000e0078004eff070028
:104f40006104b800e00f5400e08f5c0004003a00f8
:104f5000010220000e0078004eff07000004be0092
:104f6000b10020000e00780043ff0700c0b79f008b
:104f700010c2b300cfb297000500e0005700320026
:104f80000508a30055003a003fb397004530dd0007
:104f90000000e90005004000110009000580d8006c
:104fa0006101b800e2af9f00f3af9f000fb297001e
:104fb0009fb297000400540085805c005fb39700a7
:104fc000efb39700060050008780580002005000a1
:104fd00083805800cfe397000781fb008001eb003e
:104fe000bdf10700405598004801de005255980079
:104ff000615598004809de007255980042ff200074
:1050000003002000820f5000838f580003003e00f1
:1050100010c0b300206598001c00370044ff2f002b
:1050200005002000840f5000858f580003003e00cb
:1050300020c0b300206598001400370030c0b300d2
:1050400020659800c10220000e00780011ff0700c3
:1050500030838800418388006fab9700ffab9700d7
:105060007fb197008fb99700060041008780490003
:10507000604d98004801de00724d9800015598007f
:105080004808de00105598000e0037006630ef002b
:105090006830ef00bfb197004418de007fb2970080
:1050a0008fba970004004000e0804a00604d9800ed
:1050b0004801de00724d9800015598004808de0056
:1050c0001055980010c2b30001202000cfb2970005
:1050d000818f520001003e000040eb00aa6090006a
:1050e000e3cf5000070032000004e00088003200e7
:1050f0002bc1900081cdb30081404100e1cf500031
:1051000082003e003b5190000281fb00cb5090009a
:10511000c808dd00810071002c003a00cb709000bf
:105120000104e0002b003a00db7090000104e00075
:105130002a003a00eb7090000104e00029003a00d8
:10514000fb7090000104e00028003a008b7890008a
:105150000104e00027003a009b7890000104e00081
:1051600026003a00ab7890000104e00025003a00e8
:10517000bb7890000104e00024003a00cb78900056
:105180000104e00023003a00db7890000104e00015
:1051900022003a00eb7890000104e00021003a0080
:1051a000fb7890000104e00020003a002bc1900041
:1051b00081cdb30081404100e1cf50001d003e0091
:1051c0000004e000520032001b00370030c0b30082
:1051d0001900370030c0b3001700370030c0b300eb
:1051e0001500370030c0b3001300370030c0b300e3
:1051f0001100370030c0b3000f00370030c0b300db
:105200000d00370030c0b3000b00370030c0b300d2
:105210000900370030c0b3000700370030c0b300ca
:105220000500370030c0b3000300370030c0b300c2
:105230000100370030c0b3000d00e0001b003a0051
:105240001a80fb001a4190004811dd000201700035
:105250002b7090000080fb00bb719000c819dd002e
:10526000830170002a4290000482fb00ba42900041
:10527000c82add00050072004a4290000482fb004b
:10528000da429000c82add008500720000804100eb
:10529000e08048007c3c0700e14f5000b1fe320046
:1052a00080c0b3006af0b700190037000c00e000be
:1052b00016003a001a80fb001a4190004811dd00e8
:1052c00002017000aa4190008381fb003a429000e5
:1052d0004822dd0004807100ca4190008381fb00f8
:1052e0005a4290004822dd00848071006600400030
:1052f000e0804800643c0700e14f50009bfe320014
:1053000080c0b3006af0b700010037006af0b70050
:105310004f0778004f06be004f05be004f04be0089
:105320008f01b10000000600af02b000889fbe00f0
:105330008a9fbe008c9fbe008e1f780000467800ba
:105340000204be00010778006a70ef005870ef0099
:105350005270ef000080eb008080eb0070858800c9
:105360008185880090858800a185880040082200fa
:10537000d0a79f00ea3c07001004e00004003200c0
:1053800060c0b3006af0b7000080eb00bd043700d6
:10539000420822006000b8003b3c07000004e00027
:1053a00004003a00b0c1b3006af0b7000080eb001f
:1053b000b40437005fa59700eaf8930050c5b30026
:1053c00080cf50003d003a00faf89300a0cab30025
:1053d00080cf500039003a00610320000a007800b5
:1053e0007afd070061c4b300814f50002d003a00e0
:1053f000710320000a00780074fd070011c4b30097
:10540000814f500027003a00810320000a007800f5
:105410006efd070041c5b300814f500021003a00e6
:10542000910320000a00780068fd070011c3b30053
:10543000814f50001b003a00610220000a007800f2
:1054400062fd070091c2b300814f500015003a0081
:105450000c04e000070032000001eb00e14f5600b1
:105460001a003a00f0c1b3006af0b7000080eb0008
:10547000840437006000b800e0a79f00f1a79f00f8
:10548000a0fc2f000f00400016fe07000004e00003
:10549000e3023200b0c1b3006af0b7000080eb0055
:1054a0007804370042082200501281006112810006
:1054b000e0a79f00f1a79f000400370040c0b300a1
:1054c0006af0b7000080eb006e0437000c04e000c7
:1054d000d3023200e14f5600da023a0022c89300ac
:1054e0000080fb00b2c89300c808dd000105700011
:1054f00042c893000080fb00d2c89300c808dd00ba
:105500008105700081032100810f5500e08f5d004f
:1055100033003e0013c0b300c3ef9f0023c19b00c4
:10552000420822006000b800103c07000004e000c0
:1055300004003a0090c0b3006af0b7000080eb00ae
:105540005004370072022100820f5500e08f5d0089
:105550000300360020c0b300b0ef9f000200370008
:1055600010c0b300b0ef9f0043082200ff00090005
:105570008019eb0021c3b300e00b22000148780042
:10558000bfe897008180fb00521520008289b90096
:105590000281e800cf91de000a02be002402b100c1
:1055a0000580b100018040004f83de000400400010
:1055b00085004b00000041008180490046f0070053
:1055c0000002be0020c0b300a0ef9f00002020001a
:1055d000e0af9f00b4b79f00c5b79f0084003700bd
:1055e000f0d52f00f1032000800f5500818f5d0062
:1055f00043003e0020c0b300c0ef9f0060c0b30076
:1056000020c19b0013c0b300420822006000b80014
:10561000d63b07000004e00004003a0090c0b3004d
:105620006af0b7000080eb00160437000a01be00e4
:105630008221b1000380b10010c0b300b0ef9f0021
:10564000f30f4100e08f590010003600d4fe2f0008
:1056500005002000004040008301d1000281d300fa
:10566000840f5100858f5900faff3e00b0ef9f0074
:1056700001c8b300814f50000500360040c0b300a0
:105680006af0b7000080eb00fe03370010c0b300e3
:1056900041082200ff0009008018eb0062c3b3003c
:1056a000e10b2200824878008080fb004809dd0081
:1056b0000281e800cf91de000a02be002402b100a0
:1056c0000580b100018040004f83de0004004000ef
:1056d00085004b000000410081804900feef07007b
:1056e0000002be0020c0b300a0ef9f0000202000f9
