:020000040000fa
:080000000002040000000000f2
:020000040000fa
:040008000e030000e3
:020000040000fa
:04000c00500300009d
:020000040000fa
:04001000b003000039
:020000040000fa
:040014002e030000b7
:020000040000fa
:040018007003000071
:020000040000fa
:04001c00900300004d
:020000040000fa
:04002000d003000009
:020000040000fa
:0400240032040000a2
:020000040000fa
:04002800320400009e
:020000040000fa
:04002c00320400009a
:020000040000fa
:040030003204000096
:020000040000fa
:04003400fc030000c9
:020000040000fa
:04003800320400008e
:020000040000fa
:04003c00320400008a
:020000040000fa
:040040003204000086
:020000040000fa
:040044003204000082
:020000040000fa
:04004800320400007e
:020000040000fa
:04004c00320400007a
:020000040000fa
:040050003204000076
:020000040000fa
:040054003204000072
:020000040000fa
:04005800320400006e
:020000040000fa
:04005c00320400006a
:020000040000fa
:040060003204000066
:020000040000fa
:040064003204000062
:020000040000fa
:04006800320400005e
:020000040000fa
:04006c00320400005a
:020000040000fa
:040070003204000056
:020000040000fa
:040074003204000052
:020000040000fa
:04007800320400004e
:020000040000fa
:04007c00320400004a
:020000040000fa
:040080003204000046
:020000040000fa
:040084003204000042
:020000040000fa
:04008800320400003e
:020000040000fa
:04008c00320400003a
:020000040000fa
:040090003204000036
:020000040000fa
:040094003204000032
:020000040000fa
:04009800320400002e
:020000040000fa
:04009c00320400002a
:020000040000fa
:0400a0003204000026
:020000040000fa
:0400a4003204000022
:020000040000fa
:0400a800320400001e
:020000040000fa
:0400ac00320400001a
:020000040000fa
:0400b0003204000016
:020000040000fa
:0400b4003204000012
:020000040000fa
:0400b800320400000e
:020000040000fa
:0400bc00320400000a
:020000040000fa
:0400c0003204000006
:020000040000fa
:0400c4003204000002
:020000040000fa
:0400c80032040000fe
:020000040000fa
:0400cc0032040000fa
:020000040000fa
:0400d00032040000f6
:020000040000fa
:0400d40032040000f2
:020000040000fa
:0400d80032040000ee
:020000040000fa
:0400dc0032040000ea
:020000040000fa
:0400e00032040000e6
:020000040000fa
:0400e40032040000e2
:020000040000fa
:0400e80032040000de
:020000040000fa
:0400ec0032040000da
:020000040000fa
:0400f00032040000d6
:020000040000fa
:0400f40032040000d2
:020000040000fa
:0400f80032040000ce
:020000040000fa
:0400fc0032040000ca
:020000040000fa
:0401000032040000c5
:020000040000fa
:0401040032040000c1
:020000040000fa
:0401080032040000bd
:020000040000fa
:04010c0032040000b9
:020000040000fa
:0401100032040000b5
:020000040000fa
:0401140032040000b1
:020000040000fa
:0401180032040000ad
:020000040000fa
:04011c0032040000a9
:020000040000fa
:0401200032040000a5
:020000040000fa
:0401240032040000a1
:020000040000fa
:04012800320400009d
:020000040000fa
:04012c003204000099
:020000040000fa
:040130003204000095
:020000040000fa
:040134003204000091
:020000040000fa
:04013800320400008d
:020000040000fa
:04013c003204000089
:020000040000fa
:040140003204000085
:020000040000fa
:040144003204000081
:020000040000fa
:04014800320400007d
:020000040000fa
:04014c003204000079
:020000040000fa
:040150003204000075
:020000040000fa
:040154003204000071
:020000040000fa
:04015800320400006d
:020000040000fa
:04015c003204000069
:020000040000fa
:040160003204000065
:020000040000fa
:040164003204000061
:020000040000fa
:04016800320400005d
:020000040000fa
:04016c003204000059
:020000040000fa
:040170003204000055
:020000040000fa
:040174003204000051
:020000040000fa
:04017800320400004d
:020000040000fa
:04017c003204000049
:020000040000fa
:040180003204000045
:020000040000fa
:040184003204000041
:020000040000fa
:04018800320400003d
:020000040000fa
:04018c003204000039
:020000040000fa
:040190003204000035
:020000040000fa
:040194003204000031
:020000040000fa
:04019800320400002d
:020000040000fa
:04019c003204000029
:020000040000fa
:0401a0003204000025
:020000040000fa
:0401a4003204000021
:020000040000fa
:0401a800320400001d
:020000040000fa
:0401ac003204000019
:020000040000fa
:0401b0003204000015
:020000040000fa
:0401b4003204000011
:020000040000fa
:0401b800320400000d
:020000040000fa
:0401bc003204000009
:020000040000fa
:0401c0003204000005
:020000040000fa
:0401c4003204000001
:020000040000fa
:0401c80032040000fd
:020000040000fa
:0401cc0032040000f9
:020000040000fa
:0401d00032040000f5
:020000040000fa
:0401d40032040000f1
:020000040000fa
:0401d80032040000ed
:020000040000fa
:0401dc0032040000e9
:020000040000fa
:0401e00032040000e5
:020000040000fa
:0401e40032040000e1
:020000040000fa
:0401e80032040000dd
:020000040000fa
:0401ec0032040000d9
:020000040000fa
:0401f00032040000d5
:020000040000fa
:0401f40032040000d1
:020000040000fa
:0401f80032040000cd
:020000040000fa
:0401fc0032040000c9
:020000040000fa
:0402000032040000c4
:020000040000fa
:0402040032040000c0
:020000040000fa
:0402080032040000bc
:020000040000fa
:04020c0032040000b8
:020000040000fa
:0402100032040000b4
:020000040000fa
:0402140032040000b0
:020000040000fa
:0402180032040000ac
:020000040000fa
:04021c0032040000a8
:020000040000fa
:0402200032040000a4
:020000040000fa
:0402240032040000a0
:020000040000fa
:04022800320400009c
:020000040000fa
:04022c003204000098
:020000040000fa
:040230003204000094
:020000040000fa
:040234003204000090
:020000040000fa
:04023800320400008c
:020000040000fa
:04023c003204000088
:020000040000fa
:040240003204000084
:020000040000fa
:040244003204000080
:020000040000fa
:04024800320400007c
:020000040000fa
:04024c003204000078
:020000040000fa
:040250003204000074
:020000040000fa
:040254003204000070
:020000040000fa
:04025800320400006c
:020000040000fa
:04025c003204000068
:020000040000fa
:040260003204000064
:020000040000fa
:040264003204000060
:020000040000fa
:100400008fc821000eff27000e01880000000000a9
:10041000000020000000e000020032000001200087
:100420002002880014000700100107000000e0000f
:1004300003003a00e07522000100200002003700ae
:100440000000200001002000810f70000100320038
:100450000f000700000020000000e0000200320052
:1004600000000200000000005c200200000000000c
:100470000040da000000fe00800420000000e000e0
:1004800002003200002020009001880000000600d9
:10049000a1028800800478000000eb001f003700f4
:1004a000e284440054a0b4009905ba00e2844400f8
:1004b00054a0b4009906ba00e284440054a0b400e9
:1004c0000006eb00476fde00fd07b200ae018800ba
:1004d000636ce10003003a000ad801000000eb0061
:1004e0000e003700606ce10008003a00004deb00a0
:1004f0000a05e800020039003420ec000af0a000f0
:100500008b05e900f9ff3e00040037006168e10057
:10051000010032000086eb000b00070019c7ba008b
:100520000e04e0001905ba0003003a000a00e000da
:10053000dbff3a0000000600fe07b200ae028800b2
:100540008a047800f5ff37000cd0a300e20f4d00bd
:100550001c00390089027800354dba000a05e80010
:10056000020039003420ec000af0a0008b05e900fd
:100570000f003200254dba000a05e80002003900dc
:100580003420ec000af0a0008b05e90008003200de
:100590000c00e0000600320015cdba000a05e800a4
:1005a000020039003420ec000af0a0008b05e900bd
:1005b0008984e80054a0b4000b00e000e2ff3a0098
:1005c000000006009902ba00055d78008b05e9007d
:1005d000f7ff3200c82ade00055d78008b05e900d0
:1005e000f3ff32000c00e000f1ff320019ddba0029
:1005f000eeff3700fe26040000000000ce1d0400c0
:10060000000000008a1e040000000000281f0400f3
:100610000000000086070400000000003600f8001b
:10062000809fbe00829fbe00849fbe00869fbe004a
:100630000000fa00c028a9000000eb00ff1207002c
:100640000080fa004f03be004f02be004f01be0003
:100650004f00be003600f900004006003600f800ea
:10066000809fbe00829fbe00849fbe00869fbe000a
:100670000000fa00f6120700c048a9001000200090
:10068000ee1207000080fa004f03be004f02be00ca
:100690004f01be004f00be003600f90000400600ca
:1006a0003600f800809fbe00829fbe00849fbe007f
:1006b000869fbe000000fa00c068a900200020004c
:1006c000de1207000080fa004f03be004f02be009a
:1006d0004f01be004f00be003600f900004006008a
:1006e0003600f800809fbe00829fbe00849fbe003f
:1006f000869fbe000000fa00c088a90030002000dc
:10070000ce1207000080fa004f03be004f02be0069
:100710004f01be004f00be003600f9000040060049
:100720003600f800809fbe00829fbe00849fbe00fe
:10073000869fbe000000fa00c0a8a900400020006b
:10074000be1207000080fa004f03be004f02be0039
:100750004f01be004f00be003600f9000040060009
:100760003600f800809fbe00829fbe00849fbe00be
:10077000869fbe000000fa00c608a9007000200095
:10078000ae1207000080fa004f03be004f02be0009
:100790004f01be004f00be003600f90000400600c9
:1007a0003600f800809fbe00829fbe00849fbe007e
:1007b000869fbe000000fa00214680000002200053
:1007c000008060000000e00003003200c4a8a9001f
:1007d0009000200099120700204680007000600001
:1007e0000000e00003003200c488a900a00020003f
:1007f00092120700ffff37003600f800809fbe000e
:10080000829fbe00849fbe00869fbe000000fa004b
:10081000708180000000e0000200320070818000e2
:100820000000010050c82100104078008040e8001e
:1008300050c821000148780040c8210011c0b30011
:10084000014878000068a9000080fa004f03be004c
:100850004f02be004f01be004f00be003600f9003f
:10086000004006000040da000000fe000000050025
:1008700003f0a200889fbe008a9fbe008c1f7800f4
:10088000170107001e0133006450e1004f003200e1
:100890006420e1005200320003826c0007003b003c
:1008a0000905d0000306d000820f54000c065d003d
:1008b0000200390002003200890178000306780046
:1008c0008582550004003d000003fd008103fd000a
:1008d0008502ea008b854200840f720002003b0013
:1008e00060001000e08018006011b8000005eb0007
:1008f0007a28e1000a00390006007800c75ddd00b3
:10090000f707b200878075002d00370082817100e3
:100910000a017800610560008180d1000080d30069
:100920008502e900f9ff3b00060440008784480087
:1009300002003b0060041400e0841c000988a3004e
:10094000070032008a8171008281710061016400b8
:100950008904d1000884d3008b05e8001700370014
:100960000978a30013003a000b00e00013003400e4
:100970008b05e9000804440089844c000a44740093
:100980000978a3000d003a000b00e00007003400d6
:100990008b05e9000804440089844c0001003a00fa
:1009a0000b0020000978a300f7ff32000001eb00e4
:1009b00002003700828171000a0178008d00070073
:1009c0000cf0a70001f0a000d60037006420e10081
:1009d00002003a00838f6c00d60033000801be008d
:1009e0000200be00cf003700889fbe008a9fbe0075
:1009f0008c1f7800ba000700c100330003866c002a
:100a00006450e1002e0032006420e1003300320027
:100a10006150e1002f0032006120e100310032001e
:100a200085855500eb07b000090020000804200070
:100a3000050037000804440089844c000a00310096
:100a40000603430087834b000001530081815b0054
:100a5000f8ff33000203be000800a00008044400b1
:100a600089844c00f6ff3900c639dd00830173002c
:100a700001003200130020008904d1000884d30053
:100a80000998a300050032000800a7000300a00099
:100a90008904d1000884d3008b05e8008904d100c3
:100aa0000884d3000001eb000281d200510007004e
:100ab00001f0a1000cf0a70001f0a00099003700a0
:100ac0006420e1009b0032000801be000200be006d
:100ad000f7ff37006120e100960032006000b800a7
:100ae000f3ff37000000200001f82700f0ff370077
:100af0000001be00650007000470a70003f0a1001c
:100b00006509b100160032000d0035006828e100cb
:100b100006003500f0ff2f00f1ff27000300e00082
:100b200013003b0001002800000005000000400009
:100b3000818048008502e900fcff3a000800370088
:100b4000f88f420002003c008000eb00000005002e
:100b50008100d1000080d3008502e800fcff3a004c
:100b60000300e00002003b0060001000e08018007d
:100b7000000006000001be00440007000470a7004a
:100b800003f0a10003f8a30013003a006509b100c7
:100b900010003200090035006928e100020035002c
:100ba000010028000000050000004000818048008e
:100bb0008502e900fcff3a0000000600f88f4200c1
:100bc000050035008100d1000080d3008502e800d7
:100bd000fcff3a00000006008000eb00000005006a
:100be0004f89de0082017800890037006011b8006b
:100bf0009700370081002000618055000b003d0008
:100c00000b00200061fe2f000100e1001d003400f8
:100c100082817100610164008904d1000884d300dd
:100c20000000e800faff3a00710020006100640053
:100c300003007000020060000900320061044400fb
:100c4000e0844c000988a500050032008b05e8000f
:100c50006808e10002003a008904d1000884d3004a
:100c6000f20f20000258e10005003d00c75ddd00e5
:100c7000f907b200898075000800780000000600be
:100c80000bf827008b00780000000500c70ade0083
:100c9000f107b200f50fb20008003200e1cf4200c8
:100ca000020032000170a00024000500810f7000d6
:100cb000010032000408050044000500810f7000a7
:100cc00002003a00140005008502e900000040001f
:100cd00081c04800fcff3b000170a000240005001b
:100ce0000004be00e9ff07000003be000405be00cb
:100cf0000200be00e5ff0700844f750000000600fb
:100d00000200be006450e100050036006420e100ee
:100d1000020036000968a30001003a000800be0086
:100d20000160a0004f0678004f05be004f04be00d2
:100d300000000600f0ff2f00f1ff2700f9ff370049
:100d4000889fbe008a9fbe008c1f7800e4ff0700ca
:100d5000ebff330003866c006450e1002400320096
:100d60006420e100270032006150e10022003200df
:100d70006120e100210032008b854200eb07b100c9
:100d80000134b800003ab8000804420089844a00df
:100d9000013ab8000030b8008880400009014a00dc
:100da0000400330000004000818048000201490037
:100db0008b05e900c909dd008301700001003200e4
:100dc00013002000c814de004814dd004709de00cf
:100dd0001200b200c808de000884700085ff07001a
:100de00001f0a1000cf0a70001f0a000cdff37003a
:100df0006120e100cfff32000801be000200be000a
:100e0000f7ff37006150e100fcff3a00c9ff3700ef
:100e1000881f7800030478000300e00007003d000d
:100e200060001000e080180060011900e0811900e6
:100e300002003b0001f02d00030037000400070012
:100e400008f0a70001f0a0004f04780000000600a1
:100e5000889fbe008a9fbe0000827000040271005d
:100e600004827100260032000004be000200be00b1
:100e70006011b8006b092000950220000182cf00ac
:100e80000a0039000541b1000082cf000700390097
:100e90000541b1000982cf00040039000541b100cd
:100ea0000882cf00010039000541b100054252001f
:100eb000120032000a003b0082817100610164006f
:100ec0008100d1000080d3008984d3000884d3003e
:100ed0008b05e8000442e800f7ff3a0007003700fe
:100ee0000804440089844c000000480081804800c8
:100ef0008b05e9000442e900f9ff3a003dff0700d5
:100f00004f05be004f04be0000000600881f780099
:100f10000204780008017800c400070008004000bf
:100f20004f047800000006000000fa00881f7800d7
:100f300000047800ea8157003fb9970088007800e4
:100f400060782000070007000000e0000200350084
:100f500000044400004ceb004f0478000080fa00cd
:100f6000000006006200fa00889fbe008a1f780019
:100f7000000578008104780002047800830078007e
:100f800080f92f000f004000770107009a979f001b
:100f9000a9979f000000eb00b09f9f001885fb0001
:100fa0008a04fb000a05ea004f55de0050022000cb
:100fb000808f54000d003200e10f55000b003a0005
:100fc0000a017800880078002f9097009f91970081
:100fd00003000100a0979f000000e0008e00320097
:100fe0003f9897000000e800b09f9f000a0444006b
:100ff00050022000808f5400040032000900e000fd
:10100000e6ff3a003f989700840037000000eb00ad
:10101000909f9f00809f9f00f0979f00e0979f0008
:10102000d0979f00c0979f0007003700e1c72100bd
:10103000010050000000400021c7210080804000d6
:101040005f98970011007000d09f9f00880478007f
:1010500009047800384578008a00fb00e0c72100c9
:10106000790007000000e000f0ff3a00a1c2b300e1
:10107000814f55000e003a00cf8897000180e900ab
:10108000c08f9f0010007800c09f9f000000e0000c
:1010900005003d000000ea00c09f9f005f98970098
:1010a0000020a000d09f9f000904e8000f00370037
:1010b000c09f9f000000eb0005003700f2ff2700f3
:1010c000820f500002003200ea00b90000804000a8
:1010d0000904780088047800b900fb000103b1001e
:1010e000e98f5000f5ff3600c09f9f00e0c2b300bb
:1010f000984f1000020032000080eb00190037000a
:10110000a0c2b300d84f100007003a00cf88970064
:101110000180e900c08f9f0010007800a09f9f0011
:101120000804e800100037000000eb00a09f9f00bb
:101130008800780005003700f3ff2700830f500078
:1011400002003200ea00b90000004100010478000a
:10115000880078003101fb000203b100e90f510063
:10116000f5ff3600a09f9f00984478008900fb009f
:10117000a0c62100340007000000e0000200320099
:101180000804e800010037008044eb00c97f9f009d
:1011900080c6b30080cf540004003a0098cf1400fa
:1011a0000a003a006640500006003700c0c6b3008f
:1011b00080cf540005003a0098cf140003003a0095
:1011c00065404000c07f9f000804e8001801fb0054
:1011d000e3fb2f008f81410081f92f008f804000b9
:1011e000a0f92f000f004000e10007000000e00020
:1011f00009003a00e1fb2f008f804000a0f92f008a
:101200000f0040001c0007000000e0000200350055
:101210000804e80061ff37000080eb004f0578000c
:101220004f04be000080fa00000006008001780034
:1012300002003700b15978000201e9000200e00025
:10124000fcff3a0000000600020037000304e00043
:10125000060032000001780002007800b0417800fa
:1012600081cf5100f9ff3a00010037000001eb0087
:1012700002007800000006000400fa00889fbe000b
:101280008a9fbe008c1f7800000478000106780059
:10129000f80d9000780090008085550008089000b7
:1012a000808555001808900080855500280890001a
:1012b00080855500380890008085550048089000ca
:1012c000808555000002220090bf9f00000323008c
:1012d000a0bf9f00081090000028a30015003a004e
:1012e0000b00e000130034000b0578008a0478003e
:1012f000e20f55000100360029002000c8019000cf
:1013000009017800ee8057005800900003000100aa
:10131000500498000000e0008c0032006808900043
:1013200009004000600c9800090555004240a900e2
:10133000eeff3c00780190000200e0000c00340059
:10134000c80190008c007800580090000300010054
:10135000500498008080eb000000e0007c00320028
:10136000e80890007800900000804000600c980031
:10137000880c90000900e000110034000905780095
:10138000e28f5400010036002a002000c8019000be
:101390000a017800ec80570058009000030001001b
:1013a000500498000000e0006800320068089000d7
:1013b0000a004000600c98008a845400edff37005a
:1013c000180990000200e0000c003400c8019000f1
:1013d000e8009000580090000300010050049800bd
:1013e0008080eb000000e00059003200e808900027
:1013f0001808900000804000600c9800a80c900035
:101400000900e0001100340009057800e28f540063
:10141000010036002a002000c80190000a0178006f
:10142000ec80570058009000030001005004980021
:101430000000e00045003200680890000a0040000b
:10144000600c98008a845400edff37003809900042
:101450000200e0000e003400e80090001808900040
:1014600080804000c80190005800900003000100f7
:10147000500498008080eb000000e000340032004f
:10148000e80890003808900000804000600c980048
:10149000c80c90000900e000110034000905780034
:1014a000e28f5400010036002a002000c80190009d
:1014b0000a017800ec8057005800900003000100fa
:1014c000500498000000e0002000320068089000fe
:1014d0000a004000600c98008a845400edff370039
:1014e000081090008000eb000028a30018003200d4
:1014f0000b00e000160034008b047800090578002a
:10150000e28f5400010036002a002000c80190003c
:101510000a017800ee805700580090000300010097
:10152000500498000000e0000800320068089000b5
:101530000a004000600c98008a8454004240a900d0
:10154000eeff3c008000eb00010037008080eb00e4
:10155000010078004f0678004f05be004f04be0022
:101560000080fa0000000600010878000000060074
:10157000889fbe008a1f78000004780082447800ab
:101580000305780070c6b30080cf54001a003c00f9
:1015900000c0e90080cf5400de003d006d405000e7
:1015a00080cf5400810032000b003c00714050009d
:1015b00080cf54004c013c0000c0e90080cf5400b3
:1015c000d4003d0050c2b30080cf5400430132002c
:1015d0007c4040000500370030c6b30080cf540087
:1015e0001a0032001f003c0000c0e90080cf540008
:1015f0003d013a00c7003700f0c6b30080cf540069
:101600006a00320007003c006640500080cf540062
:10161000140032006540400080cf540032013a008f
:10162000eb00370050c7b30080cf54005f0032009a
:101630006340400080cf54005c00320002c7b3001a
:1016400082cf540028013a00160137001181e900c9
:10165000820878007800900000054500124d78005f
:101660002701370028609000c2c6b300824f5000a7
:1016700008003a00110178006400510080087800e9
:1016800090009000100078004f89de008201780001
:101690001600370012c7b300824f500003003a0013
:1016a000110278006800520005003700a2c6b3009e
:1016b000824f500008003a00910278006880520082
:1016c000800878009000900020019000b001900008
:1016d00010007800050037001180e90080087800cc
:1016e00010007800cf80de006109b900009cbe00c8
:1016f0000294be002862900085c6b300854f520058
:101700000d00320025c6b300854f520004003a0098
:101710000000fb00cf80de006109b900080037003f
:1017200045c7b300854f520003003200e6c24200b5
:10173000854f520004003a00cf80de006109b900f5
:10174000009cbe000294be0018027800980290002f
:1017500028039000b803900078009000e00f52003a
:10176000e08f5a00e00f5b00e08f5b0003003d005c
:1017700080004500d2c2b3000a00370088109000f4
:101780000118a3000300320080004500b2c2b3007c
:10179000040037000108a300590032008000450012
:1017a00002c2b300824878005300370028609000de
:1017b000c2c6b300824f500009003a0011037800fe
:1017c00064005300800878001002780090029000b6
:1017d0006033b8000400be000601be0016003700ea
:1017e00012c7b300824f500003003a009102780004
:1017f0006880520005003700a2c6b300824f500037
:1018000008003a001103780068005300800878004f
:101810009000900020019000b0019000100078002e
:10182000050037001180e90080087800100078007a
:101830008000eb006011b800009cbe000294be0066
:101840002862900085c6b300854f52000d0032001b
:1018500025c6b300854f520004003a000080fb000b
:101860008000eb006011b8000800370045c7b300e6
:10187000854f520003003200e6c24200854f5200fd
:1018800004003a008000eb006011b800009cbe002c
:101890000294be00081090000038a3001800320027
:1018a000180078009800900028019000b80190007e
:1018b000e00f5000e08f5800e00f5900e08f590012
:1018c0000f00320080c7b30080cf54000300320005
:1018d00080c5b30080cf540009003a007800900022
:1018e0008000450002c3b300824878000000e80091
:1018f00080004500894878000000e80070049800e6
:1019000078009000000545006a049800894078003e
:101910006f00370028619000c0c4b300804f5100b1
:1019200008003a009103780068805300800878002e
:101930009000900020019000b0019000100078000d
:10194000060037001101780064005100800878001b
:10195000900090001000780032050700009cbe0047
:101960000294be00b8009000780090000100e000f2
:1019700003003d0080004500d2c2b3000a003700da
:10198000881090000118a300030032008000450079
:10199000b2c2b300040037000108a3000500320002
:1019a0008000450002c2b300824878000000e800d1
:1019b0007004980078009000000545006a049800c3
:1019c0008900fb0008007800530007004e00370034
:1019d00028619000c3c6b3001180e900834f510015
:1019e000240032000a003c00e4c15100834f510042
:1019f0002700320083c1e800834f510015003200f8
:101a000020c6b300804f510020003a000a00370082
:101a100043c7b300834f51001d003200e6c14100af
:101a2000834f51001a00320010c7b300804f51009d
:101a300016003a00060037001180e900800878009f
:101a400010007800485c9000084878002e003700ad
:101a50001180e9008008780010007800680a900082
:101a6000cfa2de00612bb9000498be000690be0034
:101a70002500370080087800100078006809900081
:101a8000cf91de000288be001f0037001180e90000
:101a90008008780010007800680c90000808780032
:101aa000190037001181e9008208780012027800dd
:101ab000cfa2de00612bb900049cbe000694be00dc
:101ac000f8009000010545006a0498008040780005
:101ad00008007800920207000b00370078009000a1
:101ae000000545000500370078009000000545001e
:101af0000904e00001003a0059c2b300094d780022
:101b00000000e800700498000000eb004f0578002a
:101b10004f04be00000006002f04b000889fbe00e6
:101b20008a9fbe008c9fbe008e1f78000007780041
:101b300081f79f001e0478009e0490002e059000ff
:101b4000be0590005e0890000000e00002003d002d
:101b500060002000500f98008e00780020fb2f00be
:101b60000f00400044020700e20f50000a003a0054
:101b700030002000100f9800b1c9b3000ff097009b
:101b80008140400040bd2100e1cf50000d003e00eb
:101b900000bd21000b0037000000e0000f00340002
:101ba00030002000100f9800b1c9b3000ff197006a
:101bb00081404100c0bd2100e1cf500001003e0046
:101bc00080bd2100ee009000b0487800b068780039
:101bd0001040780090409800f70037000000e000c7
:101be00005003a0022fb2f000f0141000019780088
:101bf0008001eb00eb0037006022b8006033b800d2
:101c00000800be000a01be00ce0307000000e0008d
:101c100001003d000bf0a200705927009f9897002b
:101c20000088b900026a2800130020002904070078
:101c3000640650009c9f9f0015003b006306160041
:101c4000c0ff2f00000666008c01ea00939f9f00f2
:101c50000dbe21000800be000a01be0009003700c9
:101c60000c08a300050032001d0278009d029000c0
:101c70002d039000bd039000b90407000c86d1002d
:101c8000e88646000c00e000f5ff3c001a00370033
:101c90000c00e0001a003200c0ff2f0000066600b2
:101ca0009c9f9f000dbe21006000b8000200200034
:101cb00003ff2300090037000c08a30005003200d1
:101cc0001d0278009d0290002d039000bd0390003e
:101cd000a30407000c86d100e88646000c00e00053
:101ce000f5ff3c000002be000203be000800be007b
:101cf0000a01be009d0307000004be000205be00ed
:101d0000de08900060c6b3000ff29700804f5200cb
:101d1000040032006000200062c4b300824f520011
:101d200002003a009f9a97006a80420081004000ba
:101d3000f1b79f0001037800f30f53000200340055
:101d400037012000f7b79f0000c3b300c0779f00a2
:101d500056fb2f000f0343000e007800a0b79f0032
:101d6000060778003d0037000800be000a01be00eb
:101d70004b0407000006be007fb1970068015100c8
:101d8000f2b79f004240a9000c0034007004070025
:101d90000002be000203be000800be000a01be0031
:101da000e50407006022b80046782d00771924006a
:101db0006b0407000004be000205be00e8004700f7
:101dc0008e0020000802be000a03be00b4b79f00c8
:101dd000c5b79f00d6b79f00e7b79f000c01be00b4
:101de000010478000c003700a4002000050020004a
:101df000c0fd2f000f0040008a0107006fa8970068
:101e0000ffa897000fb197009fb1970005c3b300db
:101e1000056441000001be00e00f5100e08f590051
:101e2000030034000e07e900e10f4700eeff3a001f
:101e3000880078003fb49700cfb497005fb5970053
:101e4000efb597000200370000c3b3008060780050
:101e50000e07e900fcff3b00688740007fb3970056
:101e60000600e000070034006022b8006033b800cc
:101e70000800be000a01be00370307000000e000b2
:101e8000b9ff3c000e0378002fb7970051fb2f00dd
:101e90008f804000010353009f9b970067804300a1
:101ea000909f9f00020037000603e9000000e90050
:101eb000010178008200780003c3b300b1cf1100a4
:101ec000f9ff3200909f9f00de09900061c6b300c9
:101ed0000ff29700814f52000300320061c4b3003b
:101ee000814f520002003a000000e8000a0037006b
:101ef0001000200051c6b3008ff2970081cf52002e
:101f0000050032000540780050c4b2000080fb009c
:101f10000000e9004f00de0083014000868f510081
:101f200001003400860178000300e0001d00350048
:101f300000c3b300868f510006003d00030241003c
:101f40006940400041c3b30094cf100001003c0041
:101f5000694050008300e900810041000100370022
:101f6000840178000302e90001037800a1427800af
:101f700080cf5200faff320091c3b300814f50006e
:101f800001003a00054be8000400e00005003d00b8
:101f90000201e9008301e8001f9b97000603e800a7
:101fa000969f9f008ff397008700fb001f9a970072
:101fb0000e007800060007004f0778004f06be00ad
:101fc0004f05be004f04be002f04b1000000060004
:101fd000f0874700889fbe008a9fbe008c9fbe008e
:101fe0008e1f780000047800814478000205be004e
:101ff000040678000b00e00002003c001b002000fb
:102000006ac8210060c6b30080cf54000e003200c1
:1020100060c4b30080cf54000b00320070c6b30020
:1020200080cf54000300320070c4b30080cf54004e
:1020300085003a00e40f4600830035005808900000
:10204000800f560080003d000c06e80060c6b3001b
:1020500080cf54001000320060c4b30080cf540021
:102060000d003200081090000038a30004003a0070
:1020700058089000808f550001003d005b0c9800cf
:10208000580890000c005000500c980002003b00d3
:102090000000eb00500c9800980890006800900039
:1020a0000c00e00028003c000100400002c3b30027
:1020b000024878008100e800110c98005808900050
:1020c0000000e00003003c00081090000038a3006e
:1020d000060032006800900001004000e2c2b30038
:1020e000024878008100e800110c98005808900020
:1020f0008c00ea00810f500001003d000006ea005c
:102100008c00ea00210c9800000646005c0c980048
:102110008b0f5600010034000b0678003c0c980031
:10212000e800900018089000008040000c01780042
:102130008a0078003dfc0700580890000c0650000b
:102140004c0c9800940037008c8f550019003d000e
:10215000010040000b0178008a00780033fc070082
:102160001808900000804500100c98008b05560060
:102170002b0c9800d80890000100e00003003c0000
:10218000881090000138a30007003200e80090009a
:1021900000804000e1c2b300014878003808900098
:1021a0000000e800300c980058089000400c98009f
:1021b00079003700010040000c0178008a007800a7
:1021c0001afc07001808900000004600100c980048
:1021d0008c855500d80890000100e00003003c0009
:1021e000881090000138a30006003200e80090003b
:1021f00080804000e2c2b300824878000000e8001e
:10220000100c980058089000808f55000100340091
:1022100080057800e80090001808900000804000d9
:102220008c0045000b01780000fc070018089000a6
:102230000b004000100c9800580890008b055000cf
:102240002b0c98005400370018089000e80090000c
:10225000808040009a4878000000e800100c980048
:10226000d80890000100e00003003c0088109000b6
:102270000138a30006003200e80090008080400092
:10228000e2c2b300824878000000e800100c980019
:10229000580890000000e000100034008b05e900b1
:1022a000808f55000100340080057800e800900020
:1022b00018089000008040008a00e8000b017800b8
:1022c000dafb0700180890000b004000100c980083
:1022d000580890008b0550002b0c9800e8009000e7
:1022e0001808900000804000095878000007e800b6
:1022f0000c00e00004003500b1c2b30001487800d2
:102300008e04780004003700d1c2b3000148780081
:102310008e0478000c06ea007d8557008006eb00ed
:1023200009003700a20020008c007800728057005e
:10233000310007007fb097008fb89700016d7800db
:10234000000678008d06e8000c00e000f5ff3c0078
:102350000d00e00009003a008e04780000c3b300cd
:10236000805c7800050037008d06e900fc8057008e
:102370000d80400001c3b30090dc40000d00e00080
:10238000f9ff3c00e8009000180890000080400031
:1023900080845400390c980008109000740060008c
:1023a000f00f50000e003a0098089000780090005e
:1023b00000804000a808900001004000b80890008c
:1023c00001004000c808900001004000f80890009b
:1023d000810f500002003d0000805000000c98006a
:1023e0004f0778004f06be004f05be004f04be00e9
:1023f0000f01b100000006008002780001037800a0
:10240000110009000203d80080017800830a7800d7
:102410008299b9008200530091029800050078006b
:1024200000000600881f78008a9fbe008c9fbe00b7
:10243000000478000205be000406be000401be00d0
:102440000a00be0023020700008cbe000c01be0083
:102450004e0307000005550081855d002a049800a1
:102460003b049800080078004f06be004f05be00f0
:102470004f04780000000600889fbe00000478002a
:10248000e68440001900d0004500de00f27f200005
:10249000820f500010003a00000ceb009904780005
:1024a0006f816400200020001b003a002101900091
:1024b0000200e00018003a00110190000200e00064
:1024c00015003a00100020001100e0001200320058
:1024d00020002000100037000000e00004003a0057
:1024e000010078004b0107000000e00008003c00fc
:1024f000f20028001901610001fe2300810c710027
:1025000021c02f00010c40000080eb0002003700ca
:10251000000ceb000000eb004f04be0000000600c2
:10252000fc874700889fbe008a9fbe008c9fbe002c
:102530008e1f78000006780080c5b30080cf500061
:102540000a0032007740400080cf50000a0032007d
:102550006940400080cf50000b00320090c3210042
:1025600080bf9f00ae0020000a00370082c2210019
:1025700082bf9f000600370093c3210083bf9f00e6
:102580008e0020000300370094c3210084bf9f0009
:102590000e0120001c0278009c0290002c03900089
:1025a000bc0390000605be000404be0040c6b30094
:1025b00080cf5000030032006540400080cf5000c3
:1025c0000b003a00e00f5200e08f5a00e00f5b0072
:1025d000e08f5b0006003d006000b8006011b800ad
:1025e0000404500085845800060559008785590069
:1025f000e80f57000400320040002000f00f5700a1
:102600003c003a000100370030002000e00f540089
:10261000e08f5c00e00f5d00e08f5d0004003a0099
:10262000dc0890008d0120000100e000070032006e
:102630008e00e900888060008fba97008180420098
:1026400091407800f1ef9f007d012000800078002c
:102650008100e900050033008b05d1000a85d30015
:102660008984d3000884d300f9ff3700089ebe0098
:102670000a96be00130037008d06e9008e00e900bf
:10268000848060000fb997008100410011417800fb
:1026900083fd2f008d81410082f779008001780051
:1026a0008301e900050033008783d1000683d3004e
:1026b0008582d3000482d300f9ff3700049ebe0058
:1026c0000696be001c0278009c0290002c0390002d
:1026d000bc039000e00f5200e08f5a00e00f5b0057
:1026e000e08f5b00930034000d00e000e2ff3c004f
:1026f000900037002c60900081c6b300814f5000dd
:102700000b00320006003c000004e000080032002c
:10271000e6c05000814f500052003a0004003700dc
:10272000c1c6b300814f50004e003a00230037006d
:102730000800e00004003a005c0890008d012000d1
:102740000000e00007003200110009000e84d800ec
:102750000fba97000100420010407800f0ef9f0090
:102760007d012000110009000e84d8000b00370005
:10277000110009000e04d8008d06e9008e81b90011
:10278000020454008fb897000884400098417800f4
:1027900082fd2f000d01410083777900000478004d
:1027a0000800e000020032000d00e000f0ff3c00f5
:1027b000cfc4de00614db90027003700e00f5400a0
:1027c000e08f5c0004003a005c0890008d0120005e
:1027d0000000e000080032006171b9000800be008e
:1027e000670207000fba970080004200914078000e
:1027f000f1ef9f007d0120006171b9000800be006b
:102800004f0207000c0037006171b9000800be00dc
:10281000300107008d06e90080f1b9000204540080
:102820008fba9700088442009841780082fd2f00fb
:102830000d014100837779000004be00e00f5000d5
:10284000e08f5800020032000d00e000eeff3c0077
:102850004fcdde008a057800089ebe000a96be00b5
:1028600034003700e00f5400e08f5c00e00f5d00a3
:10287000e08f5d0004003a005c0890008d012000ac
:102880000000e0000a0032006172b900612bb9005b
:102890000800be000a01be00e40207000fba97005c
:1028a0008000420091407800f1ef9f007d01200000
:1028b0006172b900612bb9000800be000a01be00b8
:1028c000d30207000e0037006172b900612bb90016
:1028d0000800be000a01be00d80207008d06e9000c
:1028e00080f2b900040454008fba970008844200b3
:1028f0009842780084fd2f000d02420085777a000f
:10290000009ebe000296be001c0478009c0490004d
:102910002c059000bc059000e00f5400e08f5c0097
:10292000e00f5d00e08f5d00020034000d00e0006c
:10293000e5ff3c00e80f570010003a000c10900033
:102940000038a3000d003200f78f560006003e004d
:1029500080fd2f000d004000ef40780000c3b30061
:1029600080cf50000500320002c3b30071fd2f007c
:102970008d8040008d06e90082f77800788116008e
:10298000120e98006c00900083fd2f008f81410093
:102990008d80410025fa07001c089000dc0890009b
:1029a000810f500006003d0000805000000e98008e
:1029b0000c1090000040a100001698000f00370096
:1029c0000100e0000d003d008c109000f4806000dc
:1029d000f08f500009003a007c099000fc00900044
:1029e000810051000c09900082805000008050004e
:1029f0004240a90001003400000e98004f07780003
:102a00004f06be004f05be004f04be00cf01b1000f
:102a100000000600e60040001101780005002800d3
:102a2000850261006f0161008208780002003200b7
:102a30001200200011003700a001900012002000b9
:102a40000300e0000d003a00900190000300e00058
:102a50000a003a001000e00008003a003600370093
:102a6000640340009608780080017800530b7800da
:102a70009009780004087800700151001102780074
:102a80000400e000f6ff320013003700640240004b
:102a9000140378004f33de00838141008308730004
:102aa00080017800d3037800cf3bde001403780068
:102ab00006034300068a73001302780004024200f2
:102ac000100378004f33de00860972009001780011
:102ad000038841000201e90091017800ef8f510065
:102ae000eaff3600100037008001780053037800b9
:102af0004f33dd001002d10004087300640240006f
:102b000094037800cf3bdd001303d1008689730066
:102b1000110378004f33dd009401d100030a7300e4
:102b20009108d1000201e80091017800ff8f510067
:102b3000edff3e00ef88610091887200020078008e
:102b4000000006008f1fd100190307008f87e900de
:102b50000000e00000000600809feb001403070067
:102b60008f87e9000000e000000006002800fa005e
:102b7000889fbe008a9fbe008c9fbe0003866b00ac
:102b80008f0007006400e100440032006408e100a7
:102b90004a0032006100e100460032006108e100b5
:102ba00049003200ec0647006000b8003d02be005c
:102bb0003d03be00f48657006011b8003d04be001e
:102bc0003d05be007d0320000b0037000000a00083
:102bd0008d06e900130032000402420085824a009b
:102be00006034b0087834b000000400081804800b3
:102bf00002014900838149000802520089825a007b
:102c00000a035b008b835b00f0ff3b00080242007d
:102c100089824a000a034b008b834b008d06e90032
:102c2000edff3a008482720086827200f707b200dc
:102c30008782720001003200150020001e049000ff
:102c40003e0b900006035400e63fb0000368a3006b
:102c5000070032000000a7000500a0008301d1009a
:102c60000281d3008180d3000080d3000603e800f6
:102c70008301d1000281d3008180d3000080d30082
:102c80000002eb000482d2002100070003f0a10043
:102c90000cf0a70003f0a0005d00370064024700bd
:102ca0006408e100570032003400be003401be0069
:102cb000f6ff37006108e100520032006011b800f1
:102cc0006000b800f1ff370003ff2700020020007a
:102cd000fbff3700839f68000100e00002003d0019
:102ce00060001000e08018000300e00002003d00da
:102cf00060011100e0811900110107004f00e000a0
:102d000002003b0060001000e08018000000060098
:102d10001800200057002000080453000d003d005b
:102d20000600200097fc2f000740e1001e00340041
:102d300084827200610260008301d1000281d300ad
:102d40008180d3000080d3000804e800f8ff3a0037
:102d5000470020006104600005047400040464005e
:102d60000d00320061004000e08048006001490031
:102d7000e081490003b8a500070032000603e8001f
:102d80006538e10004003a008301d1000281d300dc
:102d90008180d3000080d300f87f20000830e1005c
:102da00003003500080378006000b8006011b80027
:102db0004433dd00f300b20083017300000006001d
:102dc000680447000294be000094be00fc04470063
:102dd0008694be008494be0009007800be020700fd
:102de00008007800bc02070099007800814f70004d
:102df0000b003b000800be00960207004f00b10028
:102e000003003700f3ff2700f2ff2f006110b90025
:102e10004f06be004f05be004f04be000080fa0002
:102e2000000006008103780098f707000001be004b
:102e30006000b8000478a30013003a006220e100ab
:102e400015003e000d0039008301d1000281d3003e
:102e50008180d3008301d1000281d3008180d3001f
:102e60008301d1000281d3008180d3000538b000f6
:102e7000c42add00f300b2008381720007f0a700ce
:102e800003f0a00000000600f3ff2700f2ff2f0070
:102e90006110b900fbff370003ff2700f7ff370081
:102ea0001400fa00889fbe008a9fbe008c9fbe005f
:102eb0000004be000205be00680047000a90be0084
:102ec0000890be00840207000070a7000bf0a1006c
:102ed000304320009e02900080825200b0fe2f00fe
:102ee0000028e10011003d00b0fc2f000028e100a7
:102ef000150034001e0990008e0890007e0090009e
:102f00000501b0000201d1008180d3000080d30010
:102f10008502e800fbff3a000b00e000bcff3b002d
:102f200060001000e0801800b9ff3700f0ff2f00ac
:102f3000f1ff27000b00e000b5ff3b000100280077
:102f400000002000b2ff37006000b800b0ff37007b
:102f50004f89de0082017800860237000000000001
:102f60002800fa00889fbe008a9fbe008c9fbe008a
:102f700003866b0092ff07000028a30064003a005c
:102f80000128a30068003a000008a30062003a008c
:102f90000108a30066003a001e009000be089000e1
:102fa00081064000ed3fb100f4805700ee01900033
:102fb000111ab8008e099000311bb8009e099000cc
:102fc000311cb800511db800f485570046000700b9
:102fd000fe0190003a0007008b85e8003e000700e4
:102fe0008e09900040000700ee01900034000700b9
:102ff0008b85e800380007008e099000400007002c
:103000009e0990001b18b800890440000a854800fa
:10301000fe019000340007008b85e80038000700af
:10302000ee019000300007008e0990001b18b800d8
:10303000890440000a8548000a98a30008003a0065
:103040000402420085824a0006034b0087834b003e
:1030500008044c0089844c000a054d008d06e900e7
:1030600084827200850273004c3add008502720092
:103070000100320015002000443ade001400b200c6
:103080004538de00cb45dd000b007000c540de009a
:10309000cb4ddd008b8070004549de00cb55dd0057
:1030a0000b017100c551de000d03780018ff070009
:1030b00003f0a1000cf0a70003f0a00054ff3700bc
:1030c0001b18b8008502400006834800e0834b00cf
:1030d00060044c00070037001b18b80006034000ce
:1030e00087834800faff37001b18b80087034000a9
:1030f00008844800e0844c0060054d000000060094
:103100001b18b8000804400089844800faff370003
:103110000108a3003bff3a005800be000000000079
:103120005801be00e2ff37000008a30035ff3a0057
:1031300009047800f8ff370007f0a2001e013700ed
:103140006022b800060220000000d0008180d2007a
:103150000482d2008582d2000000a0000202520048
:1031600083825a00030031000202420083824a0037
:103170000000a1000603e900f3ff3a00000006008a
:10318000efff07000400be0000000600020ab900bd
:10319000001bb9000200b80081004200810043001a
:1031a00000000600889fbe008a9fbe0030044200d7
:1031b000b0844a0030054b0090854b006000b100a0
:1031c0000898be000a90be000440e10005c8e10076
:1031d00006d0e10007d8e10002003100680040009d
:1031e0001008e8004f05be004f04be0000000600b6
:1031f000889fbe008a9fbe00100478009004900053
:1032000020059000b00590000418540005985c005b
:1032100006185d0007985d00110020000440e100e1
:1032200005c8e10006d0e10007d8e100010039003f
:103230008000eb00108810004f05be004f04be0058
:10324000000006001200fa00889fbe008a9fbe00a0
:103250008c9fbe00e0b79f00f1b79f0082bf9f0028
:1032600093bf9f000605be000404be000000eb00f3
:10327000d0b79f00c0b79f00b0b79f00a0b79f0016
:1032800090b79f00000678005fb19700cfb097001d
:10329000820141003fb097000200e00004003d00c1
:1032a000370007007e805700beff0700030037008d
:1032b000330007007e805700cdff0700dfb6970080
:1032c0000d00e0000c0035006fb29700ffb29700d0
:1032d0000fbb97009fbb970010002000010020004b
:1032e0006011b80000027200818272000203730054
:1032f000838373001b0007000c06e8000104200014
:10330000810f5600e0ff3a000d00e00004003d0090
:103310000802be000a03be007e805700a1ff07001e
:103320005fa897000000e00005003a001fb2970078
:10333000afb297003fb39700cfb3970009000700e3
:103340006fb09700ffb097000fb997009fb9970033
:103350004f06be004f05be004f04be000080fa00bd
:10336000000006000100070000000600a4b79f004f
:10337000b5b79f00c6b79f00d7b79f0000000600f3
:103380004f09de0082817100b3b79f004f01de005c
:103390008180400082807000a1b79f008fb09700ad
:1033a0004f09de00000040000200700090b79f004f
:1033b0007fa897004f01de0081804000828070006e
:1033c00081b79f000d0007004f3ade00000040006b
:1033d00004007000f0af9f000800070004024200e4
:1033e00085824a0006034b0087834b00dfff0700fe
:1033f0000802be000a03be00000006002fb29700bc
:10340000bfb297004fb39700dfb3970000000600ec
:10341000881f780018002000881f780089ff0700a7
:103420008f87e9004f04780000000600801feb0042
:1034300084ff07008f87e90000000600889fbe0018
:103440008a9fbe00e00f5000e08f5800e00f590047
:10345000e08f59000c003d006044b8006055b80092
:103460000000540081805c0002015d0083815d00ea
:10347000180020001500070008003d001800070094
:103480000004eb00050037000004eb000f0007000c
:1034900002003d001200070018002000dcff0700ba
:1034a0000800e000060032006022b8006033b80077
:1034b0000000520081805a0002015b0083815b00a2
:1034c0004f05be004f04be0000000600e00f520092
:1034d000e08f5a00e00f5b00e08f5b000000060009
:1034e0006044b8006055b8000402540085825c0056
:1034f00006035d0087835d0000000600889fbe0014
:103500008a9fbe008c1f7800e00f5000e08f5800ab
:10351000e00f5900e08f59000d003d006044b800f5
:103520006055b8000000540081805c0002015d001d
:1035300083815d001c0020000820e10009a8e10053
:103540000ab0e1000bb8e1000d003d0008003700b3
:103550000006eb00e00f5200e08f5a00e00f5b0026
:10356000e08f5b0006003d006044b8006055b80085
:103570000402540085825c0006035d0087835d00c1
:10358000aaff07000c00e000060032006022b8002d
:103590006033b8000000520081805a0002015b00d5
:1035a00083815b004f0678004f05be004f04be00cc
:1035b00000000600000000002800fa00889fbe00fe
:1035c0008a9fbe008c9fbe00070678008786690030
:1035d0000c003b00030478008704780008f0a10089
:1035e00009f0a100840f5000858f5800860f590004
:1035f000890f5c00030033000cf0a20001003a00c8
:103600000cf0a100eefd07006400e1005f00320055
:10361000780147006408e100610032006c01470056
:10362000748557003200be001201be003a04be008d
:103630001a05be001e039000be0a900085035300c9
:1036400006003d000004fd008104fd000205fd00b0
:103650008305fd008703ea00050378000df8a30049
:103660000400320060041400e0841c0060051d00aa
:10367000e0851d006022b8007d0320000d38e100c8
:103680008006eb000b0039004433dd00f300b2008c
:103690008301730039003700848272000d027800c4
:1036a000e10664008b85d1000a85d3008984d300ac
:1036b0000884d3008703e900f7ff3b0008004000bf
:1036c000898048000a0149008b81490004003b00c1
:1036d00060001000e080180060011900e08119000e
:1036e0000358a300090032008d82720084827200a8
:1036f000610260008301d1000281d3008180d30088
:103700000080d3000603e8001b0037000348a30035
:1037100017003a000600e000170034000603e90035
:103720000d00a3000000480081804800020149000c
:10373000838149000348a3000f003a000600e0001f
:10374000090034000603e9000000400081804800c1
:10375000020149008381490001003a000003eb00a7
:103760000348a300f5ff32006022b80002003700d2
:10377000848272006182660065fd070003f0a1008b
:103780000cf0a70003f0a000a1fd37006401470082
:103790006408e10002003a000df8a30099fd3a0028
:1037a00032007800b20078001201be0098fd3700a8
:1037b000889fbe008a9fbe008c9fbe000404be008e
:1037c0000605be00809fbe00829fbe00300007003d
:1037d000040678000800be000a01be002c000700a5
:1037e000840678004f03be004f02be008d4f760066
:1037f0007fb0970013003300f0ff2f008b8f6b001a
:1038000006003b000d0666000c00a7000a0037000a
:1038100007f0a600100020000a003700880f5200b1
:10382000898f5a008a0f5b008b8f5b000300390081
:103830001000200001003e000000200007f0a7005b
:103840000000ea004f06be004f05be004f04be0058
:1038500000000600e48240001078a3000700320058
:10386000640240001178a3003400be001401be00c1
:10387000050032000330a700000006003500780084
:10388000b50078001501be000330a000000006005e
:1038900005ff270005826100070032000428e100cf
:1038a00001003200240005000600070001003a0074
:1038b000440005000408050002000700f9ff3a0073
:1038c000140005006f8261008102700085027100a2
:1038d00085027200000006005002be00e4005000a5
:1038e0005003be004439de00f700b200f37f200031
:1038f00003016100090032000218e10016003a00dd
:103900008501720083017300838173000008200029
:1039100015003a00400020001300370085017200b6
:10392000830173008381730005003a0004a8be0080
:1039300006a8be00100020000b0037000201e900bd
:103940000402420085824a0006034b0087834b0035
:103950000748a300f9ff32000740a00004a8be00fa
:1039600006a8be0020002000800098009200980069
:1039700000000600881f7800030478000300e000c0
:1039800007003d0060001000e08018006001190091
:10399000e081190002003b0001f02d000300370018
:1039a0000400070008f0a70003f0a0004f0478000f
:1039b00000000600889fbe000082700004027100b3
:1039c000048271002400320036432000c50020002c
:1039d0008383cf000a0039000541b1008283cf0004
:1039e000070039000541b1008183cf000400390090
:1039f0000541b1008083cf00010039000541b100cd
:103a000085c353006022b800120032000a003b0058
:103a100084827200610260008301d1000281d300c0
:103a20008180d3000080d3000603e8008743e800cc
:103a3000f7ff3a000700370000004000818048008f
:103a400002014900838149000603e9008743e90038
:103a5000f9ff3a00aefc07004f04be00000006006c
:020000040000fa
:103a6000494e00005452000041200000494e000021
:103a700044550000535400005249000045530000d3
:103a80002000000050560000542000004c5400005c
:103a900044200000505500004e4500000043000047
:103aa000543100003a000000252e0000316600006d
:103ab00000440000433a00000025000064000000bc
:103ac00043540000323a0000004500006e740000cc
:103ad0006572000020530000503a000000420000d0
:103ae000415400005f4f0000503a00000000000009
:020000040000fa
:103af0000000fa0000ff2f0080718800600ea9000e
:103b0000602ea900e1dc210030002000010001004e
:103b100000902000d1032000ba050700e1dc21005d
:103b200030002000010001000032200001002000d0
:103b3000b4050700e1dc2100300020000100010095
:103b40000032200001002000ae050700e1dc21006a
:103b50002000200001000100e1dc210080022000a3
:103b600001000100e1dc2100e00020000100010073
:103b7000e1dc21006000200001000100e1dc210007
:103b8000100020000100010000502300c1002000af
:103b90009c0507000080fa00000006000200fa0001
:103ba000004f78001e80fb004400de0000407800db
:103bb0000080fb00a0718800640ea900642ea8009c
:103bc00000642000010020008e050700642ea9007b
:103bd0001e80fb006f006000a0718800642ea800aa
:103be000006420000100200086050700642ea90063
:103bf0000080fa00000006000200fa00004f780082
:103c00001e80fb004400de00004078000080fb00c6
:103c1000a0718800640ea800642ea8000064200033
:103c20000100200077050700642ea9001e80fb001c
:103c30006f006000a0718800642ea800006420005e
:103c4000010020006f050700642ea9000080fa0023
:103c5000000006000200fa00000f780004003700a0
:103c60001e00780010407800e3ff07001e0fe800f8
:103c70001e007800104078000004e000f8ff3a00d1
:103c80000080fa00000006000600fa0020479800b5
:103c900031479800220798000040eb00004f780061
:103ca0002e409000e14f500008003c003e40900044
:103cb0006f406000804078000174a000014f7800e0
:103cc0001e407800b5ff0700060037003e40900018
:103cd000ef40600000ccb30000cf70001e407800c1
:103ce000aeff07002e009000daff07000080fa0008
:103cf000000006000000fa0010c0b300a7ff070094
:103d0000a1e8210050002000010001000080fa001d
:103d1000000006000600fa00200798000000eb00f3
:103d2000000f78000b0037000000eb001007980030
:103d3000030037001e0090000000e8001007980004
:103d40009e009000400a2000808f5000f9ff36004e
:103d50001e0fe8002e0090009e007800808f50001b
:103d6000f1ff39000080fa00000006000000fa00b0
:103d7000158ea90000302c008111200021050700bc
:103d800015aea900158ea8000080fa0000000600fc
:103d90000000fa00158ea80015aea80015cea800e8
:103da00015eea8000080fa00000006000000fa00ee
:103db00015cea90000c02700210920001105070029
:103dc00015eea90015cea8000080fa00000006003c
:103dd0000000fa004e2eef007072800070738800b1
:103de00070738000f0718800f0718000707188003d
:103df000707180007070880070708000f0708800b2
:103e0000f0732000f0708800404e200000198800f8
:103e1000004222001019880010f0200020198800ac
:103e20003223ef002e23ef00f0732000801988006a
:103e30004119800000fe2f000080600040198800ba
:103e400028e3a90021e3a8000080fa000000060092
:103e50000000fa00deff07000430ef00900037009a
:103e6000000000000140800000002200008060008f
:103e70000000e000fbff320001a8a90020808000c4
:103e8000011880000001400020892100000041004d
:103e90000108780020808000111880000001400097
:103ea000e096210000004100010878002080800099
:103eb0002118800000014000a0a421000000410062
:103ec0000108780030188000608088004018800069
:103ed0007080880050188000808088006018800002
:103ee000b080880070188000a08088008018800052
:103ef0009080880020808000800040002089210080
:103f0000008040009000780090c48000808f5000b6
:103f100006003500208080008000400020892100bc
:103f2000008040001000780090c48800208080004d
:103f300080004000e0962100008040009000780062
:103f400070cb8000808f50000600350020808000fc
:103f500080004000e09621000080400010007800c2
:103f600070cb88002080800080004000a0a4210049
:103f7000008040009000780050d28000808f500078
:103f8000060035002080800080004000a0a42100b1
:103f9000008040001000780050d2880091c480005a
:103fa000f0822f0000804000cf80de000cf307007d
:103fb00062102800130924008bf20700ccf20700de
:103fc000000078003080880071cb800080822f0054
:103fd00000804000cf80de0001f307001258290066
:103fe000f308240080f20700c1f207000000780007
:103ff0004080880051d28000c0822f0000804000a5
:10400000cf80de00f6f2070012d723002309240038
:1040100075f20700b6f207000000780050808800b3
:1040200080808000cf80de00edf20700e2f92e00f4
:1040300073d2230042f30700adf2070000007800be
:1040400080808800a1808000807c2f00008040005c
:10405000cf80de00e2f20700323c2d00130a24007c
:1040600061f20700e0808800f18088009180800084
:10407000307b2f0000804000cf80de00d8f20700a8
:10408000325e2a00330a240057f20700c0808800fd
:10409000d1808800208080000000e8002080880017
:1040a00021808000d0062000808f50006cff3400fb
:1040b0000080fa00000006001400fa00889fbe008d
:1040c000450407008afe070002d329008040eb0068
:1040d00010c0b300ecfe070022d429008040eb00a2
:1040e00020c0b300e8fe070080f22100460307006d
:1040f0004d03070000902000d10320004104070079
:1041000010c0b300a5fe070080002000000f78005b
:1041100010002000100798001000200020079800d1
:104120000000eb003007980001003700000000009d
:10413000907280004500de00614060000080fb005e
:1041400040079800107380004d00de006140600061
:104150000080fb0050079800107080004600de00d1
:10416000614060000080fb006007980010708000d4
:104170004700de00614060000080fb00700798008f
:10418000907180004600de00614060000080fb000e
:10419000000f9800907180004700de0061406000d1
:1041a0000080fb00100f980000502300c100200089
:1041b0001404070031808000a00a2000808f500086
:1041c0002200340041808000a00a2000808f50002f
:1041d0001e00340051808000a00a2000808f500013
:1041e0001a00340005eea900490207001e009000e5
:1041f000e10f500007003a00e5fe0700000520002f
:1042000001002000ff030700d8fe07000000eb00bc
:1042100010079800e90007000e089000e10f500019
:1042200003003a001e007800140207000400370063
:104230000e0890000000e00001003a001f02070095
:1042400010002000200798001900370005eea80094
:104250001a0207002e009000e10f500007003a00fc
:10426000cbfe07000005200001002000e503070049
:10427000cefe07000000eb00200798003a0107007f
:104280001e0890000000e00003003a001e007800c5
:104290000f020700040037001e089000e10f5000d5
:1042a00001003a001a0207001000200010079800d1
:1042b0005e0090000000e00008003a003e00900020
:1042c0000000e800300798003e009000e10f500029
:1042d000020034000000eb00300798003e00900020
:1042e000e10f50003b003a0010c0b3002bfe070066
:1042f00000a8210061002000c2030700f2d42900b9
:104300008040eb0010c0b3005ffe0700c08080005b
:10431000d180800082b52100809fbe0040d5290059
:10432000801f780002007800fff20700e687570040
:1043300080b521000001780051c0b30010c0b30067
:1043400051fe070092d52900b1c0b30010c0b300e0
:104350004dfe070000b821009e1f7800d1d529002e
:10436000811f7800f0f20700e487570000b82100b1
:1043700000017800e1c0b30010c0b30042fe0700a6
:1043800002d629008040eb0020c0b3003efe0700ab
:10439000e0808000f180800082ba2100809fbe0012
:1043a00040d52900801f780002007800def2070067
:1043b000e687570080ba21000001780041c0b300b1
:1043c00020c0b30030fe070000502300c1002000d1
:1043d0008c0307003e0090000000e00053ff3a000d
:1043e00010c0b300edfd070000882300110020007d
:1043f0008403070052d6290011c0b30010c0b300d7
:1044000021fe07008181800060b22100811f7800b9
:10441000d1d52900811f7800c3f20700e487570037
:1044200060b2210000017800a1c0b30010c0b30049
:1044300015fe07006e0090000000e00007003a0043
:104440007e009000e10f500004003a00808180005f
:104450000000e80080818800090037006e009000ad
:10446000e10f500006003a007e0090000000e000de
:1044700003003a00808180000000e900808188000c
:104480008181800070082000808f5000030034007c
:10449000700820008081880006003700818180003c
:1044a000d0062000808f500002003c00e006200073
:1044b0008081880080818000cf80de00c8f1070005
:1044c0000002be00e0808000f18080000001be009c
:1044d0000400be0044f1070040818800518188003b
:1044e0004e0090000000e00014003a00408180007f
:1044f00051818000525b210033f12b0010f2070044
:104500000004be0080818000cf80de00b4f107008f
:1045100082dc2c0083f5230009f207000001be00b5
:104520000800be00d3f00700025f2600f327240036
:10453000cff007006ef10700000f78008002200026
:104540009e007800808f500003003400800220001d
:10455000000f7800050037001e007800e70f5000bc
:1045600002003c0080002000000f7800f2d62900f5
:1045700011c0b30020c0b300c3fd070081808000dc
:1045800000b32100811f7800d1d52900811f780058
:1045900065f20700e487570000b3210000017800ae
:1045a00091c0b30020c0b300b7fd07000050230046
:1045b000c100200013030700ddfe37000000fa00f1
:1045c000022cef000e2cef00102cef0080ff2f00cc
:1045d00090608800142cef00701d2000206088007f
:1045e000062cef001a2cef00202cef00402cef00df
:1045f000602cef00001020000064880000102000f4
:1046000000658800001020000066880000802c00f3
:104610001061880000802c001062880000802c004f
:104620001063880000802c001064880000802c003b
:104630001065880000802c0010668800242cef0094
:10464000442cef00642cef00842cef00a42cef002e
:10465000c42cef00262cef00462cef00662cef0058
:10466000862cef00a62cef00c62cef00282cef00c4
:10467000482cef00682cef00882cef00a82cef00ee
:10468000c82cef002a2cef004a2cef006a2cef0018
:104690008a2cef00aa2cef00ca2cef002c2cef0084
:1046a0004c2cef006c2cef008c2cef00ac2cef00ae
:1046b000cc2cef002e2cef004e2cef006e2cef00d8
:1046c0008e2cef00ae2cef00ce2cef00302cef0044
:1046d000502cef00702cef00902cef00b02cef006e
:1046e000d02cef00322cef00522cef00722cef0098
:1046f000922cef00b22cef00d22cef00342cef0004
:10470000542cef00742cef00942cef00b42cef002d
:10471000d42cef003a2cef005a2cef007a2cef004b
:104720009a2cef00ba2cef00da2cef003c2cef00b3
:104730005c2cef007c2cef009c2cef00bc2cef00dd
:10474000dc2cef003e2cef005e2cef007e2cef0007
:104750009e2cef00be2cef00de2cef00002cef00b3
:104760000080fa00000006000000fa00022cef00b2
:104770000e2cef00102cef0080ff2f0090608800bf
:10478000142cef00701d200020608800062cef0024
:104790001a2cef000010200000618800001020009b
:1047a000006288000010200000638800802cef0069
:1047b000a02cef00c02cef0000802c0010618800be
:1047c00000802c001062880000802c00106388009c
:1047d00000802c001064880000802c001065880088
:1047e00000802c0010668800242cef00442cef0081
:1047f000642cef00842cef00a42cef00c42cef00fd
:10480000262cef00462cef00662cef00862cef00e4
:10481000a62cef00c62cef00282cef00482cef0050
:10482000682cef00882cef00a82cef00c82cef00bc
:104830002a2cef004a2cef006a2cef008a2cef00a4
:10484000aa2cef00ca2cef002c2cef004c2cef0010
:104850006c2cef008c2cef00ac2cef00cc2cef007c
:104860002e2cef004e2cef006e2cef008e2cef0064
:10487000ae2cef00ce2cef00302cef00502cef00d0
:10488000702cef00902cef00b02cef00d02cef003c
:10489000322cef00522cef00722cef00922cef0024
:1048a000b22cef00d22cef00342cef00542cef0090
:1048b000742cef00942cef00b42cef00d42cef00fc
:1048c0003a2cef005a2cef007a2cef009a2cef00d4
:1048d000ba2cef00da2cef003c2cef005c2cef0040
:1048e0007c2cef009c2cef00bc2cef00dc2cef00ac
:1048f0003e2cef005e2cef007e2cef009e2cef0094
:10490000be2cef00de2cef000080fa000000060055
:104910000000fa000080fa00000006000000fa0023
:104920003140800000202000008060000000e00096
:1049300002003200f6ff07000728a9000080fa00f5
:10494000000006000000fa000080fa0000000600e7
:104950000000fa003140800000202000008060004c
:104960000000e00002003200f6ff07000bc8a900bb
:104970000080fa00000006000000fa000080fa0043
:10498000000006000000fa003140800000202000f6
:10499000008060000000e00002003200f6ff070027
:1049a0000be8a9000080fa00000006000000fa00f1
:1049b0000080fa00000006000000fa00314080008c
:1049c00000202000008060000000e00002003200b3
:1049d000f6ff07000c08a9000080fa00000006009e
:1049e0000000fa000080fa00000006000000fa0053
:1049f0003140800000202000008060000000e000c6
:104a000002003200f6ff07000c28a9000080fa001f
:104a1000000006000000fa000080fa000000060016
:104a20000000fa003140800000202000008060007b
:104a30000000e00002003200f6ff07000c48a90069
:104a40000080fa00000006000000fa000080fa0072
:104a5000000006000000fa00314080000020200025
:104a6000008060000000e00002003200f6ff070056
:104a70000c68a9000080fa00000006000200fa009d
:104a8000000f7800cdfe07000000280000608800bd
:104a90001e0078008000eb0054f0070022852b00f8
:104aa00063112400a6f0070032f007000000780030
:104ab000506088000080fa00000006000000fa0044
:104ac000befe0700002cef000080fa000000060088
:104ad0000200fa00000f780023ff07000000280002
:104ae000006088001e0078008000eb003ff00700a7
:104af00022852b006311240091f007001df00700b0
:104b000000007800506088000080fa000000060075
:104b10000000fa0014ff0700002cef000080fa00ec
:104b2000000006000000fa00003a80000080fa0051
:104b3000000006000200fa00faff0700000f7800ec
:104b40001e007800240007000004e000020032008c
:104b500000002800710007001e0078002a000700ee
:104b60000004e00002003200000024006b00070097
:104b70001e007800320007000004e000020032004e
:104b800000202000650007001e0078003a000700a2
:104b90000004e00002003200000820005f0007006f
:104ba0001e007800420007000004e000020032000e
:104bb00000042000590007001e0078004a0007008a
:104bc0000004e00002003200000120005300070052
:104bd0000080fa00000006000400fa0010079800a8
:104be0000040eb00004f78001e0090000000e00045
:104bf00002003d0010c0b300004f78001e40780056
:104c00000080fa00000006000400fa001007980077
:104c10000040eb00004f78009e0090000000240050
:104c2000008060000000e0000200320010c0b3000d
:104c3000004f78001e4078000080fa000000060057
:104c40000400fa00100798000040eb00004f7800c5
:104c50009e00900000202000008060000000e00026
:104c60000200320010c0b300004f78001e407800f0
:104c70000080fa00000006000400fa001007980007
:104c80000040eb00004f78009e00900000082000dc
:104c9000008060000000e0000200320010c0b3009d
:104ca000004f78001e4078000080fa0000000600e7
:104cb0000400fa00100798000040eb00004f780055
:104cc0009e00900000042000008060000000e000d2
:104cd0000200320010c0b300004f78001e40780080
:104ce0000080fa00000006000400fa001007980097
:104cf0000040eb00004f78001e0090007000600044
:104d00000000e0000200320010c0b300004f780045
:104d10001e4078000080fa00000006000200fa0041
:104d2000000f78009e80ea00003a8000008060005a
:104d3000003a88000080fa00000006000000fa0037
:104d40004027ef000080fa00000006000000fa0093
:104d50000021ef0000272000100888000003280031
:104d600020088800708180000000e00002003a0006
:104d7000e06f2200240007000068a9002068a80056
:104d800040c821008040eb00014878000080fa0014
:104d9000000006000200fa00000f78009e00780074
:104da0001108880040c821008040eb0001487800cd
:104db0000080fa00000006000000fa0010088000e1
:104dc0000080fa00000006000200fa00000f7800e0
:104dd0009e0078000108880040c821008040eb0058
:104de000014878000080fa00000006000000fa0088
:104df000000880000080fa00000006000000fa00b1
:104e00000080fa00000006000200fa00000f78009f
:104e10002068a9009e007800718188002068a800a1
:104e20000080fa00000006000000fa0040c82100df
:104e30008040eb00014878002068a80005e1a80048
:104e40000080fa00000006000000fa0005e1a90059
:104e50002068a9000080fa00000006000200fa00a5
:104e600040c82100104f78001e4078000004e00088
:104e70000300320040c821008040eb000148780068
:104e80001e4078000080fa00000006000000fa00d2
:104e900050c82100104078000080fb000080fa001c
:104ea000000006000000fa0050c821008040eb001e
:0c4eb000014878000080fa0000000600b5
:020000040000fa
:104ebc004a1c000020000000800000002c100000a4
:104ecc000200000082000000ffff0000841c0000b4
:104edc0002000000800000002e1000000200000004
:104eec0080000000321000009e0b000080000000cb
:104efc00001000002c0000008000000030100000aa
:104f0c000200000082000000730000006a1c000018
:104f1c001a00000082000000686a6c00747a4c0071
:104f2c000000010000020000040008000010000056
:104f3c00000020002b2d230030000000d01b0000af
:104f4c0058000000820000006e616e00004e4100af
:104f5c004e0069006e660000494e460000000000dd
:104f6c0000000000002440000000000000000000d1
:104f7c0059400000000000000088c3004000000001
:104f8c0000008400d79741000080e0003779c3000f
:104f9c00414317006e05b500b5b8930046f5f9000e
:104fac003fe903004f384d00321d3000f9487700bf
:104fbc00825a3c00bf737f00dd4f15007500000066
:104fcc00861c00000200000082000000300000007f
:104fdc00281c00002200000082000000303132004a
:104fec0033343500363738003941420043444500ec
:104ffc004600300031323300343536003738390052
:10500c00616263006465660000000000000000003f
:020000040000fa
:10501c000000fa00042eef0000002f00a0708800a2
:10502c00242eef00342eef00442eef00542eef0010
:10503c00642eef00306c200000708800f0ff200020
:10504c0080708800000027000071880080ef2f001e
:10505c00807188000030200000728800f01323005b
:10506c0080728800303c2f00007388000c2eef00fb
:10507c001c2eef002c2eef003c2eef004c2eef00e0
:10508c005c2eef006c2eef000a2eef001a2eef00b4
:10509c002a2eef003a2eef004a2eef005a2eef0088
:1050ac006a2eef00062eef00362eef00562eef0084
:1050bc00662eef000060200070708800f0732000f6
:1050cc00f070880000002600707188003e2eef0002
:1050dc000030200070728800003c20007073880043
:1050ec000080fa00000006000000fa0060002000ba
:1050fc00303a8800213a8000f0f32f0000806000e5
:10510c00203a8800213a800000fe2f0000806000c9
:10511c00203a88003200200080072000a1092000de
:10512c0033742000804978008149780082497800e6
:10513c00103a8000000178000200a00060042000fa
:10514c007105200023742000804978008149780083
:10515c008249780000000000113a8000000027000e
:10516c008080600000002300808f5000faff3a001e
:10517c0000000000113a8000000220000080600056
:10518c000000e000fbff32000080fa000000060087
:10519c000200fa00000f780021028000200f20008e
:1051ac00008060001e007000200288000080fa0061
:1051bc00000006000000fa00c3e8a8000000000090
:1051cc00000000000080fa00000006000000fa0059
:1051dc008fff070022000700c3ff070041fa0700fa
:1051ec00d7fe0700f3ff070000022000e8ff0700ce
:0851fc000080fa00000006002b
:020000040000fa
:10520400f03fb1000180b10006003500ee03090053
:1052140000000000403fb1000180b100fbff3d00f1
:105224001000b000203fb0000200350000800900eb
:0852340000000000000006006c
:020000040000fa
:10523c000200fa00000f78009e007800618188005f
:10524c00ffff37000000fa00a0c42100800778009f
:10525c0020c62100000188000080fa000000060032
:10526c000000fa0001428000f0ff2800008060007e
:10527c0000c0a000004288000080fa000000060078
:020000040000fa
:0200000401f009
:04000800cfff000026
:020000040000fa
:0200000401f009
:04000c0078ffff007a
:020000040000fa
:0200000401f009
:040010007dffff0071
:020000040000fa
:0200000401f009
:040014007fffff006b
:020000040000fa
:0200000401f009
:04001800efffff00f7
:020000040000fa
:0200000401f009
:04001c00dfffff0003
:020000040000fa
:0200000401f009
:04002000cfffff000f
:00000001FF
