:020000040000fa
:080000000002040000000000f2
:020000040000fa
:040008000e030000e3
:020000040000fa
:04000c00500300009d
:020000040000fa
:04001000b003000039
:020000040000fa
:040014002e030000b7
:020000040000fa
:040018007003000071
:020000040000fa
:04001c00900300004d
:020000040000fa
:04002000d003000009
:020000040000fa
:0400240032040000a2
:020000040000fa
:04002800320400009e
:020000040000fa
:04002c00320400009a
:020000040000fa
:040030003204000096
:020000040000fa
:04003400fc030000c9
:020000040000fa
:04003800320400008e
:020000040000fa
:04003c00320400008a
:020000040000fa
:040040003204000086
:020000040000fa
:040044003204000082
:020000040000fa
:04004800320400007e
:020000040000fa
:04004c00320400007a
:020000040000fa
:040050003204000076
:020000040000fa
:040054003204000072
:020000040000fa
:04005800320400006e
:020000040000fa
:04005c00320400006a
:020000040000fa
:040060003204000066
:020000040000fa
:040064003204000062
:020000040000fa
:04006800320400005e
:020000040000fa
:04006c00320400005a
:020000040000fa
:040070003204000056
:020000040000fa
:040074003204000052
:020000040000fa
:04007800320400004e
:020000040000fa
:04007c00320400004a
:020000040000fa
:040080003204000046
:020000040000fa
:040084003204000042
:020000040000fa
:04008800320400003e
:020000040000fa
:04008c00320400003a
:020000040000fa
:040090003204000036
:020000040000fa
:040094003204000032
:020000040000fa
:04009800320400002e
:020000040000fa
:04009c00320400002a
:020000040000fa
:0400a0003204000026
:020000040000fa
:0400a4003204000022
:020000040000fa
:0400a800320400001e
:020000040000fa
:0400ac00320400001a
:020000040000fa
:0400b0003204000016
:020000040000fa
:0400b4003204000012
:020000040000fa
:0400b800320400000e
:020000040000fa
:0400bc00320400000a
:020000040000fa
:0400c0003204000006
:020000040000fa
:0400c4003204000002
:020000040000fa
:0400c80032040000fe
:020000040000fa
:0400cc0032040000fa
:020000040000fa
:0400d00032040000f6
:020000040000fa
:0400d40032040000f2
:020000040000fa
:0400d80032040000ee
:020000040000fa
:0400dc0032040000ea
:020000040000fa
:0400e00032040000e6
:020000040000fa
:0400e40032040000e2
:020000040000fa
:0400e80032040000de
:020000040000fa
:0400ec0032040000da
:020000040000fa
:0400f00032040000d6
:020000040000fa
:0400f40032040000d2
:020000040000fa
:0400f80032040000ce
:020000040000fa
:0400fc0032040000ca
:020000040000fa
:0401000032040000c5
:020000040000fa
:0401040032040000c1
:020000040000fa
:0401080032040000bd
:020000040000fa
:04010c0032040000b9
:020000040000fa
:0401100032040000b5
:020000040000fa
:0401140032040000b1
:020000040000fa
:0401180032040000ad
:020000040000fa
:04011c0032040000a9
:020000040000fa
:0401200032040000a5
:020000040000fa
:0401240032040000a1
:020000040000fa
:04012800320400009d
:020000040000fa
:04012c003204000099
:020000040000fa
:040130003204000095
:020000040000fa
:040134003204000091
:020000040000fa
:04013800320400008d
:020000040000fa
:04013c003204000089
:020000040000fa
:040140003204000085
:020000040000fa
:040144003204000081
:020000040000fa
:04014800320400007d
:020000040000fa
:04014c003204000079
:020000040000fa
:040150003204000075
:020000040000fa
:040154003204000071
:020000040000fa
:04015800320400006d
:020000040000fa
:04015c003204000069
:020000040000fa
:040160003204000065
:020000040000fa
:040164003204000061
:020000040000fa
:04016800320400005d
:020000040000fa
:04016c003204000059
:020000040000fa
:040170003204000055
:020000040000fa
:040174003204000051
:020000040000fa
:04017800320400004d
:020000040000fa
:04017c003204000049
:020000040000fa
:040180003204000045
:020000040000fa
:040184003204000041
:020000040000fa
:04018800320400003d
:020000040000fa
:04018c003204000039
:020000040000fa
:040190003204000035
:020000040000fa
:040194003204000031
:020000040000fa
:04019800320400002d
:020000040000fa
:04019c003204000029
:020000040000fa
:0401a0003204000025
:020000040000fa
:0401a4003204000021
:020000040000fa
:0401a800320400001d
:020000040000fa
:0401ac003204000019
:020000040000fa
:0401b0003204000015
:020000040000fa
:0401b4003204000011
:020000040000fa
:0401b800320400000d
:020000040000fa
:0401bc003204000009
:020000040000fa
:0401c0003204000005
:020000040000fa
:0401c4003204000001
:020000040000fa
:0401c80032040000fd
:020000040000fa
:0401cc0032040000f9
:020000040000fa
:0401d00032040000f5
:020000040000fa
:0401d40032040000f1
:020000040000fa
:0401d80032040000ed
:020000040000fa
:0401dc0032040000e9
:020000040000fa
:0401e00032040000e5
:020000040000fa
:0401e40032040000e1
:020000040000fa
:0401e80032040000dd
:020000040000fa
:0401ec0032040000d9
:020000040000fa
:0401f00032040000d5
:020000040000fa
:0401f40032040000d1
:020000040000fa
:0401f80032040000cd
:020000040000fa
:0401fc0032040000c9
:020000040000fa
:0402000032040000c4
:020000040000fa
:0402040032040000c0
:020000040000fa
:0402080032040000bc
:020000040000fa
:04020c0032040000b8
:020000040000fa
:0402100032040000b4
:020000040000fa
:0402140032040000b0
:020000040000fa
:0402180032040000ac
:020000040000fa
:04021c0032040000a8
:020000040000fa
:0402200032040000a4
:020000040000fa
:0402240032040000a0
:020000040000fa
:04022800320400009c
:020000040000fa
:04022c003204000098
:020000040000fa
:040230003204000094
:020000040000fa
:040234003204000090
:020000040000fa
:04023800320400008c
:020000040000fa
:04023c003204000088
:020000040000fa
:040240003204000084
:020000040000fa
:040244003204000080
:020000040000fa
:04024800320400007c
:020000040000fa
:04024c003204000078
:020000040000fa
:040250003204000074
:020000040000fa
:040254003204000070
:020000040000fa
:04025800320400006c
:020000040000fa
:04025c003204000068
:020000040000fa
:040260003204000064
:020000040000fa
:040264003204000060
:020000040000fa
:100400008fd221000eff27000e018800000000009f
:10041000000020000000e000020032000001200087
:100420002002880014000700100107000000e0000f
:1004300003003a008054230001002000020037002e
:100440000000200001002000810f70000100320038
:100450000f000700000020000000e0000200320052
:1004600000000200000000008621020000000000e1
:100470000040da000000fe00801120000000e000d3
:1004800002003200002020009001880000000600d9
:10049000a1028800800478000000eb001f003700f4
:1004a000e284440054a0b4009905ba00e2844400f8
:1004b00054a0b4009906ba00e284440054a0b400e9
:1004c0000006eb00476fde00fd07b200ae018800ba
:1004d000636ce10003003a000ad801000000eb0061
:1004e0000e003700606ce10008003a00004deb00a0
:1004f0000a05e800020039003420ec000af0a000f0
:100500008b05e900f9ff3e00040037006168e10057
:10051000010032000086eb000b00070019c7ba008b
:100520000e04e0001905ba0003003a000a00e000da
:10053000dbff3a0000000600fe07b200ae028800b2
:100540008a047800f5ff37000cd0a300e20f4d00bd
:100550001c00390089027800354dba000a05e80010
:10056000020039003420ec000af0a0008b05e900fd
:100570000f003200254dba000a05e80002003900dc
:100580003420ec000af0a0008b05e90008003200de
:100590000c00e0000600320015cdba000a05e800a4
:1005a000020039003420ec000af0a0008b05e900bd
:1005b0008984e80054a0b4000b00e000e2ff3a0098
:1005c000000006009902ba00055d78008b05e9007d
:1005d000f7ff3200c82ade00055d78008b05e900d0
:1005e000f3ff32000c00e000f1ff320019ddba0029
:1005f000eeff37005c36040000000000da1e040045
:1006000000000000961f04000000000034200400d9
:1006100000000000c0070400000000003600f800e1
:10062000809fbe00829fbe00849fbe00869fbe004a
:100630000000fa00c028a9000000eb00561a0700cd
:100640000080fa004f03be004f02be004f01be0003
:100650004f00be003600f900004006003600f800ea
:10066000809fbe00829fbe00849fbe00869fbe000a
:100670000000fa004d1a0700c048a9001000200031
:10068000451a07000080fa004f03be004f02be006b
:100690004f01be004f00be003600f90000400600ca
:1006a0003600f800809fbe00829fbe00849fbe007f
:1006b000869fbe000000fa00c068a900200020004c
:1006c000351a07000080fa004f03be004f02be003b
:1006d0004f01be004f00be003600f900004006008a
:1006e0003600f800809fbe00829fbe00849fbe003f
:1006f000869fbe000000fa00c088a90030002000dc
:10070000251a07000080fa004f03be004f02be000a
:100710004f01be004f00be003600f9000040060049
:100720003600f800809fbe00829fbe00849fbe00fe
:10073000869fbe000000fa00c0a8a900400020006b
:10074000151a07000080fa004f03be004f02be00da
:100750004f01be004f00be003600f9000040060009
:100760003600f800809fbe00829fbe00849fbe00be
:10077000869fbe000000fa00c608a9007000200095
:10078000051a07000080fa004f03be004f02be00aa
:100790004f01be004f00be003600f90000400600c9
:1007a0003600f800809fbe00829fbe00849fbe007e
:1007b000869fbe000000fa00214680000002200053
:1007c000008060000000e00003003200c4a8a9001f
:1007d00090002000f01907002046800070006000a3
:1007e0000000e00003003200c488a900a00020003f
:1007f000e9190700ffff37003600f800809fbe00b0
:10080000829fbe00849fbe00869fbe000000fa004b
:10081000c08280000000e00002003200c082800040
:100820000000010050d22100104078008040e80014
:1008300050d221000148780040d2210011c0b300fd
:10084000014878000068a9000080fa004f03be004c
:100850004f02be004f01be004f00be003600f9003f
:10086000004006000040da000000fe000000050025
:1008700003f0a200889fbe008a9fbe008c1f7800f4
:1008800019010700200133006450e1004f003200dd
:100890006420e1005200320003826c0007003b003c
:1008a0000905d0000306d000820f54000c065d003d
:1008b0000200390002003200890178000306780046
:1008c0008582550004003d000003fd008103fd000a
:1008d0008502ea008b854200840f720002003b0013
:1008e00060001000e08018006011b8000005eb0007
:1008f0007a28e1000a00390006007800c75ddd00b3
:10090000f707b200878075002d00370082817100e3
:100910000a017800610560008180d1000080d30069
:100920008502e900f9ff3b00060440008784480087
:1009300002003b0060041400e0841c000988a3004e
:10094000070032008a8171008281710061016400b8
:100950008904d1000884d3008b05e8001700370014
:100960000978a30013003a000b00e00013003400e4
:100970008b05e9000804440089844c000a44740093
:100980000978a3000d003a000b00e00007003400d6
:100990008b05e9000804440089844c0001003a00fa
:1009a0000b0020000978a300f7ff32000001eb00e4
:1009b00002003700828171000a0178008f00070071
:1009c0000cf0a70001f0a000d80037006420e1007f
:1009d00002003a00838f6c00d80033000801be008b
:1009e0000200be00d1003700889fbe008a9fbe0073
:1009f0008c1f7800bc000700c300330003866c0026
:100a00006450e1002e0032006420e1003300320027
:100a10006150e1002f0032006120e100310032001e
:100a200085855500eb07b000090020000804200070
:100a3000050037000804440089844c000a00310096
:100a40000603430087834b000001530081815b0054
:100a5000f8ff33000203be000800a00008044400b1
:100a600089844c00f6ff3900c639dd00830173002c
:100a700001003200130020008904d1000884d30053
:100a80000998a300050032000800a7000300a00099
:100a90008904d1000884d3008b05e8008904d100c3
:100aa0000884d3000001eb000281d200530007004c
:100ab00001f0a1000cf0a70001f0a0009b0037009e
:100ac0006420e1009d0032000801be000200be006b
:100ad000f7ff37006120e100980032006000b800a5
:100ae000f3ff37000000200001f82700f0ff370077
:100af00014002000c8003700f4ff2f00c6003700a4
:100b00000001be00630007000470a70003f0a1000d
:100b10006509b100160032000d0035006828e100bb
:100b200006003500f0ff2f00f1ff27000300e00072
:100b300013003b00010028000000050000004000f9
:100b4000818048008502e900fcff3a000800370078
:100b5000f88f420002003c008000eb00000005001e
:100b60008100d1000080d3008502e800fcff3a003c
:100b70000300e00002003b0060001000e08018006d
:100b8000000006000001be00420007000470a7003c
:100b900003f0a10003f8a30013003a006509b100b7
:100ba00010003200090035006928e100020035001c
:100bb000010028000000050000004000818048007e
:100bc0008502e900fcff3a0000000600f88f4200b1
:100bd000050035008100d1000080d3008502e800c7
:100be000fcff3a00000006008000eb00000005005a
:100bf0004f89de0082017800a200370081002000ca
:100c0000618055000b003d000b00200061fe2f00ad
:100c10000100e1001d003400828171006101640067
:100c20008904d1000884d3000000e800faff3a00ec
:100c30007100200061006400030070000200600089
:100c40000900320061044400e0844c000988a500da
:100c5000050032008b05e8006808e10002003a0058
:100c60008904d1000884d300f20f20000258e1006b
:100c700005003d00c75ddd00f907b2008980750001
:100c800008007800000006000bf827008b007800b1
:100c900000000500c70ade00f107b200f50fb20040
:100ca00008003200e1cf4200020032000170a000d3
:100cb00024000500810f70000100320004080500c7
:100cc00044000500810f700002003a001400050086
:100cd0008502e9000000400081c04800fcff3b00a5
:100ce0000170a000240005000004be00e9ff070019
:100cf0000003be000405be000200be00e5ff0700c1
:100d0000844f7500000006000200be006450e10040
:100d1000050036006420e100020036000968a300e7
:100d200001003a000800be000160a0004f067800f4
:100d30004f05be004f04be0000000600f0ff2f006c
:100d4000f1ff2700f9ff3700889fbe008a9fbe0091
:100d50008c1f7800e4ff0700ebff330003866c0074
:100d60006450e100240032006420e10027003200da
:100d70006150e100220032006120e10021003200d8
:100d80008b854200eb07b1000134b800003ab8008f
:100d90000804420089844a00013ab8000030b800d3
:100da0008880400009014a00040033000000400030
:100db00081804800020149008b05e900c909dd0076
:100dc000830170000100320013002000c814de000f
:100dd0004814dd004709de001200b200c808de003a
:100de0000884700085ff070001f0a1000cf0a70047
:100df00001f0a000cdff37006120e100cfff3200fd
:100e00000801be000200be00f7ff37006150e1009c
:100e1000fcff3a00c9ff3700889fbe008a9fbe00d2
:100e2000841f7800b0ff07004f00780011003300e6
:100e3000f0ff2f00838f6c0006003b000405650067
:100e40000a00a7000800370009f0a60010002000e3
:100e500008003700820f5400838f5c0003003900c4
:100e60001000200001003e000000200009f0a70053
:100e70000000ea004f05be004f04be000000e00085
:100e800000000600881f7800030478000300e000db
:100e900007003d0060001000e080180060011900ac
:100ea000e081190002003b0001f02d000300370033
:100eb0000400070008f0a70001f0a0004f0478002c
:100ec00000000600889fbe008a9fbe00008270005e
:100ed0000402710004827100260032000004be008a
:100ee0000200be006011b8006b09200095022000ce
:100ef0000182cf000a0039000541b1000082cf0015
:100f0000070039000541b1000982cf000400390013
:100f10000541b1000882cf00010039000541b10050
:100f200005425200120032000a003b00828171002b
:100f3000610164008100d1000080d3008984d30066
:100f40000884d3008b05e8000442e800f7ff3a006c
:100f5000070037000804440089844c000000480062
:100f6000818048008b05e9000442e900f9ff3a005e
:100f700022ff07004f05be004f04be000000060020
:100f8000881f78000204780008017800c400070078
:100f9000080040004f047800000006000000fa003e
:100fa000881f780000047800ea8157003fb9970055
:100fb00088007800007c2000070007000000e000a7
:100fc0000200350000044400004ceb004f047800a0
:100fd0000080fa00000006006200fa00889fbe0050
:100fe0008a1f7800000578008104780002047800e8
:100ff0008300780080f92f000f0040007701070080
:101000009a979f00a9979f000000eb00b09f9f0058
:101010001885fb008a04fb000a05ea004f55de0034
:1010200050022000808f54000d003200e10f550067
:101030000b003a000a017800880078002f90970092
:101040009f91970003000100a0979f000000e0001f
:101050008e0032003f9897000000e800b09f9f008c
:101060000a04440050022000808f54000400320023
:101070000900e000e6ff3a003f989700840037003f
:101080000000eb00909f9f00809f9f00f0979f00c3
:10109000e0979f00d0979f00c0979f000700370000
:1010a000e1d12100010050000000400021d12100c9
:1010b000808040005f98970011007000d09f9f00d3
:1010c0008804780009047800384578008a00fb001d
:1010d000e0d12100790007000000e000f0ff3a00b5
:1010e000a1c2b300814f55000e003a00cf8897008f
:1010f0000180e900c08f9f0010007800c09f9f0012
:101100000000e00005003d000000ea00c09f9f00d5
:101110005f9897000020a000d09f9f000904e8007e
:101120000f003700c09f9f000000eb000500370054
:10113000f2ff2700820f500002003200ea00b900df
:10114000008040000904780088047800b900fb00a2
:101150000103b100e98f5000f5ff3600c09f9f00ea
:10116000e0c2b300984f1000020032000080eb0094
:1011700019003700a0c2b300d84f100007003a0092
:10118000cf8897000180e900c08f9f001000780091
:10119000a09f9f000804e800100037000000eb004b
:1011a000a09f9f008800780005003700f3ff27000c
:1011b000830f500002003200ea00b9000000410035
:1011c00001047800880078003101fb000203b100bf
:1011d000e90f5100f5ff3600a09f9f00984478006a
:1011e0008900fb00a0d02100340007000000e000cf
:1011f000020032000804e800010037008044eb00e0
:10120000c97f9f0080c6b30080cf540004003a001d
:1012100098cf14000a003a006640500006003700dc
:10122000c0c6b30080cf540005003a0098cf140028
:1012300003003a0065404000c07f9f000804e800ba
:101240001801fb00e3fb2f008f81410081f92f0083
:101250008f804000a0f92f000f004000e100070040
:101260000000e00009003a00e1fb2f008f80400001
:10127000a0f92f000f0040001c0007000000e00054
:10128000020035000804e80061ff37000080eb0031
:101290004f0578004f04be000080fa0000000600f1
:1012a0008001780002003700b15978000201e9009e
:1012b0000200e000fcff3a000000060002003700d8
:1012c0000304e0000600320000017800020078000c
:1012d000b041780081cf5100f9ff3a00010037009a
:1012e0000001eb0002007800000006000400fa0094
:1012f000889fbe008a9fbe008c1f78000004780083
:1013000001067800f80d9000780090008085550067
:1013100008089000808555001808900080855500c9
:101320002808900080855500380890008085550079
:1013300048089000808555000002220090bf9f0061
:1013400000032300a0bf9f00081090000028a30006
:1013500015003a000b00e000130034000b05780084
:101360008a047800e20f55000100360029002000b1
:10137000c801900009017800ee80570058009000e5
:1013800003000100500498000000e0008c003200cf
:101390006808900009004000600c9800090555009d
:1013a0004240a900eeff3c00780190000200e000fe
:1013b0000c003400c80190008c00780058009000a8
:1013c00003000100500498008080eb000000e00062
:1013d0007c003200e8089000780090000080400017
:1013e000600c9800880c90000900e00011003400a7
:1013f00009057800e28f5400010036002a00200021
:10140000c80190000a017800ec8057005800900055
:1014100003000100500498000000e0006800320062
:10142000680890000a004000600c98008a8454000c
:10143000edff3700180990000200e0000c003400b6
:10144000c8019000e80090005800900003000100df
:10145000500498008080eb000000e000590032004a
:10146000e80890001808900000804000600c980088
:10147000a80c90000900e000110034000905780074
:10148000e28f5400010036002a002000c8019000bd
:101490000a017800ec80570058009000030001001a
:1014a000500498000000e0004500320068089000f9
:1014b0000a004000600c98008a845400edff370059
:1014c000380990000200e0000e003400e8009000af
:1014d0001808900080804000c801900058009000db
:1014e00003000100500498008080eb000000e00041
:1014f00034003200e8089000380890000080400076
:10150000600c9800c80c90000900e0001100340045
:1015100009057800e28f5400010036002a002000ff
:10152000c80190000a017800ec8057005800900034
:1015300003000100500498000000e0002000320089
:10154000680890000a004000600c98008a845400eb
:10155000edff3700081090008000eb000028a3008a
:10156000180032000b00e000160034008b047800f5
:1015700009057800e28f5400010036002a0020009f
:10158000c80190000a017800ee80570058009000d2
:1015900003000100500498000000e0000800320041
:1015a000680890000a004000600c98008a8454008b
:1015b0004240a900eeff3c008000eb000100370034
:1015c0008080eb00010078004f0678004f05be00d8
:1015d0004f04be000080fa000000060001087800f9
:1015e00000000600889fbe008a1f78000004780073
:1015f000824478000305780070c6b30080cf5400a1
:101600001a003c0000c0e90080cf5400de003d001d
:101610006d40500080cf5400810032000b003c0030
:101620007140500080cf54004c013c0000c0e900e4
:1016300080cf5400d4003d0050c2b30080cf54008e
:10164000430132007c4040000500370030c6b30043
:1016500080cf54001a0032001f003c0000c0e90097
:1016600080cf54003d013a00c7003700f0c6b300f8
:1016700080cf54006a00320007003c0066405000f2
:1016800080cf5400140032006540400080cf5400e9
:1016900032013a00eb00370050c7b30080cf54004e
:1016a0005f0032006340400080cf54005c00320095
:1016b00002c7b30082cf540028013a001601370058
:1016c0001181e9008208780078009000000545004b
:1016d000124d78002701370028609000c2c6b30081
:1016e000824f500008003a00110178006400510058
:1016f0008008780090009000100078004f89de008c
:10170000820178001600370012c7b300824f5000e4
:1017100003003a001102780068005200050037000b
:10172000a2c6b300824f500008003a009102780030
:10173000688052008008780090009000200190009e
:10174000b001900010007800050037001180e9001a
:101750008008780010007800cf80de006109b900b1
:10176000009cbe000294be002862900085c6b300b3
:10177000854f52000d00320025c6b300854f520040
:1017800004003a000000fb00cf80de006109b900d0
:101790000800370045c7b300854f520003003200f0
:1017a000e6c24200854f520004003a00cf80de00be
:1017b0006109b900009cbe000294be0018027800c6
:1017c0009802900028039000b803900078009000e1
:1017d000e00f5200e08f5a00e00f5b00e08f5b00eb
:1017e00003003d0080004500d2c2b3000a0037006c
:1017f000881090000118a30003003200800045000b
:10180000b2c2b300040037000108a300590032003f
:101810008000450002c2b3008248780053003700c0
:1018200028609000c2c6b300824f500009003a0001
:1018300011037800640053008008780010027800db
:10184000900290006033b8000400be000601be00a4
:101850001600370012c7b300824f500003003a0051
:10186000910278006880520005003700a2c6b300dc
:10187000824f500008003a001103780068005300be
:10188000800878009000900020019000b001900046
:1018900010007800050037001180e900800878000a
:1018a000100078008000eb006011b800009cbe00c2
:1018b0000294be002862900085c6b300854f520096
:1018c0000d00320025c6b300854f520004003a00d7
:1018d0000080fb008000eb006011b80008003700ba
:1018e00045c7b300854f520003003200e6c24200f4
:1018f000854f520004003a008000eb006011b800f0
:10190000009cbe000294be00081090000038a300a6
:10191000180032001800780098009000280190000c
:10192000b8019000e00f5000e08f5800e00f590020
:10193000e08f59000f00320080c7b30080cf540001
:101940000300320080c5b30080cf540009003a0084
:10195000780090008000450002c3b3008248780000
:101960000000e80080004500894878000000e80099
:101970007004980078009000000545006a04980003
:10198000894078006f00370028619000c0c4b30020
:10199000804f510008003a0091037800688053009e
:1019a000800878009000900020019000b001900025
:1019b0001000780006003700110178006400510023
:1019c0008008780090009000100078003205070031
:1019d000009cbe000294be00b80090007800900009
:1019e0000100e00003003d0080004500d2c2b300ca
:1019f0000a003700881090000118a300030032008d
:101a000080004500b2c2b300040037000108a30003
:101a1000050032008000450002c2b3008248780011
:101a20000000e80070049800780090000005450070
:101a30006a0498008900fb00080078005300070042
:101a40004e00370028619000c3c6b3001180e90042
:101a5000834f5100240032000a003c00e4c15100d1
:101a6000834f51002700320083c1e800834f5100ab
:101a70001500320020c6b300804f510020003a000c
:101a80000a00370043c7b300834f51001d003200e6
:101a9000e6c14100834f51001a00320010c7b30065
:101aa000804f510016003a00060037001180e9000f
:101ab0008008780010007800485c900008487800a2
:101ac0002e0037001180e9008008780010007800af
:101ad000680a9000cfa2de00612bb9000498be0016
:101ae0000690be00250037008008780010007800be
:101af00068099000cf91de000288be001f00370009
:101b00001180e9008008780010007800680c9000cf
:101b100008087800190037001181e9008208780070
:101b200012027800cfa2de00612bb900049cbe0037
:101b30000694be00f8009000010545006a04980074
:101b40008040780008007800920207000b00370000
:101b500078009000000545000500370078009000ef
:101b6000000545000904e00001003a0059c2b30035
:101b7000094d78000000e800700498000000eb00b8
:101b80004f0578004f04be00000006002f04b0008f
:101b9000889fbe008a9fbe008c9fbe008e1f78006b
:101ba0000007780081f79f001e0478009e049000d3
:101bb0002e059000be0590005e0890000000e00039
:101bc00002003d0060002000500f98008e00780059
:101bd00020fb2f000f00400044020700e20f5000de
:101be0000a003a0030002000100f9800b1c9b3007d
:101bf0000ff097008140400040c72100e1cf500026
:101c00000d003e0000c721000b0037000000e0007f
:101c10000f00340030002000100f9800b1c9b3004d
:101c20000ff1970081404100c0c72100e1cf500073
:101c300001003e0080c72100ee009000b04878000f
:101c4000b06878001040780090409800f7003700a6
:101c50000000e00005003a0022fb2f000f014100c8
:101c6000001978008001eb00eb0037006022b8001b
:101c70006033b8000800be000a01be00ce030700b2
:101c80000000e00001003d000bf0a20070592700a9
:101c90009f9897000088b900026a2800130020006e
:101ca00029040700640650009c9f9f0015003b001c
:101cb00063061600c0ff2f00000666008c01ea00d4
:101cc000939f9f000dc821000800be000a01be00be
:101cd000090037000c08a300050032001d0278003f
:101ce0009d0290002d039000bd039000b8040700f2
:101cf0000c86d100e88646000c00e000f5ff3c00b1
:101d00001a0037000c00e0001a003200c0ff2f005c
:101d1000000666009c9f9f000dc821006000b8006f
:101d20000200200003ff2300090037000c08a30075
:101d3000050032001d0278009d0290002d039000e6
:101d4000bd039000a20407000c86d100e88646007f
:101d50000c00e000f5ff3c000002be000203be00e4
:101d60000800be000a01be009d0307000004be007b
:101d70000205be00de08900060c6b3000ff29700b7
:101d8000804f5200040032006000200062c4b300a3
:101d9000824f520002003a009f9a97006a804200e8
:101da00081004000f1b79f0001037800f30f53005a
:101db0000200340037012000f7b79f0000c3b300d2
:101dc000c0779f0056fb2f000f0343000e007800e2
:101dd000a0b79f00060778003d0037000800be004e
:101de0000a01be004b0407000006be007fb1970049
:101df00068015100f2b79f004240a9000c00340076
:101e0000700407000002be000203be000800be000e
:101e10000a01be00e40407006022b80046782d00e5
:101e2000771924006a0407000004be000205be0002
:101e3000e80047008e0020000802be000a03be0032
:101e4000b4b79f00c5b79f00d6b79f00e7b79f0004
:101e50000c01be00010478000c003700a400200033
:101e600005002000c0fd2f000f0040008a01070080
:101e70006fa89700ffa897000fb197009fb1970038
:101e800005c3b300056441000001be00e00f51002e
:101e9000e08f5900030034000e07e900e10f47000e
:101ea000eeff3a00880078003fb49700cfb4970067
:101eb0005fb59700efb597000200370000c3b3008d
:101ec000806078000e07e900fcff3b006887400057
:101ed0007fb397000600e000070034006022b800de
:101ee0006033b8000800be000a01be0037030700d7
:101ef0000000e000b9ff3c000e0378002fb7970008
:101f000051fb2f008f804000010353009f9b9700df
:101f100067804300909f9f00020037000603e9009e
:101f20000000e900010178008200780003c3b300db
:101f3000b1cf1100f9ff3200909f9f00de099000a1
:101f400061c6b3000ff29700814f520003003200c8
:101f500061c4b300814f520002003a000000e80063
:101f60000a0037001000200051c6b3008ff297001e
:101f700081cf5200050032000540780050c4b20005
:101f80000080fb000000e9004f00de0083014000fc
:101f9000868f510001003400860178000300e000c4
:101fa0001d00350000c3b300868f510006003d00c0
:101fb000030241006940400041c3b30094cf1000c8
:101fc00001003c00694050008300e90081004100ad
:101fd00001003700840178000302e9000103780062
:101fe000a142780080cf5200faff320091c3b300c3
:101ff000814f500001003a00054be8000400e0006a
:1020000005003d000201e9008301e8001f9b9700e5
:102010000603e800969f9f008ff397008700fb0060
:102020001f9a97000e007800060007004f077800ff
:102030004f06be004f05be004f04be002f04b10086
:1020400000000600f0874700889fbe008a9fbe0000
:102050008c9fbe008e1f78000004780081447800b9
:102060000205be00040678000b00e00002003c0000
:102070001b0020006ad2210060c6b30080cf54004c
:102080000e00320060c4b30080cf54000b00320059
:1020900070c6b30080cf54000300320070c4b30098
:1020a00080cf540085003a00e40f460083003500dd
:1020b00058089000800f560080003d000c06e80094
:1020c00060c6b30080cf54001000320060c4b3007b
:1020d00080cf54000d003200081090000038a3009b
:1020e00004003a0058089000808f550001003d0020
:1020f0005b0c9800580890000c005000500c9800a1
:1021000002003b000000eb00500c98009808900083
:10211000680090000c00e00028003c000100400036
:1021200002c3b300024878008100e800110c980057
:10213000580890000000e00003003c0008109000e8
:102140000038a30006003200680090000100400043
:10215000e2c2b300024878008100e800110c980048
:10216000580890008c00ea00810f500001003d00eb
:102170000006ea008c00ea00210c980000064600e8
:102180005c0c98008b0f5600010034000b067800a1
:102190003c0c9800e8009000180890000080400077
:1021a0000c0178008a0078003dfc07005808900078
:1021b0000c0650004c0c9800940037008c8f550092
:1021c00019003d00010040000b0178008a007800f2
:1021d00033fc07001808900000804500100c9800a0
:1021e0008b0556002b0c9800d80890000100e000e9
:1021f00003003c00881090000138a3000700320063
:10220000e800900000804000e1c2b300014878007f
:10221000380890000000e800300c98005808900042
:10222000400c980079003700010040000c01780054
:102230008a0078001afc0700180890000000460089
:10224000100c98008c855500d80890000100e00023
:1022500003003c00881090000138a3000600320003
:10226000e800900080804000e2c2b300824878001d
:102270000000e800100c980058089000808f55006e
:102280000100340080057800e800900018089000f4
:10229000008040008c0045000b01780000fc070026
:1022a000180890000b004000100c9800580890008f
:1022b0008b0550002b0c9800540037001808900034
:1022c000e8009000808040009a4878000000e80014
:1022d000100c9800d80890000100e00003003c00ba
:1022e000881090000138a30006003200e80090003a
:1022f00080804000e2c2b300824878000000e8001d
:10230000100c9800580890000000e0001000340005
:102310008b05e900808f55000100340080057800ae
:10232000e800900018089000008040008a00e80053
:102330000b017800dafb0700180890000b00400042
:10234000100c9800580890008b0550002b0c98003a
:10235000e8009000180890000080400009587800bc
:102360000007e8000c00e00004003500b1c2b30033
:10237000014878008e04780004003700d1c2b30011
:10238000014878008e0478000c06ea007d8557002d
:102390008006eb0009003700a20020008c007800c6
:1023a00072805700310007007fb097008fb8970008
:1023b000016d7800000678008d06e8000c00e00052
:1023c000f5ff3c000d00e00009003a008e047800a3
:1023d00000c3b300805c7800050037008d06e9007b
:1023e000fc8057000d80400001c3b30090dc40002a
:1023f0000d00e000f9ff3c00e80090001808900094
:102400000080400080845400390c9800081090002f
:1024100074006000f00f50000e003a009808900021
:102420007800900000804000a80890000100400063
:10243000b808900001004000c8089000010040006a
:10244000f8089000810f500002003d00008050000d
:10245000000c98004f0778004f06be004f05be00e5
:102460004f04be000f01b10000000600800278009a
:1024700001037800110009000203d80080017800f0
:10248000830a78008299b900820053009102980073
:102490000500780000000600881f78008a9fbe00b3
:1024a0008c9fbe00000478000205be000406be003a
:1024b0000401be000a00be0023020700008cbe001b
:1024c0000c01be004d0307000005550081855d002d
:1024d0002a0498003b049800080078004f06be00cc
:1024e0004f05be004f04780000000600889fbe0024
:1024f00000047800e68440001900d0004500de00aa
:10250000f27f2000820f500010003a00000ceb0018
:10251000990478006f816400200020001b003a00bd
:10252000210190000200e00018003a001101900023
:102530000200e00015003a00100020001100e00049
:102540001200320020002000100037000000e000e0
:1025500004003a00010078004b0107000000e00091
:1025600008003c00f20028001901610001fe230070
:10257000810c710021c02f00010c40000080eb0095
:1025800002003700000ceb000000eb004f04be001f
:1025900000000600fc874700889fbe008a9fbe009f
:1025a0008c9fbe008e1f78000006780080c5b300a7
:1025b00080cf50000a0032007740400080cf5000aa
:1025c0000a0032006940400080cf50000b0032000a
:1025d00090cd210080bf9f00ae0020000a00370090
:1025e00082cc210082bf9f000600370093cd2100de
:1025f00083bf9f008e0020000300370094cd210090
:1026000084bf9f000e0120001c0278009c029000f5
:102610002c039000bc0390000605be000404be001d
:1026200040c6b30080cf5000030032006540400038
:1026300080cf50000b003a00e00f5200e08f5a00ac
:10264000e00f5b00e08f5b0006003d006000b8001b
:102650006011b80004045000858458000605590034
:1026600087855900e80f5700040032004000200021
:10267000f00f57003c003a00010037003000200006
:10268000e00f5400e08f5c00e00f5d00e08f5d0024
:1026900004003a00dc0890008d0120000100e000f9
:1026a000070032008e00e900888060008fba970032
:1026b0008180420091407800f1ef9f007d01200071
:1026c000800078008100e900050033008b05d1000f
:1026d0000a85d3008984d3000884d300f9ff37002a
:1026e000089ebe000a96be00130037008d06e90062
:1026f0008e00e900848060000fb9970081004100de
:102700001141780083fd2f008d81410082f779000f
:10271000800178008301e900050033008783d10040
:102720000683d3008582d3000482d300f9ff3700eb
:10273000049ebe000696be001c0278009c0290001b
:102740002c039000bc039000e00f5200e08f5a0071
:10275000e00f5b00e08f5b00930034000d00e000b1
:10276000e2ff3c00900037002c60900081c6b3006f
:10277000814f50000b00320006003c000004e000d6
:1027800008003200e6c05000814f500052003a006d
:1027900004003700c1c6b300814f50004e003a001c
:1027a000230037000800e00004003a005c089000b5
:1027b0008d0120000000e000070032001100090038
:1027c0000e84d8000fba9700010042001040780034
:1027d000f0ef9f007d012000110009000e84d80059
:1027e0000b003700110009000e04d8008d06e90027
:1027f0008e81b900020454008fb89700088440000d
:102800009841780082fd2f000d0141008377790007
:10281000000478000800e000020032000d00e00033
:10282000f0ff3c00cfc4de00614db9002700370047
:10283000e00f5400e08f5c0004003a005c08900058
:102840008d0120000000e000080032006171b90035
:102850000800be00660207000fba97008000420021
:1028600091407800f1ef9f007d0120006171b90077
:102870000800be004e0207000c0037006171b9006d
:102880000800be00300107008d06e90080f1b900a4
:10289000020454008fba97000884420098417800df
:1028a00082fd2f000d014100837779000004be00f6
:1028b000e00f5000e08f5800020032000d00e000f1
:1028c000eeff3c004fcdde008a057800089ebe007a
:1028d0000a96be0034003700e00f5400e08f5c0021
:1028e000e00f5d00e08f5d0004003a005c0890009e
:1028f0008d0120000000e0000a0032006172b90082
:10290000612bb9000800be000a01be00e302070007
:102910000fba97008000420091407800f1ef9f00cd
:102920007d0120006172b900612bb9000800be0072
:102930000a01be00d20207000e0037006172b90022
:10294000612bb9000800be000a01be00d7020700d3
:102950008d06e90080f2b900040454008fba970094
:10296000088442009842780084fd2f000d02420046
:1029700085777a00009ebe000296be001c04780097
:102980009c0490002c059000bc059000e00f5400c2
:10299000e08f5c00e00f5d00e08f5d00020034001e
:1029a0000d00e000e5ff3c00e80f570010003a0082
:1029b0000c1090000038a3000d003200f78f560075
:1029c00006003e0080fd2f000d004000ef40780023
:1029d00000c3b30080cf50000500320002c3b30033
:1029e00071fd2f008d8040008d06e90082f7780090
:1029f00078811600120e98006c00900083fd2f0065
:102a00008f8141008d80410025fa07001c0890004d
:102a1000dc089000810f500006003d00008050004f
:102a2000000e98000c1090000040a10000169800c5
:102a30000f0037000100e0000d003d008c109000f9
:102a4000f4806000f08f500009003a007c0990008b
:102a5000fc009000810051000c0990008280500021
:102a6000008050004240a90001003400000e980090
:102a70004f0778004f06be004f05be004f04be0052
:102a8000cf01b10000000600e6004000110178000f
:102a900005002800850261006f016100820878004e
:102aa000020032001200200011003700a001900047
:102ab000120020000300e0000d003a009001900099
:102ac0000300e0000a003a001000e00008003a00ad
:102ad00036003700640340009608780080017800d3
:102ae000530b7800900978000408780070015100b9
:102af000110278000400e000f6ff320013003700f6
:102b000064024000140378004f33de0083814100eb
:102b10008308730080017800d3037800cf3bde0088
:102b20001403780006034300068a7300130278003a
:102b300004024200100378004f33de008609720061
:102b400090017800038841000201e90091017800ba
:102b5000ef8f5100eaff3600100037008001780047
:102b6000530378004f33dd001002d10004087300d6
:102b70006402400094037800cf3bdd001303d100d2
:102b800086897300110378004f33dd009401d10072
:102b9000030a73009108d1000201e8009101780056
:102ba000ff8f5100edff3e00ef88610091887200b9
:102bb00002007800000006008f1fd10018030700f4
:102bc0008f87e9000000e00000000600809feb0016
:102bd000130307008f87e9000000e00000000600f3
:102be0002800fa00889fbe008a9fbe008c9fbe000e
:102bf00003866b008f0007006400e1004400320090
:102c00006408e1004a0032006100e1004600320041
:102c10006108e10049003200ec0647006000b8009e
:102c20003d02be003d03be00f48657006011b800af
:102c30003d04be003d05be007d0320000b003700b3
:102c40000000a0008d06e9001300320004024200db
:102c500085824a0006034b0087834b00000040003a
:102c60008180480002014900838149000802520026
:102c700089825a000a035b008b835b00f0ff3b00f4
:102c80000802420089824a000a034b008b834b00f2
:102c90008d06e900edff3a008482720086827200a0
:102ca000f707b20087827200010032001500200091
:102cb0001e0490003e0b900006035400e63fb00057
:102cc0000368a300070032000000a7000500a00071
:102cd0008301d1000281d3008180d3000080d30022
:102ce0000603e8008301d1000281d3008180d30074
:102cf0000080d3000002eb000482d2002100070014
:102d000003f0a1000cf0a70003f0a0005d00370065
:102d1000640247006408e100570032003400be003e
:102d20003401be00f6ff37006108e10052003200b6
:102d30006011b8006000b800f1ff370003ff270002
:102d400002002000fbff3700839f68000100e000c5
:102d500002003d0060001000e08018000300e00069
:102d600002003d0060011100e08119001001070020
:102d70004f00e00002003b0060001000e0801800ff
:102d8000000006001800200057002000080453002f
:102d90000d003d000600200097fc2f000740e100d9
:102da0001e00340084827200610260008301d10041
:102db0000281d3008180d3000080d3000804e800a2
:102dc000f8ff3a0047002000610460000504740029
:102dd000040464000d00320061004000e0804800ff
:102de00060014900e081490003b8a50007003200f6
:102df0000603e8006538e10004003a008301d100d1
:102e00000281d3008180d3000080d300f87f2000ae
:102e10000830e10003003500080378006000b800c6
:102e20006011b8004433dd00f300b2008301730089
:102e300000000600680447000294be000094be0033
:102e4000fc0447008694be008494be00090078000c
:102e5000bd02070008007800bb0207009900780057
:102e6000814f70000b003b000800be009502070078
:102e70004f00b10003003700f3ff2700f2ff2f00df
:102e80006110b9004f06be004f05be004f04be00e2
:102e90000080fa0000000600810378007df707003b
:102ea0000001be006000b8000478a30013003a00df
:102eb0006220e10015003e000d0039008301d100c1
:102ec0000281d3008180d3008301d1000281d3002d
:102ed0008180d3008301d1000281d3008180d3009f
:102ee0000538b000c42add00f300b200838172000f
:102ef00007f0a70003f0a00000000600f3ff270082
:102f0000f2ff2f006110b900fbff370003ff27001d
:102f1000f7ff37001400fa00889fbe008a9fbe00aa
:102f20008c9fbe000004be000205be006800470082
:102f30000a90be000890be00830207000070a70040
:102f40000bf0a100304320009e02900080825200ce
:102f5000b0fe2f000028e10011003d00b0fc2f0062
:102f60000028e100150034001e0990008e08900032
:102f70007e0090000501b0000201d1008180d300e5
:102f80000080d3008502e800fbff3a000b00e00060
:102f9000bcff3b0060001000e0801800b9ff370064
:102fa000f0ff2f00f1ff27000b00e000b5ff3b0012
:102fb0000100280000002000b2ff37006000b800c8
:102fc000b0ff37004f89de008201780085023700ac
:102fd0002800fa00889fbe008a9fbe008c9fbe001a
:102fe00003866b0093ff07000028a30064003a00eb
:102ff0000128a30068003a000008a30062003a001c
:103000000108a30066003a001e009000be08900070
:1030100081064000ed3fb100f4805700ee019000c2
:10302000111ab8008e099000311bb8009e0990005b
:10303000311cb800511db800f48557004600070048
:10304000fe0190003a0007008b85e8003e00070073
:103050008e09900040000700ee0190003400070048
:103060008b85e800380007008e09900040000700bb
:103070009e0990001b18b800890440000a8548008a
:10308000fe019000340007008b85e800380007003f
:10309000ee019000300007008e0990001b18b80068
:1030a000890440000a8548000a98a30008003a00f5
:1030b0000402420085824a0006034b0087834b00ce
:1030c00008044c0089844c000a054d008d06e90077
:1030d00084827200850273004c3add008502720022
:1030e0000100320015002000443ade001400b20056
:1030f0004538de00cb45dd000b007000c540de002a
:10310000cb4ddd008b8070004549de00cb55dd00e6
:103110000b017100c551de000d03780019ff070097
:1031200003f0a1000cf0a70003f0a00055ff37004a
:103130001b18b8008502400006834800e0834b005e
:1031400060044c00070037001b18b800060340005d
:1031500087834800faff37001b18b8008703400038
:1031600008844800e0844c0060054d000000060023
:103170001b18b8000804400089844800faff370093
:103180000108a3003cff3a005800be000000000008
:103190005801be00e2ff37000008a30036ff3a00e6
:1031a00009047800f8ff370007f0a2001e0137007d
:1031b0006022b800060220000000d0008180d2000a
:1031c0000482d2008582d2000000a00002025200d8
:1031d00083825a00030031000202420083824a00c7
:1031e0000000a1000603e900f3ff3a00000006001a
:1031f000efff07000400be0000000600020ab9004d
:10320000001bb9000200b8008100420081004300a9
:1032100000000600889fbe008a9fbe003004420066
:10322000b0844a0030054b0090854b006000b1002f
:103230000898be000a90be000440e10005c8e10005
:1032400006d0e10007d8e10002003100680040002c
:103250001008e8004f05be004f04be000000060045
:10326000889fbe008a9fbe001004780090049000e2
:1032700020059000b00590000418540005985c00eb
:1032800006185d0007985d00110020000440e10071
:1032900005c8e10006d0e10007d8e10001003900cf
:1032a0008000eb00108810004f05be004f04be00e8
:1032b000000006001200fa00889fbe008a9fbe0030
:1032c0008c9fbe00e0b79f00f1b79f0082bf9f00b8
:1032d00093bf9f000605be000404be000000eb0083
:1032e000d0b79f00c0b79f00b0b79f00a0b79f00a6
:1032f00090b79f00000678005fb19700cfb09700ad
:10330000820141003fb097000200e00004003d0050
:10331000370007007e805700beff0700030037001c
:10332000330007007e805700cdff0700dfb697000f
:103330000d00e0000c0035006fb29700ffb297005f
:103340000fbb97009fbb97001000200001002000da
:103350006011b800000272008182720002037300e3
:10336000838373001b0007000c06e80001042000a3
:10337000810f5600e0ff3a000d00e00004003d0020
:103380000802be000a03be007e805700a1ff0700ae
:103390005fa897000000e00005003a001fb2970008
:1033a000afb297003fb39700cfb397000900070073
:1033b0006fb09700ffb097000fb997009fb99700c3
:1033c0004f06be004f05be004f04be000080fa004d
:1033d000000006000100070000000600a4b79f00df
:1033e000b5b79f00c6b79f00d7b79f000000060083
:1033f0004f09de0082817100b3b79f004f01de00ec
:103400008180400082807000a1b79f008fb097003c
:103410004f09de00000040000200700090b79f00de
:103420007fa897004f01de008180400082807000fd
:1034300081b79f000d0007004f3ade0000004000fa
:1034400004007000f0af9f00080007000402420073
:1034500085824a0006034b0087834b00dfff07008d
:103460000802be000a03be00000006002fb297004b
:10347000bfb297004fb39700dfb39700000006007c
:10348000881f780018002000881f780089ff070037
:103490008f87e9004f04780000000600801feb00d2
:1034a00084ff07008f87e90000000600889fbe00a8
:1034b0008a9fbe00e00f5000e08f5800e00f5900d7
:1034c000e08f59000c003d006044b8006055b80022
:1034d0000000540081805c0002015d0083815d007a
:1034e000180020001500070008003d001800070024
:1034f0000004eb00050037000004eb000f0007009c
:1035000002003d001200070018002000dcff070049
:103510000800e000060032006022b8006033b80006
:103520000000520081805a0002015b0083815b0031
:103530004f05be004f04be0000000600e00f520021
:10354000e08f5a00e00f5b00e08f5b000000060098
:103550006044b8006055b8000402540085825c00e5
:1035600006035d0087835d0000000600889fbe00a3
:103570008a9fbe008c1f7800e00f5000e08f58003b
:10358000e00f5900e08f59000d003d006044b80085
:103590006055b8000000540081805c0002015d00ad
:1035a00083815d001c0020000820e10009a8e100e3
:1035b0000ab0e1000bb8e1000d003d000800370043
:1035c0000006eb00e00f5200e08f5a00e00f5b00b6
:1035d000e08f5b0006003d006044b8006055b80015
:1035e0000402540085825c0006035d0087835d0051
:1035f000aaff07000c00e000060032006022b800bd
:103600006033b8000000520081805a0002015b0064
:1036100083815b004f0678004f05be004f04be005b
:1036200000000600000000002800fa00889fbe008d
:103630008a9fbe008c9fbe000706780087866900bf
:103640000c003b00030478008704780008f0a10018
:1036500009f0a100840f5000858f5800860f590093
:10366000890f5c00030033000cf0a20001003a0057
:103670000cf0a100effd07006400e1005f003200e4
:10368000780147006408e100610032006c014700e6
:10369000748557003200be001201be003a04be001d
:1036a0001a05be001e039000be0a90008503530059
:1036b00006003d000004fd008104fd000205fd0040
:1036c0008305fd008703ea00050378000df8a300d9
:1036d0000400320060041400e0841c0060051d003a
:1036e000e0851d006022b8007d0320000d38e10058
:1036f0008006eb000b0039004433dd00f300b2001c
:103700008301730039003700848272000d02780053
:10371000e10664008b85d1000a85d3008984d3003b
:103720000884d3008703e900f7ff3b00080040004e
:10373000898048000a0149008b81490004003b0050
:1037400060001000e080180060011900e08119009d
:103750000358a300090032008d8272008482720037
:10376000610260008301d1000281d3008180d30017
:103770000080d3000603e8001b0037000348a300c5
:1037800017003a000600e000170034000603e900c5
:103790000d00a3000000480081804800020149009c
:1037a000838149000348a3000f003a000600e000af
:1037b000090034000603e900000040008180480051
:1037c000020149008381490001003a000003eb0037
:1037d0000348a300f5ff32006022b8000200370062
:1037e000848272006182660066fd070003f0a1001a
:1037f0000cf0a70003f0a000a2fd37006401470011
:103800006408e10002003a000df8a3009afd3a00b6
:1038100032007800b20078001201be0099fd370036
:10382000889fbe008a9fbe008c9fbe000404be001d
:103830000605be00809fbe00829fbe0030000700cc
:10384000040678000800be000a01be002c00070034
:10385000840678004f03be004f02be008d4f7600f5
:103860007fb0970013003300f0ff2f008b8f6b00a9
:1038700006003b000d0666000c00a7000a0037009a
:1038800007f0a600100020000a003700880f520041
:10389000898f5a008a0f5b008b8f5b000300390011
:1038a0001000200001003e000000200007f0a700eb
:1038b0000000ea004f06be004f05be004f04be00e8
:1038c00000000600e48240001078a30007003200e8
:1038d000640240001178a3003400be001401be0051
:1038e000050032000330a700000006003500780014
:1038f000b50078001501be000330a00000000600ee
:1039000005ff270005826100070032000428e1005e
:1039100001003200240005000600070001003a0003
:10392000440005000408050002000700f9ff3a0002
:10393000140005006f826100810270008502710031
:1039400085027200000006005002be00e400500034
:103950005003be004439de00f700b200f37f2000c0
:1039600003016100090032000218e10016003a006c
:1039700085017200830173008381730000082000b9
:1039800015003a0040002000130037008501720046
:10399000830173008381730005003a0004a8be0010
:1039a00006a8be00100020000b0037000201e9004d
:1039b0000402420085824a0006034b0087834b00c5
:1039c0000748a300f9ff32000740a00004a8be008a
:1039d00006a8be00200020008000980092009800f9
:1039e00000000600881f7800030478000300e00050
:1039f00007003d0060001000e08018006001190021
:103a0000e081190002003b0001f02d0003003700a7
:103a10000400070008f0a70003f0a0004f0478009e
:103a200000000600889fbe00008270000402710042
:103a3000048271002400320036432000c5002000bb
:103a40008383cf000a0039000541b1008283cf0093
:103a5000070039000541b1008183cf00040039001f
:103a60000541b1008083cf00010039000541b1005c
:103a700085c353006022b800120032000a003b00e8
:103a800084827200610260008301d1000281d30050
:103a90008180d3000080d3000603e8008743e8005c
:103aa000f7ff3a000700370000004000818048001f
:103ab00002014900838149000603e9008743e900c8
:103ac000f9ff3a00affc07004f04be0000000600fb
:020000040000fa
:103ad000494e00005452000041200000494e0000b1
:103ae0004455000053540000524900004553000063
:103af0002000000050560000542000004c540000ec
:103b000044200000505500004e45000000550000c4
:103b10006e64000065720000205600006f6c0000ab
:103b20007461000067650000004f000076650000ca
:103b300072200000566f00006c7400006167000086
:103b40006500000053430000522000005452000062
:103b50004950000000490000474200005420000086
:103b60005452000049500000005900002d50000040
:103b7000686100007365000020410000627300006e
:103b8000656e0000740000004f7600006572000052
:103b90005f5600006f6c00007461000067650000f4
:103ba000206900006e200000506800006173000072
:103bb00065200000005500006e6400006572000082
:103bc0005f5600006f6c00007461000067650000c4
:103bd000206900006e200000506800006173000042
:103be0006500000042610000745f00005265000043
:103bf000765f0000506f00006c6100007269000089
:103c00007479000000460000617500006c740000cb
:103c100020440000657400006563000074650000c6
:103c200064000000536800006f7200007420000000
:103c30006369000072630000756900007400000091
:103c40005265000076650000727300006520000078
:103c5000506f00006c610000726900007479000010
:103c60002044000065740000656300007465000076
:103c700064000000252e00003166000000250000d1
:103c80006400000052420000435f000053500000f7
:103c90003a0000004f5000005f5600004f4c0000fb
:103ca00054410000474500003a0000005048000021
:103cb0005f4200003d000000505f0000593d0000e1
:103cc00000500000485f0000523d00000045000029
:103cd000424300005f530000503a000000490000da
:103ce0005f420000617400005f530000503a000022
:103cf000004900005f420000617400003a000000cb
:020000040000fa
:103d00000000fa00300ea900302ea900304ea900a4
:103d1000306ea900600ea900602ea900a1ed21005f
:103d2000300020000100010000902000d10320009d
:103d30008b0c0700a1ed21003000200001000100e4
:103d40000032200001002000850c0700a1ed2100b9
:103d5000300020000100010000322000010020009e
:103d60007f0c0700a1ed21002000200001000100d0
:103d7000a1ed21008002200001000100a1ed210041
:103d8000e000200001000100a1ed21006000200002
:103d900001000100a1ed2100100020000100010040
:103da00000502300c10020006d0c07000080fa00c5
:103db000000006000200fa00004f78001e80fb00a1
:103dc0004400de00004078000080fb00a071880005
:103dd000640ea900642ea8000064200001002000e9
:103de0005f0c0700642ea9001e80fb006f006000be
:103df000a0718800642ea80000642000010020004b
:103e0000570c0700642ea9000080fa00000006008d
:103e10000200fa00004f78001e80fb004400de0024
:103e2000004078000080fb00a0718800640ea800ac
:103e3000642ea8000064200001002000480c070048
:103e4000642ea9001e80fb006f006000a071880036
:103e5000642ea8000064200001002000400c070030
:103e6000642ea9000080fa00000006000200fa009b
:103e7000000f7800040037001e0078001040780022
:103e8000e3ff07001e0fe8001e00780010407800d6
:103e90000004e000f8ff3a000080fa00000006008d
:103ea0000600fa0020479800314798002207980042
:103eb0000040eb00004f78002e409000e14f500092
:103ec00008003c003e4090006f4060008040780059
:103ed0000174a000014f78001e407800b5ff070074
:103ee000060037003e409000ef40600000ccb30079
:103ef00000cf70001e407800aeff07002e0090003b
:103f0000daff07000080fa00000006000000fa0057
:103f100010c0b300a7ff070061f921005000200086
:103f2000010001000080fa00000006000600fa000f
:103f3000200798000000eb00000f78000b0037000e
:103f40000000eb0010079800030037001e009000ef
:103f50000000e800100798009e009000400a200032
:103f6000808f5000f9ff36001e0fe8002e009000f1
:103f70009e007800808f5000f1ff39000080fa0029
:103f8000000006000000fa00158ea90000302c0089
:103f900081112000f20b070015aea900158ea800b4
:103fa0000080fa00000006000000fa00158ea8004c
:103fb00015aea80015cea80015eea8000080fa00e6
:103fc000000006000000fa0015cea90000c027007e
:103fd00021092000e20b070015eea90015cea8006c
:103fe0000080fa00000006000000fa004e2eef00ec
:103ff000707280007073880070738000f0718800a8
:10400000f07180007071880070718000707088009d
:1040100070708000f0708800f0f12000f07088006f
:10402000404e20000019880000422200101988002c
:1040300010f02000201988003223ef002e23ef001b
:10404000f0f12000801988004119800000fe2f0047
:10405000008060004019880028e3a90021e3a8003f
:104060000080fa00000006000000fa00deff0700f2
:104070000430ef009f003700000000000140800086
:1040800000002200008060000000e000fbff320022
:1040900001a8a900208080000118800000014000d4
:1040a000a08b2100000041000108780020808000e2
:1040b00011188000000140006099210000004100bb
:1040c0000108780020808000211880000001400055
:1040d00020a721000000410001087800301880006e
:1040e0006080880040188000708088005018800030
:1040f000b080880060188000a08088007018800060
:104100009080880080188000808088002080800057
:1041100080004000a08b21000080400090007800cb
:10412000d0c58000808f50000600350020808000c0
:1041300080004000a08b210000804000100078002b
:10414000d0c5880020808000800040006099210058
:104150000080400090007800b0cc8000808f50003c
:10416000060035002080800080004000609921001a
:104170000080400010007800b0cc880020808000d3
:104180008000400020a721000080400090007800bf
:1041900090d38000808f5000060035002080800082
:1041a0008000400020a7210000804000100078001f
:1041b00090d38800d1c58000e0822f0000804000ad
:1041c000cf80de008af2070092972e00230a240097
:1041d00005f207004af207000000780030808800ee
:1041e000b1cc800070822f0000804000cf80de00c4
:1041f0007ff2070072022a00930a2400faf10700f6
:104200003ff20700000078004080880091d38000d2
:10421000b0822f0000804000cf80de0074f20700e3
:1042200072022a00930a2400eff1070034f207001b
:10423000000078005080880080808000cf80de0001
:104240006bf20700e2f92e0073d22300bef20700e2
:104250002bf207000000780080808800a180800099
:10426000807c2f0000804000cf80de0060f20700dd
:1042700062662600630a2400dbf1070020818800c3
:104280003181880091808000307b2f0000804000c9
:10429000cf80de0056f20700325e2a00330a240087
:1042a000d1f10700020020000300240071f1070093
:1042b000008188001181880031808000408080006a
:1042c00000804000a08188004180800050808000f4
:1042d00000804000b08188005180800030808000e4
:1042e00000804000c0818800208080000000e8003d
:1042f0002080880021808000d0062000808f500020
:104300005dff34000080fa00000006003000fa0073
:10431000881f7800070b070079fe070082d6290066
:104320008040eb0010c0b300ddfe0700a2d72900db
:104330008040eb0020c0b300d9fe070040032200fc
:10434000600a0700670a070000902000d1032000e0
:10435000030b070010c0b30096fe0700000020000a
:1043600081202400008fbe0000002000811c24005a
:10437000200798003107980010002000400798009f
:1043800010002000500798000000eb00100f98006c
:104390000000eb00200f980080002000300f9800f4
:1043a0000000eb00600798000000eb007007980029
:1043b0000000eb00000f980031aea800518ea8005d
:1043c00051aea800310ea900612ea90001003700ee
:1043d00000000000350ea800907280004500de004d
:1043e000614060000080fb00400f98001073800067
:1043f0004d00de00614060000080fb00500f98001f
:10440000107080004600de00614060000080fb000c
:10441000600f9800107080004700de00614060006f
:104420000080fb00700f9800907180004600de0055
:10443000614060000080fb000017980090718000d0
:104440004700de00614060000080fb00101798000c
:10445000907180004400de00614060000080fb003d
:1044600020179800907180004500de0061406000d8
:104470000080fb003017980000502300c10020008e
:10448000b70a07006e0890000000e0000a003a003a
:104490007e089000e10f500007003a006e00900087
:1044a000e20f500004003a00508280000000e80053
:1044b00050828800260037006e089000e10f5000ff
:1044c0000a003a007e0890000000e00007003a0071
:1044d0006e009000e20f500004003a00508280000d
:1044e0000000e90050828800190037006e08900033
:1044f0000000e0000a003a007e089000e10f500042
:1045000007003a006e009000e50f500004003a00ea
:10451000708280000000e800708288000c00370084
:104520006e089000e10f500009003a007e089000ec
:104530000000e00006003a006e009000e50f500019
:1045400003003a00708280000000e9007082880059
:104550005182800070082000808f500003003400da
:1045600070082000508288000600370051828000c9
:10457000d0062000808f500002003c00e0062000a2
:104580005082880070828000ee0f500003003400db
:10459000e0002000708288000500370070828000f3
:1045a000e90f500002003c00a0002000708288004b
:1045b0004e0890000000e00006003a006e009000f7
:1045c000e20f500003003a00508280009082880081
:1045d000080037004e0890000000e00005003a0097
:1045e0006e009000e50f500002003a0070828000db
:1045f000808288002e109000e10f500002003a00e7
:1046000005cea8000100370005cea9003e1090009d
:10461000e10f500002003a0004aea800010037008c
:1046200004aea9002e1090000000e00005003a0042
:104630003e1090000000e00002003a00048ea80046
:10464000070037002e109000e10f500003003200e9
:104650003e109000e10f500001003a00048ea900c6
:1046600031808000d0102000808f50000400340082
:1046700051808000d0102000808f500010003c003e
:1046800031808000d0102000808f50000400340062
:1046900041808000d0102000808f500008003c0036
:1046a00041808000d0102000808f50000600340030
:1046b00051808000d0102000808f50000200340014
:1046c00005eea9003500370031808000a00c2000e5
:1046d000808f500004003c0051808000a00c20001e
:1046e000808f50001000340031808000a00c20002a
:1046f000808f500004003c0041808000a00c20000e
:10470000808f50000800340041808000a00c200001
:10471000808f500006003c0051808000a00c2000db
:10472000808f500002003c0005eea8001b003700ff
:1047300031808000d0102000808f500004003400b1
:1047400051808000d0102000808f500010003c006d
:1047500031808000d0102000808f50000400340091
:1047600041808000d0102000808f500008003c0065
:1047700041808000d0102000808f5000060034005f
:1047800051808000d0102000808f50000200340043
:1047900005eea9000100370005eea9003180800078
:1047a000a00c2000808f50000b003400418080005e
:1047b000a00c2000808f5000070034005180800042
:1047c000a00c2000808f500010003c004082800030
:1047d0000000e0000d003a000088230011002000d6
:1047e000df09070072d829008040eb0010c0b30039
:1047f000abfd070000502300c1002000d8090700ce
:1048000010002000408288001800370031808000ae
:10481000d0102000808f500008003c0041808000b4
:10482000d0102000808f500004003c005180800098
:10483000d0102000808f50000c00340010c0b30056
:104840005cfd07000088230011002000c409070058
:1048500052d929008040eb0010c0b30090fd070042
:1048600000502300c1002000bd090700e080800047
:10487000e10f50000e003a00652ea80010c0b300f2
:104880004cfd07000088230011002000b409070038
:1048900022da29008040eb0010c0b30080fd070041
:1048a00000502300c1002000ad0907001c30ef00bc
:1048b000f0808000e10f50000e003a00652ea80045
:1048c00010c0b3003bfd070000882300110020004a
:1048d000a3090700b2da29008040eb0010c0b30042
:1048e0006ffd070000502300c10020009c09070055
:1048f0001e30ef008180800080062000808f5000f5
:1049000002003400046ea90001003700046ea80004
:10491000408080000000e000040032004180800000
:10492000d0102000808f50000e003400b507070023
:10493000c807070010c0b3001efd07000088230051
:10494000110020008609070052db29008040eb009f
:1049500010c0b30052fd070000502300c10020002a
:104960007f09070050818000e10f50000c003a00e1
:1049700010c0b3000ffd07000088230011002000c5
:104980007709070042dc29008040eb0010c0b3002b
:1049900043fd070000502300c100200070090700fc
:1049a00040818000e10f50000c003a0010c0b300bd
:1049b00000fd07000088230011002000680907009f
:1049c000b2dd29008040eb0010c0b30034fd0700c9
:1049d00000502300c1002000610907008080800092
:1049e000cf80de0082f007000002be002081800040
:1049f000318180000001be000400be00d2f007003b
:104a0000401798005117980080808000cf80de000a
:104a100077f007000002be00208180003181800015
:104a20000001be000400be00c7f007006017980038
:104a30007117980031808000a00c2000808f5000fa
:104a4000de02340031808000d0102000808f5000c2
:104a5000da023c0041808000a00c2000808f5000d2
:104a6000d602340041808000d0102000808f50009a
:104a7000d2023c0051808000a00c2000808f5000aa
:104a8000ce02340051808000d0102000808f500072
:104a9000ca023c009171800000002200008060008a
:104aa0000000e0000c00320010c0b300c1fc0700a1
:104ab0000088230011002000290907005107070082
:104ac00022df29008040eb0010c0b300f4fc070097
:104ad000652ea800ffff37005e070700044ea900ff
:104ae00005eea9004e009000e10f500007003a00cb
:104af0002dfd070000052000010020001809070017
:104b000020fd07000000eb00400798009172800034
:104b100000002100008060000000e00006003a0074
:104b2000e08080000000e00003003a003507070045
:104b300010002000e08088009172800000002200b8
:104b4000008060000000e00006003a00f080800075
:104b50000000e00003003a002a07070010002000d0
:104b6000f08088000e109000e10f500041003a00e4
:104b7000108280000000e0003e00320010828000c1
:104b8000e10f500013003a000e109000e10f5000aa
:104b90000e003a0010c0b30086fc07000088230016
:104ba00011002000ee0807001607070032e0290078
:104bb00011c0b30010c0b300b9fc07001082800020
:104bc0000000e80010828800790237004230ef00d0
:104bd0007702370010828000e20f500011003a0087
:104be0000e109000e10f50006c023a0010c0b300ac
:104bf00070fc07000088230011002000d80807007f
:104c00000007070032e0290011c0b30010c0b30054
:104c1000a3fc0700108280000000e80010828800da
:104c20006302370010828000e30f50005d023a00fb
:104c30000e109000e10f50000c003a0010c0b300bd
:104c40005cfc07000088230011002000c408070056
:104c500032e029008040eb0010c0b30090fc070058
:104c6000e8060700652ea800ffff37004230ef007e
:104c70004f0237000e1090000000e0004c023a0096
:104c80009172800000002100008060000000e000c0
:104c90004702320091728000000022000080600014
:104ca0000000e0004202320020818000318180005b
:104cb00018c0b30002002000832224008eef0700fa
:104cc0000000e00001003d000044eb000804e000ab
:104cd00049003200a08280000000e000460032005f
:104ce0007e0090000000e00043003a00a0828000b7
:104cf000e10f500015003a002081800031818000d2
:104d000018c0b30002002000832224007aef0700bd
:104d10000000e00001003d000044eb000804e0005a
:104d200008003200b706070000202100a10720007c
:104d30008b080700a08280000000e800a0828800a5
:104d40002d0037005430ef002b003700a082800088
:104d5000e20f500015003a00208180003181800070
:104d600018c0b300020020008322240062ef070075
:104d70000000e00001003d000044eb000804e000fa
:104d8000080032009f06070000202100a107200034
:104d900073080700a08280000000e800a08288005d
:104da000150037005430ef0013003700a082800058
:104db000e30f500010003a00208180003181800014
:104dc00018c0b30002002000832224004aef07002d
:104dd0000000e00001003d000044eb000804e0009a
:104de00004003200870607001000200070079800ba
:104df000010037005430ef007e009000e10f5000ba
:104e00000c003a00652ea80010c0b300e9fb0700b3
:104e100000882300110020005108070022e129002a
:104e200011c0b30010c0b3001dfc070075060700d9
:104e3000df013700208180003181800018c0b3007d
:104e4000020020008322240029ef07000000e00078
:104e5000010035000044eb000804e00003003a00c4
:104e6000a08280000000e000d1013a002605070082
:104e7000a1818000b0212000808f50000b003c00f9
:104e8000b1818000b0212000808f500007003c00dd
:104e9000c1818000b0212000808f500007003400c5
:104ea000508180000000e00004003a005506070031
:104eb0001000200050818800bd013700a1818000d2
:104ec00040192000808f50000b003400b181800019
:104ed00040192000808f500007003400c1818000fd
:104ee00040192000808f500007003c004081800066
:104ef0000000e00004003a00420607001000200015
:104f000040818800aa013700008180001181800063
:104f100018c0b3000200200003162400f6ee0700bc
:104f20000000e00001003d000044eb000804e00048
:104f3000270032000200200003f023001e0078004a
:104f40009e0090004aee0700008fbe0018c0b3001c
:104f500002002000432324001e0078009e009000e1
:104f6000e5ee07000000e00001003c000044eb001b
:104f70000804e00004003200000020004123240067
:104f8000008fbe000e00370018c0b30002002000e2
:104f9000031024001e0078009e009000d4ee07004d
:104fa0000000e000010035000044eb000804e000d0
:104fb000030032000000200001102400008fbe001a
:104fc0001e0078009e009000ff0507007801370062
:104fd000008180001181800018c0b3000200200011
:104fe00043202400c4ee07000000e00001003d0063
:104ff0000044eb000804e0002c0032000081800037
:105000001181800018c0b3000200200003162400a4
:10501000b7ee07000000e000010034000044eb00a0
:105020000804e0002100320018c0b3000200200094
:10503000432324001e0078009e009000aeee07007f
:105040000000e00001003c000044eb000804e00028
:10505000040032000000200041232400008fbe0025
:105060000e00370018c0b300020020000310240017
:105070001e0078009e0090009dee07000000e000fa
:10508000010035000044eb000804e000030032009a
:105090000000200001102400008fbe001e007800d8
:1050a0009e009000c8050700410137002081800064
:1050b0003181800018c0b3000200200003212400c9
:1050c0008dee07000000e00001003d000044eb0011
:1050d0000804e000270032000200200003f0230053
:1050e0001e0078009e009000e1ed0700008fbe00da
:1050f00018c0b30002002000432324001e007800e3
:105100009e0090007cee07000000e00001003c00e3
:105110000044eb000804e00004003200000020001e
:1051200041232400008fbe000e00370018c0b300da
:1051300002002000031024001e0078009e00900052
:105140006bee07000000e000010035000044eb00ba
:105150000804e000030032000000200001102400d9
:10516000008fbe001e0078009e009000960507008c
:105170000f013700008180001181800018c0b3004a
:1051800002002000031224005bee07000000e00094
:1051900001003d000044eb000804e0007a0032000a
:1051a000008180001181800018c0b300020020003f
:1051b000031724004eee07000000e0000100340059
:1051c0000044eb000804e0006f0032006e00900025
:1051d000e50f50006c003a0080828000cf80de0036
:1051e00083ee07000002be00008180001181800074
:1051f00018c0b3000001be000400be003eee070070
:105200000000e00001003c000044eb000804e00066
:10521000270032000200200003f023001e00780067
:105220009e00900093ed0700008fbe0018c0b300f1
:1052300002002000432324001e0078009e009000fe
:105240002dee07000000e00001003c000044eb00f0
:105250000804e00004003200000020004123240084
:10526000008fbe000e00370018c0b30002002000ff
:10527000031024001e0078009e0090001cee070022
:105280000000e000010035000044eb000804e000ed
:10529000030032000000200001102400008fbe0037
:1052a0001e0078009e00900047050700c0003700f0
:1052b00080828000cf80de004dee07000002be003d
:1052c000008180001181800018c0b3000001be0081
:1052d0000400be0006ee07000000e00001003500fb
:1052e0000044eb000804e000b0003200020020009f
:1052f00003f023001e0078009e0090005ced070084
:10530000008fbe0018c0b300020020004323240019
:105310001e0078009e009000f7ed07000000e000fe
:1053200001003c000044eb000804e00004003200ef
:105330000000200041232400008fbe000e00370033
:1053400018c0b30002002000031024001e007800e3
:105350009e009000e6ed07000000e000010035002f
:105360000044eb000804e0000300320000002000cd
:1053700001102400008fbe001e0078009e009000e7
:10538000110507008a00370091828000808080002c
:10539000808f5000270034000200200003f023001b
:1053a0001e0078009e00900032ed0700008fbe00c6
:1053b00018c0b30002002000432324001e00780020
:1053c0009e009000cced07000000e00001003c00d2
:1053d0000044eb000804e00004003200000020005c
:1053e00041232400008fbe000e00370018c0b30018
:1053f00002002000031024001e0078009e00900090
:10540000bbed07000000e000010035000044eb00a8
:105410000804e00003003200000020000110240016
:10542000008fbe001e0078009e009000e60407007a
:105430005f0037008180800070082000808f50005e
:105440000600340000402200410f2000c40607007f
:10545000652ea800eb040700ffff37009182800053
:1054600080808000808f500027003d0002002000d7
:1054700003f023001e0078009e009000fcec070063
:10548000008fbe0018c0b300020020004323240098
:105490001e0078009e00900097ed07000000e000dd
:1054a00001003c000044eb000804e000040032006e
:1054b0000000200041232400008fbe000e003700b2
:1054c00018c0b30002002000031024001e00780062
:1054d0009e00900086ed07000000e000010035000e
:1054e0000044eb000804e00003003200000020004c
:1054f00001102400008fbe001e0078009e00900066
:10550000b10407002a00370091828000808080006b
:10551000808f500026003a0018c0b300020020001f
:10552000432324001e0078009e00900072ed0700c7
:105530000000e00001003c000044eb000804e00033
:10554000040032000000200041232400008fbe0030
:105550000e00370018c0b300020020000310240022
:105560001e0078009e00900061ed07000000e00042
:10557000010035000044eb000804e00003003200a5
:105580000000200001102400008fbe001e007800e3
:105590009e0090008c04070005003700000000000a
:1055a0000300370000000000010037000000000089
:1055b0001000200050079800d80137009104070020
:1055c0009171800000002200008060000000e00077
:1055d0000900320010c0b300f6f907009d0407006f
:1055e000652ea80002e2290011c0b30010c0b3006c
:1055f0002bfa0700ffff37005e009000e10f50001c
:1056000007003a0068fa07000005200001002000aa
:10561000530607006bfa07000000eb0050079800e4
:10562000044ea800917280000000210000806000fc
:105630000000e00001003a0086040700917280003b
:1056400000002200008060000000e00001003a003d
:10565000800407001e109000e10f50002b003a005c
:10566000208280000000e0002800320020828000bc
:10567000e10f50000a003a001e109000e10f5000a8
:1056800005003a0073040700208280000000e80053
:10569000208288009f0137004430ef009d013700d1
:1056a00020828000e20f500008003a001e10900097
:1056b000e10f500092013a0066040700208280004a
:1056c0000000e800208288009201370020828000dc
:1056d000e30f50008c013a001e109000e10f5000c3
:1056e00002003a005b040700ffff370010c0b30060
:1056f000b0f9070032e0290011c0b30010c0b300b8
