:020000040000fa
:080000000002040000000000f2
:020000040000fa
:040008000e030000e3
:020000040000fa
:04000c00500300009d
:020000040000fa
:04001000b003000039
:020000040000fa
:040014002e030000b7
:020000040000fa
:040018007003000071
:020000040000fa
:04001c00900300004d
:020000040000fa
:04002000d003000009
:020000040000fa
:04002400fc030000d9
:020000040000fa
:04002800fc030000d5
:020000040000fa
:04002c00fc030000d1
:020000040000fa
:04003000fc030000cd
:020000040000fa
:04003400962700000b
:020000040000fa
:04003800fc030000c5
:020000040000fa
:04003c00fc030000c1
:020000040000fa
:04004000fc030000bd
:020000040000fa
:04004400fc030000b9
:020000040000fa
:04004800fc030000b5
:020000040000fa
:04004c00fc030000b1
:020000040000fa
:04005000fc030000ad
:020000040000fa
:04005400fc030000a9
:020000040000fa
:04005800fc030000a5
:020000040000fa
:04005c00fc030000a1
:020000040000fa
:04006000fc0300009d
:020000040000fa
:04006400fc03000099
:020000040000fa
:04006800fc03000095
:020000040000fa
:04006c00fc03000091
:020000040000fa
:04007000fc0300008d
:020000040000fa
:04007400fc03000089
:020000040000fa
:04007800fc03000085
:020000040000fa
:04007c00fc03000081
:020000040000fa
:04008000fc0300007d
:020000040000fa
:04008400fc03000079
:020000040000fa
:04008800fc03000075
:020000040000fa
:04008c00fc03000071
:020000040000fa
:04009000fc0300006d
:020000040000fa
:04009400fc03000069
:020000040000fa
:04009800fc03000065
:020000040000fa
:04009c00fc03000061
:020000040000fa
:0400a000fc0300005d
:020000040000fa
:0400a400fc03000059
:020000040000fa
:0400a800fc03000055
:020000040000fa
:0400ac00fc03000051
:020000040000fa
:0400b000fc0300004d
:020000040000fa
:0400b400fc03000049
:020000040000fa
:0400b800fc03000045
:020000040000fa
:0400bc00fc03000041
:020000040000fa
:0400c000fc0300003d
:020000040000fa
:0400c400fc03000039
:020000040000fa
:0400c800fc03000035
:020000040000fa
:0400cc00fc03000031
:020000040000fa
:0400d000fc0300002d
:020000040000fa
:0400d400fc03000029
:020000040000fa
:0400d800fc03000025
:020000040000fa
:0400dc00fc03000021
:020000040000fa
:0400e000fc0300001d
:020000040000fa
:0400e400fc03000019
:020000040000fa
:0400e800fc03000015
:020000040000fa
:0400ec00fc03000011
:020000040000fa
:0400f000fc0300000d
:020000040000fa
:0400f400fc03000009
:020000040000fa
:0400f800fc03000005
:020000040000fa
:0400fc00fc03000001
:020000040000fa
:04010000fc030000fc
:020000040000fa
:04010400fc030000f8
:020000040000fa
:04010800fc030000f4
:020000040000fa
:04010c00fc030000f0
:020000040000fa
:04011000fc030000ec
:020000040000fa
:04011400fc030000e8
:020000040000fa
:04011800fc030000e4
:020000040000fa
:04011c00fc030000e0
:020000040000fa
:04012000fc030000dc
:020000040000fa
:04012400fc030000d8
:020000040000fa
:04012800fc030000d4
:020000040000fa
:04012c00fc030000d0
:020000040000fa
:04013000fc030000cc
:020000040000fa
:04013400fc030000c8
:020000040000fa
:04013800fc030000c4
:020000040000fa
:04013c00fc030000c0
:020000040000fa
:04014000fc030000bc
:020000040000fa
:04014400fc030000b8
:020000040000fa
:04014800fc030000b4
:020000040000fa
:04014c00fc030000b0
:020000040000fa
:04015000fc030000ac
:020000040000fa
:04015400fc030000a8
:020000040000fa
:04015800fc030000a4
:020000040000fa
:04015c00fc030000a0
:020000040000fa
:04016000fc0300009c
:020000040000fa
:04016400fc03000098
:020000040000fa
:04016800fc03000094
:020000040000fa
:04016c00fc03000090
:020000040000fa
:04017000fc0300008c
:020000040000fa
:04017400fc03000088
:020000040000fa
:04017800fc03000084
:020000040000fa
:04017c00fc03000080
:020000040000fa
:04018000fc0300007c
:020000040000fa
:04018400fc03000078
:020000040000fa
:04018800fc03000074
:020000040000fa
:04018c00fc03000070
:020000040000fa
:04019000fc0300006c
:020000040000fa
:04019400fc03000068
:020000040000fa
:04019800fc03000064
:020000040000fa
:04019c00fc03000060
:020000040000fa
:0401a000fc0300005c
:020000040000fa
:0401a400fc03000058
:020000040000fa
:0401a800fc03000054
:020000040000fa
:0401ac00fc03000050
:020000040000fa
:0401b000fc0300004c
:020000040000fa
:0401b400fc03000048
:020000040000fa
:0401b800fc03000044
:020000040000fa
:0401bc00fc03000040
:020000040000fa
:0401c000fc0300003c
:020000040000fa
:0401c400fc03000038
:020000040000fa
:0401c800fc03000034
:020000040000fa
:0401cc00fc03000030
:020000040000fa
:0401d000fc0300002c
:020000040000fa
:0401d400fc03000028
:020000040000fa
:0401d800fc03000024
:020000040000fa
:0401dc00fc03000020
:020000040000fa
:0401e000fc0300001c
:020000040000fa
:0401e400fc03000018
:020000040000fa
:0401e800fc03000014
:020000040000fa
:0401ec00fc03000010
:020000040000fa
:0401f000fc0300000c
:020000040000fa
:0401f400fc03000008
:020000040000fa
:0401f800fc03000004
:020000040000fa
:0401fc00fc03000000
:020000040000fa
:04020000fc030000fb
:020000040000fa
:04020400fc030000f7
:020000040000fa
:04020800fc030000f3
:020000040000fa
:04020c00fc030000ef
:020000040000fa
:04021000fc030000eb
:020000040000fa
:04021400fc030000e7
:020000040000fa
:04021800fc030000e3
:020000040000fa
:04021c00fc030000df
:020000040000fa
:04022000fc030000db
:020000040000fa
:04022400fc030000d7
:020000040000fa
:04022800fc030000d3
:020000040000fa
:04022c00fc030000cf
:020000040000fa
:04023000fc030000cb
:020000040000fa
:04023400fc030000c7
:020000040000fa
:04023800fc030000c3
:020000040000fa
:04023c00fc030000bf
:020000040000fa
:04024000fc030000bb
:020000040000fa
:04024400fc030000b7
:020000040000fa
:04024800fc030000b3
:020000040000fa
:04024c00fc030000af
:020000040000fa
:04025000fc030000ab
:020000040000fa
:04025400fc030000a7
:020000040000fa
:04025800fc030000a3
:020000040000fa
:04025c00fc0300009f
:020000040000fa
:04026000fc0300009b
:020000040000fa
:04026400fc03000097
:020000040000fa
:100400002fc921000eff27000e0188000000000008
:10041000000020000000e000020032000001200087
:100420002002880014000700f50007000000e0002b
:1004300003003a000086220001002000020037007d
:100440000000200001002000810f70000100320038
:100450000f000700000020000000e0000200320052
:100460000000020000000000461f02000000000023
:100470000040da000000fe00e00520000000e0007f
:1004800002003200002020009001880000000600d9
:10049000a1028800800478000000eb001f003700f4
:1004a000e284440054a0b4009905ba00e2844400f8
:1004b00054a0b4009906ba00e284440054a0b400e9
:1004c0000006eb00476fde00fd07b200ae018800ba
:1004d000636ce10003003a000ad801000000eb0061
:1004e0000e003700606ce10008003a00004deb00a0
:1004f0000a05e800020039003420ec000af0a000f0
:100500008b05e900f9ff3e00040037006168e10057
:10051000010032000086eb000b00070019c7ba008b
:100520001905ba000e04e00003003a000a00e000da
:10053000dbff3a0000000600fe07b200ae028800b2
:100540008a047800f5ff37000cd0a300e20f4d00bd
:100550001c00390089027800354dba000a05e80010
:10056000020039003420ec000af0a0008b05e900fd
:100570000f003200254dba000a05e80002003900dc
:100580003420ec000af0a0008b05e90008003200de
:100590000c00e0000600320015cdba000a05e800a4
:1005a000020039003420ec000af0a0008b05e900bd
:1005b0008984e80054a0b4000b00e000e2ff3a0098
:1005c000000006009902ba00055d78008b05e9007d
:1005d000f7ff3200c82ade00055d78008b05e900d0
:1005e000f3ff32000c00e000f1ff320019ddba0029
:1005f000eeff37000028040000000000a21c0400e9
:10060000000000005c1d040000000000fa1d040052
:100610000000000094060400000000003600f8000e
:10062000809fbe00829fbe00849fbe00869fbe004a
:100630000000fa00c028a9000000eb0081130700a9
:100640000080fa004f03be004f02be004f01be0003
:100650004f00be003600f900004006003600f800ea
:10066000809fbe00829fbe00849fbe00869fbe000a
:100670000000fa0078130700c048a900100020000d
:10068000701307000080fa004f03be004f02be0047
:100690004f01be004f00be003600f90000400600ca
:1006a0003600f800809fbe00829fbe00849fbe007f
:1006b000869fbe000000fa00c068a900200020004c
:1006c000601307000080fa004f03be004f02be0017
:1006d0004f01be004f00be003600f900004006008a
:1006e0003600f800809fbe00829fbe00849fbe003f
:1006f000869fbe000000fa00c088a90030002000dc
:10070000501307000080fa004f03be004f02be00e6
:100710004f01be004f00be003600f9000040060049
:100720003600f800809fbe00829fbe00849fbe00fe
:10073000869fbe000000fa00c0a8a900400020006b
:10074000401307000080fa004f03be004f02be00b6
:100750004f01be004f00be003600f9000040060009
:100760003600f800809fbe00829fbe00849fbe00be
:10077000869fbe000000fa00c608a9007000200095
:10078000301307000080fa004f03be004f02be0086
:100790004f01be004f00be003600f90000400600c9
:1007a0003600f800809fbe00829fbe00849fbe007e
:1007b000869fbe000000fa00214680000002200053
:1007c000008060000000e00003003200c4a8a9001f
:1007d000900020001b13070020468000700060007e
:1007e0000000e00003003200c488a900a00020003f
:1007f00014130700ffff37000040da000000fe007e
:1008000000000500889fbe008a9fbe008c1f7800f4
:10081000ba000700c100330003866c006450e10099
:100820002e0032006420e100330032006150e1000c
:100830002f0032006120e100310032008585550033
:10084000eb07b00009002000080420000500370075
:100850000804440089844c000a0031000603430068
:1008600087834b000001530081815b00f8ff330058
:100870000203be000800a0000804440089844c0064
:10088000f6ff3900c639dd00830173000100320034
:10089000130020008904d1000884d3000998a30024
:1008a000050032000800a7000300a0008904d10061
:1008b0000884d3008b05e8008904d1000884d300a4
:1008c0000001eb000281d2005100070001f0a100fd
:1008d0000cf0a70001f0a000990037006420e100af
:1008e0009b0032000801be000200be00f7ff370087
:1008f0006120e100960032006000b800f3ff37008d
:100900000000200001f82700f0ff37000001be00c2
:10091000650007000470a70003f0a1006509b1009d
:10092000160032000d0035006828e1000600350091
:10093000f0ff2f00f1ff27000300e00013003b0051
:1009400001002800000005000000400081804800f0
:100950008502e900fcff3a0008003700f88f4200ea
:1009600002003c008000eb00000005008100d10087
:100970000080d3008502e800fcff3a000300e0009d
:1009800002003b0060001000e0801800000006003c
:100990000001be00440007000470a70003f0a1009e
:1009a00003f8a30013003a006509b10010003200fb
:1009b000090035006928e100020035000100280027
:1009c0000000050000004000818048008502e90029
:1009d000fcff3a0000000600f88f420005003500d9
:1009e0008100d1000080d3008502e800fcff3a00be
:1009f000000006008000eb00000005004f89de00cb
:100a000082017800890037006011b8009700370034
:100a100081002000618055000b003d000b0020008c
:100a200061fe2f000100e1001d0034008281710091
:100a3000610164008904d1000884d3000000e8004b
:100a4000faff3a00710020006100640003007000aa
:100a5000020060000900320061044400e0844c00a0
:100a60000988a500050032008b05e8006808e10050
:100a700002003a008904d1000884d300f20f20005c
:100a80000258e10005003d00c75ddd00f907b20036
:100a90008980750008007800000006000bf8270028
:100aa0008b00780000000500c70ade00f107b200e5
:100ab000f50fb20008003200e1cf42000200320020
:100ac0000170a00024000500810f700001003200b9
:100ad0000408050044000500810f700002003a0080
:100ae000140005008502e9000000400081c04800b4
:100af000fcff3b000170a000240005000004be00c4
:100b0000e9ff07000003be000405be000200be00ae
:100b1000e5ff0700844f7500000006000200be00dc
:100b20006450e100050036006420e1000200360058
:100b30000968a30001003a000800be000160a0009f
:100b40004f0678004f05be004f04be0000000600af
:100b5000f0ff2f00f1ff2700f9ff3700889fbe004c
:100b60008a9fbe008c1f7800e4ff0700ebff330074
:100b700003866c006450e100240032006420e10030
:100b8000270032006150e100220032006120e100c4
:100b9000210032008b854200eb07b1000134b80020
:100ba000003ab8000804420089844a00013ab800bb
:100bb0000030b8008880400009014a00040033007a
:100bc0000000400081804800020149008b05e900d7
:100bd000c909dd008301700001003200130020000c
:100be000c814de004814dd004709de001200b20020
:100bf000c808de000884700085ff070001f0a1002e
:100c00000cf0a70001f0a000cdff37006120e1004b
:100c1000cfff32000801be000200be00f7ff370020
:100c20006150e100fcff3a00c9ff3700881f7800df
:100c3000030478000300e00007003d00600010009e
:100c4000e080180060011900e081190002003b00fb
:100c500001f02d00030037000400070008f0a70092
:100c600001f0a0004f04780000000600889fbe003d
:100c70008a9fbe000082700004027100048271002d
:100c8000260032000004be000200be006011b80061
:100c90006b092000950220000182cf000a00390074
:100ca0000541b1000082cf00070039000541b100c5
:100cb0000982cf00040039000541b1000882cf004d
:100cc000010039000541b100054252001200320016
:100cd0000a003b0082817100610164008100d10043
:100ce0000080d3008984d3000884d3008b05e800fa
:100cf0000442e800f7ff3a00070037000804440008
:100d000089844c0000004800818048008b05e90080
:100d10000442e900f9ff3a003dff07004f05be001d
:100d20004f04be0000000600881f7800020478000f
:100d3000080178006b040700080040004f047800a9
:100d4000000006000000fa00881f78000004780008
:100d5000ea8157003fb99700880078004069200079
:100d6000070007000000e000020035000004440016
:100d7000004ceb004f0478000080fa0000000600f1
:100d80006200fa00889fbe008a1f78000005780084
:100d900081047800020478008300780080f92f0035
:100da0000f0040007f0607009a979f00a9979f00b9
:100db0000000eb00b09f9f001885fb008a04fb0039
:100dc0000a05ea004f55de0050022000808f5400d3
:100dd0000d003200e10f55000b003a000a017800c7
:100de000880078002f9097009f91970003000100e2
:100df000a0979f000000e0008e0032003f9897000f
:100e00000000e800b09f9f000a0444005002200048
:100e1000808f5400040032000900e000e6ff3a0031
:100e20003f989700840037000000eb00909f9f00e0
:100e3000809f9f00f0979f00e0979f00d0979f00b2
:100e4000c0979f000700370081c8210001005000b3
:100e500000004000c1c72100808040005f989700db
:100e600011007000d09f9f0088047800090478006a
:100e7000384578008a00fb0080c821002004070064
:100e80000000e000f0ff3a00a1c2b300814f55001e
:100e90000e003a00cf8897000180e900c08f9f00c4
:100ea00010007800c09f9f000000e00005003d009a
:100eb0000000ea00c09f9f005f9897000020a000fc
:100ec000d09f9f000904e8000f003700c09f9f00db
:100ed0000000eb0005003700f2ff2700820f5000f2
:100ee00002003200ea00b9000080400009047800e6
:100ef00088047800b900fb000103b100e98f5000bd
:100f0000f5ff3600c09f9f00e0c2b300984f10006d
:100f1000020032000080eb0019003700a0c2b300cd
:100f2000d84f100007003a00cf8897000180e900f1
:100f3000c08f9f0010007800a09f9f000804e80069
:100f4000100037000000eb00a09f9f008800780091
:100f500005003700f3ff2700830f50000200320026
:100f6000ea00b90000004100010478008800780020
:100f70003101fb000203b100e90f5100f5ff36001b
:100f8000a09f9f00984478008900fb0040c7210083
:100f9000db0307000000e000020032000804e80064
:100fa000010037008044eb00c97f9f0080c6b3007a
:100fb00080cf540004003a0098cf14000a003a0091
:100fc0006640500006003700c0c6b30080cf540012
:100fd00005003a0098cf140003003a006540400035
:100fe000c07f9f000804e8001801fb00e3fb2f000e
:100ff0008f81410081f92f008f804000a0f92f00e0
:101000000f004000100007000000e00009003a0057
:10101000e1fb2f008f804000a0f92f000f0040005f
:10102000240507000000e000020035000804e80085
:1010300061ff37000080eb004f0578004f04be00d1
:101040000080fa0000000600889fbe008a1f78001a
:1010500000047800824478000305780070c6b3006d
:1010600080cf54001a003c0000c0e90080cf54003b
:10107000cc003d006d40500080cf5400790032001c
:101080000b003c007140500080cf540037013c0001
:1010900000c0e90080cf5400c2003d0050c2b30040
:1010a00080cf54002e0132007c4040000500370004
:1010b00030c6b30080cf54001a0032001f003c003d
:1010c00000c0e90080cf540028013a00b500370085
:1010d000f0c6b30080cf54006200320007003c002d
:1010e0006640500080cf540014003200654040003c
:1010f00080cf54001d013a00d600370050c7b3001e
:1011000080cf5400570032006340400080cf54002d
:101110005400320002c7b30082cf540013013a00da
:10112000010137001181e900820878007800900001
:1011300000054500124d780012013700286090002c
:10114000c2c6b300824f500007003a001101780078
:1011500064005100800878001000be004f89de0056
:10116000820178001100370012c7b300824f50008f
:1011700003003200a2c6b300824f500006003a00be
:101180001101780068005100800878005001be000d
:101190004000be00050037001180e900800878009b
:1011a00010007800cf80de006109b900009cbe000d
:1011b0000294be002862900085c6b300854f52009d
:1011c0000d00320025c6b300854f520004003a00de
:1011d0000000fb00cf80de006109b9000800370085
:1011e00045c7b300854f520003003200e6c24200fb
:1011f000854f520004003a00cf80de006109b9003b
:10120000009cbe000294be003802be002803be004f
:1012100078009000e00f5200e08f5a00e00f5b0072
:10122000e08f5b0003003d0080004500d2c2b300a8
:101230000a003700881090000118a3000300320054
:1012400080004500b2c2b300040037000108a300cb
:101250004f0032008000450002c2b300824878008f
:101260004900370028609000c2c6b300824f50008a
:1012700006003a00110178006400510080087800ef
:101280001000be006011b8001100370012c7b30093
:10129000824f500003003200a2c6b300824f5000bc
:1012a00006003a00110178006800510080087800bb
:1012b0005001be004000be00050037001180e9006b
:1012c00080087800100078008000eb006011b80002
:1012d000009cbe000294be002862900085c6b30048
:1012e000854f52000d00320025c6b300854f5200d5
:1012f00004003a000080fb008000eb006011b800a1
:101300000800370045c7b300854f52000300320084
:10131000e6c24200854f520004003a008000eb0014
:101320006011b800009cbe000294be00081090003e
:101330000038a300160032003800be002801be00ad
:10134000e00f5000e08f5800e00f5900e08f590087
:101350000f00320080c7b30080cf5400030032007a
:1013600080c5b30080cf540009003a007800900097
:101370008000450002c3b300824878000000e80006
:1013800080004500894878000000e800700498005b
:1013900078009000000545006a04980089407800b4
:1013a0006c00370028619000c0c4b300804f51002a
:1013b00006003a00110178006800510080087800aa
:1013c0005001be004000be0005003700110178004a
:1013d00064005100800878001000be00f705070087
:1013e000009cbe000294be00b800900078009000ff
:1013f0000100e00003003d0080004500d2c2b300c0
:101400000a003700881090000118a3000300320082
:1014100080004500b2c2b300040037000108a300f9
:10142000050032008000450002c2b3008248780007
:101430000000e80070049800780090000005450066
:101440006a0498008900fb00080078005300070038
:101450004e00370028619000c3c6b3001180e90038
:10146000834f5100240032000a003c00e4c15100c7
:10147000834f51002700320083c1e800834f5100a1
:101480001500320020c6b300804f510020003a0002
:101490000a00370043c7b300834f51001d003200dc
:1014a000e6c14100834f51001a00320010c7b3005b
:1014b000804f510016003a00060037001180e90005
:1014c0008008780010007800485c90000848780098
:1014d0002e0037001180e9008008780010007800a5
:1014e000680a9000cfa2de00612bb9000498be000c
:1014f0000690be00250037008008780010007800b4
:1015000068099000cf91de000288be001f003700fe
:101510001180e9008008780010007800680c9000c5
:1015200008087800190037001181e9008208780066
:1015300012027800cfa2de00612bb900049cbe002d
:101540000694be00f8009000010545006a0498006a
:1015500080407800080078009f0207000b003700e9
:1015600078009000000545000500370078009000e5
:10157000000545000904e00001003a0059c2b3002b
:10158000094d78000000e800700498000000eb00ae
:101590004f0578004f04be00000006002f04b00085
:1015a000889fbe008a9fbe008c9fbe008e1f780061
:1015b0000007780081f79f003e04be002e05be00a4
:1015c0005e0890000000e00002003d006000200086
:1015d000500f98008e00780020fb2f000f00400075
:1015e00053020700e20f50000a003a0030002000ca
:1015f000100f9800b1c9b3000ff097008140400070
:10160000e0bd2100e1cf50000d003e00a0bd210053
:101610000b0037000000e0000f0034003000200015
:10162000100f9800b1c9b3000ff19700814041003d
:1016300060be2100e1cf500001003e0020be21002d
:10164000ee009000b0487800b06878001040780054
:1016500090409800f30037000000e00005003a00d9
:1016600022fb2f000f014100001978008001eb00e0
:10167000e70037006022b8006033b8000800be0001
:101680000a01be00950407000000e00001003d00d3
:101690000bf0a200705927009f9897000088b900ae
:1016a000026a280013002000f004070064065000be
:1016b0009c9f9f0013003b0063061600c0ff2f0095
:1016c000000666008c01ea00939f9f00adbe2100da
:1016d0000800be000a01be00070037000c08a30086
:1016e000030032003d02be002d03be00810507004d
:1016f0000c86d100e88646000c00e000f7ff3c00b5
:10170000180037000c00e00018003200c0ff2f0066
:10171000000666009c9f9f00adbe21006000b800df
:101720000200200003ff2300070037000c08a3007d
:10173000030032003d02be002d03be006d05070010
:101740000c86d100e88646000c00e000f7ff3c0064
:101750000002be000203be000800be000a01be0077
:10176000680407000004be000205be00de08900009
:1017700060c6b3000ff29700804f520004003200a1
:101780006000200062c4b300824f520002003a00a1
:101790009f9a97006a80420081004000f1b79f0045
:1017a00001037800f30f53000200340037012000da
:1017b000f7b79f0000c3b300c0779f0056fb2f0010
:1017c0000f0343000e007800a0b79f0006077800c3
:1017d0003d0037000800be000a01be0016050700e4
:1017e0000006be007fb1970068015100f2b79f006c
:1017f0004240a9000c0034003b0507000002be0077
:101800000203be000800be000a01be00ae050700cc
:101810006022b80046782d007719240035050700ae
:101820000004be000205be00e80047008e00200054
:101830000802be000a03be00b4b79f00c5b79f00f0
:10184000d6b79f00e7b79f000c01be0001047800e7
:101850000c003700a400200005002000c0fd2f0070
:101860000f0040008a0107006fa89700ffa89700ab
:101870000fb197009fb1970005c3b3000564410005
:101880000001be00e00f5100e08f5900030034005a
:101890000e07e900e10f4700eeff3a0088007800ec
:1018a0003fb49700cfb497005fb59700efb59700ae
:1018b0000200370000c3b300806078000e07e90023
:1018c000fcff3b00688740007fb397000600e00004
:1018d000070034006022b8006033b8000800be0082
:1018e0000a01be00020407000000e000b9ff3c004e
:1018f0000e0378002fb7970051fb2f008f80400018
:10190000010353009f9b970067804300909f9f00b7
:10191000020037000603e9000000e9000101780039
:101920008200780003c3b300b1cf1100f9ff320089
:10193000909f9f00de09900061c6b3000ff29700f0
:10194000814f52000300320061c4b300814f520046
:1019500002003a000000e8000a00370010002000f2
:1019600051c6b3008ff2970081cf520005003200bc
:101970000540780050c4b2000080fb000000e90080
:101980004f00de0083014000868f510001003400cb
:10199000860178000300e0001d00350000c3b3009d
:1019a000868f510006003d0003024100694040005f
:1019b00041c3b30094cf100001003c0069405000c7
:1019c0008300e900810041000100370084017800b4
:1019d0000302e90001037800a142780080cf5200a1
:1019e000faff320091c3b300814f500001003a006a
:1019f000054be8000400e00005003d000201e9009d
:101a00008301e8001f9b97000603e800969f9f0054
:101a10008ff397008700fb001f9a97000e00780055
:101a2000060007004f0778004f06be004f05be00b6
:101a30004f04be002f04b10000000600f0874700ed
:101a4000889fbe008a9fbe008c9fbe008e1f7800bc
:101a500000047800814478000205be000406780086
:101a60000b00e00002003c001b0020000ac921001e
:101a700060c6b30080cf54000e00320060c4b300d3
:101a800080cf54000b00320070c6b30080cf5400ea
:101a90000300320070c4b30080cf540085003a00c8
:101aa000e40f46008300350058089000800f560070
:101ab00080003d000c06e80060c6b30080cf5400f3
:101ac0001000320060c4b30080cf54000d0032001b
:101ad000081090000038a30004003a005808900055
:101ae000808f550001003d005b0c98005808900065
:101af0000c005000500c980002003b000000eb006e
:101b0000500c980098089000680090000c00e000cd
:101b100028003c000100400002c3b30002487800e6
:101b20008100e800110c9800580890000000e000c7
:101b300003003c00081090000038a30006003200ab
:101b40006800900001004000e2c2b3000248780043
:101b50008100e800110c9800580890008c00ea0001
:101b6000810f500001003d000006ea008c00ea00f1
:101b7000210c9800000646005c0c98008b0f560064
:101b8000010034000b0678003c0c9800e80090003f
:101b900018089000008040000c0178008a0078004e
:101ba000d0000700580890000c0650004c0c98001c
:101bb000940037008c8f550019003d000100400053
:101bc0000b0178008a007800c60007001808900012
:101bd00000804500100c98008b0556002b0c9800d7
:101be000d80890000100e00003003c00881090003d
:101bf0000138a30007003200e80090000080400098
:101c0000e1c2b30001487800380890000000e80005
:101c1000300c980058089000400c9800790037006c
:101c2000010040000c0178008a007800ad00070038
:101c30001808900000004600100c98008c85550094
:101c4000d80890000100e00003003c0088109000dc
:101c50000138a30006003200e800900080804000b8
:101c6000e2c2b300824878000000e800100c98003f
:101c700058089000808f55000100340080057800de
:101c8000e800900018089000008040008c0045009b
:101c90000b01780093000700180890000b0040002b
:101ca000100c9800580890008b0550002b0c9800e1
:101cb0005400370018089000e80090008080400031
:101cc0009a4878000000e800100c9800d8089000ae
:101cd0000100e00003003c00881090000138a300e0
:101ce00006003200e800900080804000e2c2b300ad
:101cf000824878000000e800100c98005808900016
:101d00000000e000100034008b05e900808f5500d2
:101d10000100340080057800e80090001808900069
:101d2000008040008a00e8000b0178006d00070089
:101d3000180890000b004000100c98005808900004
:101d40008b0550002b0c9800e800900018089000bc
:101d500000804000095878000007e8000c00e0000f
:101d600004003500b1c2b300014878008e04780049
:101d700004003700d1c2b300014878008e04780017
:101d80000c06ea007d8557008006eb00090037004d
:101d9000a20020008c0078007280570031000700fc
:101da0007fb097008fb89700016d7800000678002b
:101db0008d06e8000c00e000f5ff3c000d00e0009f
:101dc00009003a008e04780000c3b300805c7800fc
:101dd000050037008d06e900fc8057000d804000ab
:101de00001c3b30090dc40000d00e000f9ff3c00af
:101df000e8009000180890000080400080845400a3
:101e0000390c98000810900074006000f00f50002a
:101e10000e003a0098089000780090000080400082
:101e2000a808900001004000b808900001004000a0
:101e3000c808900001004000f8089000810f500091
:101e400002003d0000805000000c98004f07780011
:101e50004f06be004f05be004f04be000f01b1008b
:101e600000000600800278000103780011000900dc
:101e70000203d80080017800830a78008299b900b3
:101e800082005300910298000500780000000600cf
:101e9000881f78008a9fbe008c9fbe0000047800d7
:101ea0000205be000406be000401be000a00be001a
:101eb000ee020700008cbe000c01be0017040700f4
:101ec0000005550081855d002a0498003b049800b8
:101ed000080078004f06be004f05be004f04780092
:101ee000000006008001780002003700b159780038
:101ef0000201e9000200e000fcff3a0000000600d9
:101f0000020037000304e000060032000001780000
:101f100002007800b041780081cf5100f9ff3a000b
:101f2000010037000001eb0002007800000006000d
:101f3000889fbe0000047800e68440001900d000ad
:101f40004500de00f27f2000820f500010003a00b2
:101f5000000ceb00990478006f81640020002000e1
:101f60001b003a00210190000200e00018003a0036
:101f7000110190000200e00015003a00100020005e
:101f80001100e00012003200200020001000370095
:101f90000000e00004003a0001007800030207009e
:101fa0000000e00008003c00f20028001901610078
:101fb00001fe2300810c710021c02f00010c4000a4
:101fc0000080eb0002003700000ceb000000eb008b
:101fd0004f04be0000000600fc874700889fbe003b
:101fe0008a9fbe008c9fbe008e1f7800000678007e
:101ff00080c5b30080cf50000a0032007740400017
:1020000080cf50000a0032006940400080cf50006d
:102010000b00320030c4210080bf9f00ae002000c2
:102020000a00370022c3210082bf9f00060037004c
:1020300033c4210083bf9f008e00200003003700bf
:1020400034c4210084bf9f000e0120003c02be006a
:102050002c03be000605be000404be0040c6b3004b
:1020600080cf5000030032006540400080cf500018
:102070000b003a00e00f5200e08f5a00e00f5b00c7
:10208000e08f5b0006003d006000b8006011b80002
:1020900004045000858458000605590087855900be
:1020a000e80f57000400320040002000f00f5700f6
:1020b0003a003a000100370030002000e00f5400e1
:1020c000e08f5c00e00f5d00e08f5d0004003a00ef
:1020d000dc0890008d0120000100e00007003200c4
:1020e0008e00e900888060008fba970081804200ee
:1020f00091407800f1ef9f007d0120008000780082
:102100008100e900050033008b05d1000a85d3006a
:102110008984d3000884d300f9ff3700089ebe00ed
:102120000a96be00130037008d06e9008e00e90014
:10213000848060000fb99700810041001141780050
:1021400083fd2f008d81410082f7790080017800a6
:102150008301e900050033008783d1000683d300a3
:102160008582d3000482d300f9ff3700049ebe00ad
:102170000696be003c02be002c03be00e00f5200db
:10218000e08f5a00e00f5b00e08f5b0091003400ad
:102190000d00e000e4ff3c008e0037002c60900052
:1021a00081c6b300814f50000b00320006003c0096
:1021b0000004e00008003200e6c05000814f5000eb
:1021c00052003a0004003700c1c6b300814f5000ee
:1021d0004e003a00230037000800e00004003a00f7
:1021e0005c0890008d0120000000e0000700320034
:1021f000110009000e84d8000fba970001004200b8
:1022000010407800f0ef9f007d01200011000900d0
:102210000e84d8000b003700110009000e04d8000e
:102220008d06e9008e81b900020454008fb8970032
:10223000088440009841780082fd2f000d01410084
:1022400083777900000478000800e0000200320083
:102250000d00e000f0ff3c00cfc4de00614db9008e
:1022600027003700e00f5400e08f5c0004003a00c4
:102270005c0890008d0120000000e00008003200a2
:102280006171b9000800be00210307000fba970072
:102290008000420091407800f1ef9f007d01200016
:1022a0006171b9000800be00090307000c00370087
:1022b0006171b9000800be00ec0107008d06e9005d
:1022c00080f1b900020454008fba970008844200dc
:1022d0009841780082fd2f000d014100837779003d
:1022e0000004be00e00f5000e08f580002003200f2
:1022f0000d00e000eeff3c004fcdde008a057800c7
:10230000089ebe000a96be0032003700e00f54005f
:10231000e08f5c00e00f5d00e08f5d0004003a009c
:102320005c0890008d0120000000e0000a003200ef
:102330006172b900612bb9000800be000a01be003d
:102340009c0307000fba970080004200914078007c
:10235000f1ef9f007d0120006172b900612bb9008f
:102360000800be000a01be008b0307000e00370004
:102370006172b900612bb9000800be000a01be00fd
:10238000900307008d06e90080f2b90004045400b0
:102390008fba9700088442009842780084fd2f008d
:1023a0000d02420085777a00009ebe000296be00b4
:1023b0003c04be002c05be00e00f5400e08f5c0022
:1023c000e00f5d00e08f5d00020034000d00e000d2
:1023d000e7ff3c00e80f570010003a000c10900097
:1023e0000038a3000d003200f78f560006003e00b3
:1023f00080fd2f000d004000ef40780000c3b300c7
:1024000080cf50000500320002c3b30071fd2f00e1
:102410008d8040008d06e90082f7780078811600f3
:10242000120e98006c00900083fd2f008f814100f8
:102430008d804100abfe07001c089000dc08900076
:10244000810f500006003d0000805000000e9800f3
:102450000c1090000040a100001698000f003700fb
:102460000100e0000d003d008c109000f480600041
:10247000f08f500009003a007c099000fc009000a9
:10248000810051000c0990008280500000805000b3
:102490004240a90001003400000e98004f07780068
:1024a0004f06be004f05be004f04be00cf01b10075
:1024b000000006000400fa00889fbe008a9fbe004c
:1024c0008c1f78000004780001067800f80d900059
:1024d00078009000808555000808900080855500a0
:1024e00018089000808555002808900080855500c8
:1024f0003808900080855500480890008085550078
:102500000002220090bf9f0000032300a0bf9f0095
:10251000081090000028a30015003a000b00e0000e
:10252000130034000b0578008a047800e20f550090
:102530000100360029002000c80190000901780040
:10254000ee805700580090000300010050049800ee
:102550000000e0008c003200680890000900400094
:10256000600c9800090555004240a900eeff3c00b0
:10257000780190000200e0000c003400c8019000d7
:102580008c0078005800900003000100500498006f
:102590008080eb000000e0007c003200e808900042
:1025a0007800900000804000600c9800880c90003b
:1025b0000900e0001100340009057800e28f5400a2
:1025c000010036002a002000c80190000a017800ae
:1025d000ec80570058009000030001005004980060
:1025e0000000e00068003200680890000a00400027
:1025f000600c98008a845400edff370018099000a1
:102600000200e0000c003400c8019000e8009000d7
:102610005800900003000100500498008080eb00f7
:102620000000e00059003200e8089000180890000f
:1026300000804000600c9800a80c90000900e000a9
:102640001100340009057800e28f540001003600c3
:102650002a002000c80190000a017800ec80570091
:102660005800900003000100500498000000e000b2
:1026700045003200680890000a004000600c980095
:102680008a845400edff3700380990000200e00012
:102690000e003400e8009000180890008080400090
:1026a000c8019000580090000300010050049800f9
:1026b0008080eb000000e00034003200e808900069
:1026c0003808900000804000600c9800c80c900012
:1026d0000900e0001100340009057800e28f540081
:1026e000010036002a002000c80190000a0178008d
:1026f000ec8057005800900003000100500498003f
:102700000000e00020003200680890000a0040004d
:10271000600c98008a845400edff37000810900088
:102720008000eb000028a300180032000b00e0003e
:10273000160034008b04780009057800e28f5400fd
:10274000010036002a002000c80190000a0178002c
:10275000ee805700580090000300010050049800dc
:102760000000e00008003200680890000a00400005
:10277000600c98008a8454004240a900eeff3c009f
:102780008000eb00010037008080eb000100780042
:102790004f0678004f05be004f04be000080fa00cf
:1027a000000006000108780000000600e600400076
:1027b0001101780005002800850261006f016100a9
:1027c0008208780002003200120020001100370059
:1027d000a0019000120020000300e0000d003a006c
:1027e000900190000300e0000a003a001000e000b1
:1027f00008003a003600370064034000960878006d
:1028000080017800530b7800900978000408780064
:1028100070015100110278000400e000f6ff320060
:102820001300370064024000140378004f33de00c9
:10283000838141008308730080017800d30378000e
:10284000cf3bde001403780006034300068a7300c2
:102850001302780004024200100378004f33de00b8
:102860008609720090017800038841000201e900a6
:1028700091017800ef8f5100eaff36001000370019
:1028800080017800530378004f33dd001002d1003f
:10289000040873006402400094037800cf3bdd001d
:1028a0001303d10086897300110378004f33dd00d4
:1028b0009401d100030a73009108d1000201e800dd
:1028c00091017800ff8f5100edff3e00ef8861001d
:1028d0009188720002007800000006008f1fd1006e
:1028e000130307008f87e9000000e00000000600e6
:1028f000809feb000e0307008f87e9000000e000d7
:10290000000006002800fa00889fbe008a9fbe00d3
:102910008c9fbe0003866b008f0007006400e100ff
:10292000440032006408e1004a0032006100e10026
:10293000460032006108e10049003200ec06470021
:102940006000b8003d02be003d03be00f4865700a3
:102950006011b8003d04be003d05be007d032000af
:102960000b0037000000a0008d06e90013003200c4
:102970000402420085824a0006034b0087834b0015
:102980000000400081804800020149008381490025
:102990000802520089825a000a035b008b835b00a5
:1029a000f0ff3b000802420089824a000a034b0004
:1029b0008b834b008d06e900edff3a0084827200a4
:1029c00086827200f707b20087827200010032002f
:1029d000150020001e0490003e0b900006035400da
:1029e000e63fb0000368a300070032000000a70024
:1029f0000500a0008301d1000281d3008180d300b3
:102a00000080d3000603e8008301d1000281d300d7
:102a10008180d3000080d3000002eb000482d2004a
:102a20002100070003f0a1000cf0a70003f0a000b4
:102a30005d003700640247006408e100570032007f
:102a40003400be003401be00f6ff37006108e1002b
:102a5000520032006011b8006000b800f1ff37008a
:102a600003ff270002002000fbff3700839f680060
:102a70000100e00002003d0060001000e08018004e
:102a80000300e00002003d0060011100e081190038
:102a90000f0107004f00e00002003b006000100043
:102aa000e0801800000006001800200057002000f9
:102ab000080453000d003d000600200097fc2f0085
:102ac0000740e1001e003400848272006102600051
:102ad0008301d1000281d3008180d3000080d30024
:102ae0000804e800f8ff3a00470020006104600095
:102af00005047400040464000d003200610040000d
:102b0000e080480060014900e081490003b8a50069
:102b1000070032000603e8006538e10004003a00cf
:102b20008301d1000281d3008180d3000080d300d3
:102b3000f87f20000830e10003003500080378002a
:102b40006000b8006011b8004433dd00f300b2004b
:102b50008301730000000600680447000294be0071
:102b60000094be00fc0447008694be008494be001e
:102b700009007800b702070008007800b5020700d6
:102b800099007800814f70000b003b000800be00e8
:102b9000900207004f00b10003003700f3ff270049
:102ba000f2ff2f006110b9004f06be004f05be00b6
:102bb0004f04be000080fa00000006008103780088
:102bc000b9f707000001be006000b8000478a30058
:102bd00013003a006220e10015003e000d003900ac
:102be0008301d1000281d3008180d3008301d10011
:102bf0000281d3008180d3008301d1000281d30000
:102c00008180d3000538b000c42add00f300b20093
:102c10008381720007f0a70003f0a0000000060007
:102c2000f3ff2700f2ff2f006110b900fbff370010
:102c300003ff2700f7ff37001400fa00889fbe004b
:102c40008a9fbe008c9fbe000004be000205be002d
:102c5000680047000a90be000890be007d02070091
:102c60000070a7000bf0a100304320009e029000ee
:102c700080825200b0fe2f000028e10011003d00cc
:102c8000b0fc2f000028e100150034001e09900060
:102c90008e0890007e0090000501b0000201d10076
:102ca0008180d3000080d3008502e800fbff3a005a
:102cb0000b00e000bcff3b0060001000e08018004b
:102cc000b9ff3700f0ff2f00f1ff27000b00e000f5
:102cd000b5ff3b000100280000002000b2ff3700d4
:102ce0006000b800b0ff37004f89de008201780035
:102cf0007f0237002800fa00889fbe008a9fbe002e
:102d00008c9fbe0003866b0093ff07000028a30082
:102d100064003a000128a30067003a000008a300fd
:102d200062003a000108a30065003a001e0090000e
:102d3000be08900081064000ed3fb100f4805700ce
:102d4000ee019000111ab8008e099000311bb800f6
:102d50009e099000311cb800511db800f485570041
:102d600046000700fe0190003a0007008b85e8004e
:102d70003e0007008e09900040000700ee01900021
:102d8000340007008b85e800380007008e099000aa
:102d9000400007009e0990001b18b80089044000fd
:102da0000a854800fe019000340007008b85e8008a
:102db00038000700ee019000300007008e099000f7
:102dc0001b18b800890440000a8548000a98a3002f
:102dd00008003a000402420085824a0006034b00c4
:102de00087834b0008044c0089844c000a054d0081
:102df0008d06e90084827200850273004c3add0082
:102e0000850272000100320015002000443ade0005
:102e10001400b2004538de00cb45dd000b00700029
:102e2000c540de00cb4ddd008b8070004549de00e3
:102e3000cb55dd000b017100c551de000d0378009c
:102e400019ff070003f0a1000cf0a70003f0a00099
:102e500055ff37001b18b800850240000683480064
:102e6000e0834b0060044c00070037001b18b800db
:102e70000603400087834800faff37001b18b8009c
:102e80008703400008844800e0844c0060054d0042
:102e9000000006001b18b8000804400089844800a0
:102ea000faff37000108a3003cff3a005800be00bb
:102eb0005801be00e3ff37000008a30037ff3a00c7
:102ec00009047800f9ff370007f0a2001b01370062
:102ed0006022b800060220000000d0008180d200ed
:102ee0000482d2008582d2000000a00002025200bb
:102ef00083825a00030031000202420083824a00aa
:102f00000000a1000603e900f3ff3a0000000600fc
:102f1000efff07000400be0000000600020ab9002f
:102f2000001bb9000200b80081004200810043008c
:102f300000000600889fbe008a9fbe003004420049
:102f4000b0844a0030054b0090854b006000b10012
:102f50000898be000a90be000440e10005c8e100e8
:102f600006d0e10007d8e10002003100680040000f
:102f70001008e8004f05be004f04be000000060028
:102f8000889fbe008a9fbe003004be002005be00a0
:102f90000418540005985c0006185d0007985d0051
:102fa000110020000440e10005c8e10006d0e10066
:102fb00007d8e100010039008000eb001088100004
:102fc0004f05be004f04be00000006001200fa00cc
:102fd000889fbe008a9fbe008c9fbe00e0b79f0006
:102fe000f1b79f0082bf9f0093bf9f000605be0000
:102ff0000404be000000eb00d0b79f00c0b79f00e4
:10300000b0b79f00a0b79f0090b79f000006eb00ed
:103010005fb19700cfb09700820141003fb09700a9
:103020000200e00004003d00370007007e805700ea
:10303000c0ff070003003700330007007e80570001
:10304000cfff0700dfb697000d00e0000c00350051
:103050006fb29700ffb297000fbb97009fbb97001e
:1030600010002000010020006011b8000002720072
:103070008182720002037300838373001b000700c8
:103080000c06e80001042000810f5600e0ff3a0022
:103090000d00e00004003d000802be000a03be006f
:1030a0007e805700a3ff07005fa897000000e000a4
:1030b00005003a001fb29700afb297003fb39700e8
:1030c000cfb39700090007006fb09700ffb09700db
:1030d0000fb997009fb997004f06be004f05be007d
:1030e0004f04be000080fa00000006000100070047
:1030f00000000600a4b79f00b5b79f00c6b79f00a9
:10310000d7b79f00000006004f09de0082817100e2
:10311000b3b79f004f01de008180400082807000c5
:10312000a1b79f008fb097004f09de00000040005c
:103130000200700090b79f007fa897004f01de004b
:10314000818040008280700081b79f000d000700e1
:103150004f3ade000000400004007000f0af9f0016
:10316000080007000402420085824a0006034b0063
:1031700087834b00dfff07000802be000a03be0082
:10318000000006002fb29700bfb297004fb3970020
:10319000dfb3970000000600881f780018002000a9
:1031a000881f780089ff07008f87e9004f047800a7
:1031b00000000600801feb0084ff07008f87e900f6
:1031c00000000600889fbe008a9fbe00e00f5000ee
:1031d000e08f5800e00f5900e08f59000c003d00cf
:1031e0006044b8006055b8000000540081805c0065
:1031f00002015d0083815d001800200015000700ba
:1032000008003d00180007000004eb00050037002f
:103210000004eb000f00070002003d001200070051
:1032200018002000dcff07000800e0000600320064
:103230006022b8006033b8000000520081805a005c
:1032400002015b0083815b004f05be004f04be009e
:1032500000000600e00f5200e08f5a00e00f5b0014
:10326000e08f5b00000006006044b8006055b800c5
:103270000402540085825c0006035d0087835d00c4
:1032800000000600889fbe008a9fbe008c1f780049
:10329000e00f5000e08f5800e00f5900e08f590018
:1032a0000d003d006044b8006055b80000005400b7
:1032b00081805c0002015d0083815d001c002000b4
:1032c0000820e10009a8e1000ab0e1000bb8e10024
:1032d0000d003d00080037000006eb00e00f520033
:1032e000e08f5a00e00f5b00e08f5b0006003d00be
:1032f0006044b8006055b8000402540085825c0048
:1033000006035d0087835d00aaff07000c00e00054
:10331000060032006022b8006033b800000052009e
:1033200081805a0002015b0083815b004f067800b8
:103330004f05be004f04be00000006002800fa0042
:10334000889fbe008a9fbe008c9fbe000706780043
:10335000878669000c003b0003047800870478002e
:1033600008f0a10009f0a100840f5000858f5800db
:10337000860f5900890f5c00030033000cf0a20097
:1033800001003a000cf0a100f3fd07006400e10029
:103390005f003200780147006408e10061003200fc
:1033a0006c014700748557003200be001201be0058
:1033b0003a04be001a05be001e039000be0a90002b
:1033c0008503530006003d000004fd008104fd005c
:1033d0000205fd008305fd008703ea000503780070
:1033e0000df8a3000400320060041400e0841c0007
:1033f00060051d00e0851d006022b8007d032000ef
:103400000d38e1008006eb000b0039004433dd008d
:10341000f300b20083017300390037008482720028
:103420000d027800e10664008b85d1000a85d30087
:103430008984d3000884d3008703e900f7ff3b00a9
:1034400008004000898048000a0149008b8149003a
:1034500004003b0060001000e080180060011900cb
:10346000e08119000358a300090032008d82720028
:1034700084827200610260008301d1000281d30066
:103480008180d3000080d3000603e8001b003700d2
:103490000348a30017003a000600e00017003400bc
:1034a0000603e9000d00a3000000480081804800e9
:1034b00002014900838149000348a3000f003a003c
:1034c0000600e000090034000603e90000004000a7
:1034d00081804800020149008381490001003a00cf
:1034e0000003eb000348a300f5ff32006022b800a0
:1034f0000200370084827200618266006afd070064
:1035000003f0a1000cf0a70003f0a000a6fd370017
:10351000640147006408e10002003a000df8a300ce
:103520009efd3a003200be001201be009efd370033
:10353000889fbe008a9fbe008c9fbe000404be0010
:103540000605be00809fbe00829fbe002f000700c0
:10355000040678000800be000a01be002b00070028
:10356000840678004f03be004f02be008d4f7600e8
:103570007fb0970013003300f0ff2f008b8f6b009c
:1035800006003b000d0666000c00a7000a0037008d
:1035900007f0a600100020000a003700880f520034
:1035a000898f5a008a0f5b008b8f5b000300390004
:1035b0001000200001003e000000200007f0a700de
:1035c0000000ea004f06be004f05be004f04be00db
:1035d00000000600e48240001078a30007003200db
:1035e000640240001178a3003400be001401be0044
:1035f000040032000330a700000006003500be00c2
:103600001501be000330a0000000060005ff2700e2
:1036100005826100070032000428e1000100320049
:10362000240005000600070001003a0044000500e0
:103630000408050002000700f9ff3a001400050025
:103640006f82610081027000850271008502720044
:1036500000000600800078005002be005003be004b
:103660004439de00f700b200f37f2000030161005f
:10367000090032000218e10016003a0085017200cc
:1036800083017300838173000008200015003a0055
:103690004000200013003700850172008301730091
:1036a0008381730005003a0004a8be0006a8be008e
:1036b000100020000b0037000201e9000402420064
:1036c00085824a0006034b0087834b000748a3000e
:1036d000f9ff32000740a00004a8be0006a8be0003
:1036e0002000200080009800920098000000060052
:1036f000881f7800030478000300e00007003d0005
:1037000060001000e080180060011900e0811900dd
:1037100002003b0001f02d00030037000400070009
:1037200008f0a70003f0a0004f0478000000060096
:10373000889fbe0000827000040271000482710044
:103740002400320036432000c50020008383cf00d0
:103750000a0039000541b1008283cf00070039001b
:103760000541b1008183cf00040039000541b1005b
:103770008083cf00010039000541b10085c35300ab
:103780006022b800120032000a003b0084827200fe
:10379000610260008301d1000281d3008180d300e7
:1037a0000080d3000603e8008743e800f7ff3a00f3
:1037b00007003700000040008180480002014900f6
:1037c000838149000603e9008743e900f9ff3a00d5
:0c37d000b5fc07004f04be00000006001e
:020000040000fa
:1037dc00494e00005452000041200000494e0000a8
:1037ec00445500005354000052490000455300005a
:1037fc002000000050560000542000004c540000e3
:10380c0044200000505500004e45000000430000cd
:10381c00543200003a000000252e000031660000f2
:10382c0000440000433a0000002500006400000042
:10383c0052420000435f0000535000003a00000069
:10384c004f5000005f5600004f4c000054410000e8
:10385c00474500003a000000504800005f4200005d
:10386c003d000000505f0000593d0000005000007a
:10387c00485f0000523d000000450000424300003c
:0c388c005f530000503a000000000000f4
:020000040000fa
:103898000000fa0000ff2f0080718800600ea90068
:1038a800602ea90021ca210030002000010001007b
:1038b80000902000d1032000d206070021ca210071
:1038c800300020000100010000322000010020002b
:1038d800cc06070021ca21003000200001000100a9
:1038e8000032200001002000c606070021ca21007e
:1038f800200020000100010021ca210080022000d0
:103908000100010021ca2100e0002000010001009f
:1039180021ca2100600020000100010021ca210005
:10392800100020000100010000502300c100200009
:10393800b40607000080fa00000006000200fa0042
:10394800004f78001e80fb004400de000040780035
:103958000080fb00a0718800640ea900642ea800f6
:103968000064200001002000a6060700642ea900bc
:103978001e80fb006f006000a0718800642ea80004
:1039880000642000010020009e060700642ea900a4
:103998000080fa00000006000200fa00004f7800dc
:1039a8001e80fb004400de00004078000080fb0021
:1039b800a0718800640ea800642ea800006420008e
:1039c800010020008f060700642ea9001e80fb005e
:1039d8006f006000a0718800642ea80000642000b9
:1039e8000100200087060700642ea9000080fa0065
:1039f800000006000200fa00000f780004003700fb
:103a08001e00780010407800e3ff07001e0fe80052
:103a18001e007800104078000004e000f8ff3a002b
:103a28000080fa00000006000600fa00204798000f
:103a380031479800220798000040eb00004f7800bb
:103a48002e409000e14f500007003c003e4090009f
:103a5800ef40600000c8b30000cf70001e4078003f
:103a6800b6ff0700060037003e409000ef406000b8
:103a780000ccb30000cf70001e407800afff0700f5
:103a88002e009000dbff07000080fa00000006000f
:103a98000000fa0010c0b300a8ff0700c1d521003c
:103aa80050002000010001000080fa00000006001c
:103ab8000600fa00200798000000eb00000f7800cd
:103ac8000b0037000000eb001007980003003700d8
:103ad8001e0090000000e800100798009e0090006b
:103ae800400a2000808f5000f9ff36001e0fe800c2
:103af8002e0090009e007800808f5000f1ff390062
:103b08000080fa00000006000000fa00158ea900e7
:103b180000302c00811120003a06070015aea900dc
:103b2800158ea8000080fa00000006000000fa00c8
:103b3800158ea80015aea80015cea80015eea80091
:103b48000080fa00000006000000fa0015cea90067
:103b580000c02700210920002a06070015eea90049
:103b680015cea8000080fa00000006000000fa0048
:103b78004e2eef00707280007073880070738000a2
:103b8800f0718800f0718000707188007071800099
:103b98007070880070708000f0708800f0732000ea
:103ba800f0708800404e2000001988000042220072
:103bb8001019880010f02000201988003223ef0027
:103bc8002e23ef00f073200080198800411980002f
:103bd80000fe2f00008060004019880028e3a9003b
:103be80021e3a8000080fa00000006000000fa00a7
:103bf800deff07000430ef009c00370000000000e3
:103c08000140800000002200008060000000e00009
:103c1800fbff320001a8a900208080000118800065
:103c280000014000c089210000004100010878001f
:103c3800208080001118800000014000809721003a
:103c480000004100010878002080800021188000d1
:103c58000001400040a52100000041000108780053
:103c680030188000608088004018800070808800cc
:103c7800501880008080880060188000b08088001c
:103c880070188000a08088008018800090808800cc
:103c98002080800080004000c08921000080400012
:103ca80090007800e0c48000808f50000600350046
:103cb8002080800080004000c089210000804000f2
:103cc80010007800e0c48800208080008000400058
:103cd800809721000080400090007800c0cb8000d1
:103ce800808f500006003500208080008000400052
:103cf800809721000080400010007800c0cb880029
:103d0800208080008000400040a521000080400005
:103d180090007800a0d28000808f50000600350007
:103d2800208080008000400040a5210000804000e5
:103d380010007800a0d28800e1c48000e0822f0043
:103d480000804000cf80de002af30700f204240040
:103d5800530b2400a9f20700eaf2070000007800dc
:103d680030808800c1cb800070822f000080400026
:103d7800cf80de001ff3070032212f00d30a240072
:103d88009ef20700dff207000000780040808800fc
:103d9800a1d28000b0822f0000804000cf80de00da
:103da80014f30700a2012c00d30a240093f20700a1
:103db800d4f20700000078005080880080808000de
:103dc800cf80de000bf30700e2f92e0073d2230048
:103dd80060f30700cbf207000000780080808800bd
:103de800a1808000807c2f0000804000cf80de0012
:103df80000f30700323c2d00130a24007ff207006d
:103e0800e0808800f180880091808000307b2f005e
:103e180000804000cf80de00f6f20700325e2a0004
:103e2800330a240075f20700c0808800d18088001a
:103e38003180800040808000008040004081880000
:103e480041808000508080000080400050818800c0
:103e580051808000308080000080400060818800b0
:103e6800208080000000e8002080880021808000f9
:103e7800d0062000808f500060ff34000080fa00d8
:103e8800000006001a00fa005305070080fe07002c
:103e9800e2be29008040eb0010c0b300e2fe07003c
:103ea80002c029008040eb0020c0b300defe0700fe
:103eb800a0df2100530407005a04070000902000e7
:103ec800d10320004f05070010c0b3009bfe070078
:103ed80080002000000f78001000200010079800d4
:103ee80010002000200798000000eb004007980011
:103ef8000000eb0050079800800020006007980041
:103f08000000eb00300798000100370000000000b7
:103f1800907280004500de00614060000080fb0078
:103f280070079800107380004d00de00614060004b
:103f38000080fb00000f9800107080004600de0033
:103f4800614060000080fb00100f98001070800036
:103f58004700de00614060000080fb00200f9800f1
:103f6800907180004600de00614060000080fb0028
:103f7800300f9800907180004700de0061406000bb
:103f88000080fb00400f980000502300c100200073
:103f98001c0507001e0890000000e00007003a001a
:103fa8002e089000e10f500004003a009081800034
:103fb8000000e80090818800090037001e08900082
:103fc800e10f500006003a002e0890000000e000c3
:103fd80003003a00908180000000e9009081880089
:103fe8009181800070082000808f50000300340009
:103ff80070082000908188000600370091818000b9
:10400800d0062000808f500002003c00e00620000f
:10401800908188007e0090000000e00002003a00d5
:1040280090818000b081880031808000a00a200043
:10403800808f50007100340041808000a00a200069
:10404800808f50006d00340051808000a00a20004d
:10405800808f50006900340005eea90010030700a6
:104068001e009000e10f500007003a00affe070065
:104078000005200001002000e2040700a2fe07005e
:104088000000eb0010079800b00107003e08900000
:10409800e10f500056003a0041818000f01d2000d9
:1040a800808f500008003c0051818000f01d2000e6
:1040b800808f500004003c0061818000f01d2000ca
:1040c800808f500002003400e002070048003700eb
:1040d80041818000c0122000808f50000800340009
:1040e80051818000c0122000808f500004003400ed
:1040f80061818000c0122000808f500002003c00c7
:10410800d20207003a003700b18180008080800029
:10411800808f5000100034001e0fe800800220003d
:104128009e007800808f5000030034008002200039
:10413800000f7800050037001e007800e70f5000d8
:1041480002003c0080002000000f78001e0078006c
:10415800ae02070026003700b18180008080800011
:10416800808f500010003d001e0fe90080022000e3
:104178009e007800808f50000300340080022000e9
:10418800000f7800050037001e007800e70f500088
:1041980002003c0080002000000f78001e0078001c
:1041a8009a02070012003700b181800080808000e9
:1041b800808f50000e003a00800220009e00780098
:1041c800808f50000300340080022000000f780028
:1041d800050037001e007800e70f500002003c0081
:1041e80080002000000f78001e007800870207007a
:1041f80010002000200798007900370005eea8007d
:10420800920207002e009000e10f500007003a00cc
:1042180046fe070000052000010020007904070081
:1042280049fe07000000eb0020079800b2010700d4
:104238004e0890000000e0005f003a0041818000d5
:10424800f01d2000808f500008003c005181800044
:10425800f01d2000808f500004003c006181800028
:10426800f01d2000808f5000020034008c020700ef
:104278005900370041818000c0122000808f500013
:104288000800340051818000c0122000808f500047
:104298000400340061818000c0122000808f50002b
:1042a80003003c007e020700000000004a003700bf
:1042b800a181800080808000808f5000170034002a
:1042c8001e0fe80010002000500798009e0078009c
:1042d80061079800800220009e007800808f5000bf
:1042e8000300340080022000000f7800050037002a
:1042f8001e007800e70f500002003c0080002000fc
:10430800000f78005e009000e10f50002f003a0087
:104318001e007800520207002f003700a18180009c
:1043280080808000808f500010003d001e0fe90043
:10433800800220009e007800808f50000300340027
:1043480080022000000f7800050037001e0078006a
:10435800e70f500002003c0080002000000f7800aa
:104368001e0078003e0207001b003700a181800074
:1043780080808000808f500016003a008002200064
:104388009e007800808f50000300340080022000d7
:10439800000f7800050037001e007800e70f500076
:1043a80002003c0080002000000f78001e0078000a
:1043b8002b020700080037004e089000e10f50005c
:1043c80005003a003602070003003700000000002d
:1043d80001003700000000001000200010079800be
:1043e8000e0890000000e00008003a003e0090002f
:1043f8000000e800300798003e009000e40f5000ed
:10440800020034000000eb00300798003e009000e6
:10441800e20f50003b003a0010c0b30047fd070010
:104428000088230011002000f6030700d2c02900ed
:104438008040eb0010c0b3007bfd0700c080800007
:10444800d180800022b62100809fbe0020c12900b3
:10445800801f78000200780038f20700e6875700ce
:1044680020b621000001780041c0b30010c0b3009d
:104478006dfd070072c12900b1c0b30010c0b300c0
:1044880069fd0700a0b821009e1f7800b1c129006e
:10449800811f780029f20700e4875700a0b821009f
:1044a80000017800e1c0b30010c0b3005efd070052
:1044b800d2c029008040eb0020c0b3005afd07009d
:1044c800e0808000f180800022bb2100809fbe0038
:1044d80020c12900801f78000200780017f2070029
:1044e800e687570020bb21000001780041c0b300d7
:1044f80020c0b3004cfd070000502300c10020007d
:10450800c00307003e009000e10f500028003a0069
:1045180010c0b30009fd0700008823001100200027
:10452800b8030700e2c1290011c0b30010c0b300ee
:104538003dfd07009181800000b32100811f7800b4
:10454800b1c12900811f7800fcf10700e4875700fa
:1045580000b3210000017800a1c0b30010c0b3006f
:1045680031fd070062c2290011c0b30020c0b300aa
:104578002dfd070081808000a0b32100811f7800f5
:10458800b1c12900811f7800ecf10700e4875700ca
:10459800a0b3210000017800c1c0b30020c0b3005f
:1045a80021fd070000502300c100200095030700eb
:1045b8003e0090000000e00038003a0010c0b30050
:1045c800defc070000882300110020008d0307008f
:1045d80022c329008040eb0010c0b30012fd070081
:1045e80031808000c00c2100811f7800b1c12900f2
:1045f800811f7800d1f10700e4875700c00c210023
:104608000001780051c0b30010c0b30006fd0700d8
:1046180082c3290091c0b30010c0b30002fd070097
:104628004180800040282100811f7800b1c1290005
:10463800811f7800c1f10700e48757004028210056
:1046480000017800d1c0b30010c0b300f6fc070029
:10465800d2c329008040eb0020c0b300f2fc070061
:1046680051808000c0432100811f7800b1c129001a
:10467800811f7800b1f10700e4875700c04321008b
:104688000001780051c0b30020c0b300e6fc070069
:1046980000502300c10020005a0307003e0090008c
:1046a800e40f500019fe3a0010c0b300a3fc070045
:1046b80000882300110020005203070032c429009b
:1046c80011c0b30010c0b300d7fc0700a18180005f
:1046d80000b32100811f7800b1c12900811f780033
:1046e80096f10700e487570000b321000001780025
:1046f800a1c0b30010c0b300cbfc070062c2290000
:1047080011c0b30020c0b300c7fc0700818080003f
:10471800a0b32100811f7800b1c12900811f780052
:1047280086f10700e4875700a0b321000001780054
:10473800c1c0b30020c0b300bbfc07000050230079
:10474800c10020002f030700f1fd37000000fa0028
:10475800022cef000e2cef00102cef0080ff2f0032
:1047680090608800142cef00701d200020608800e5
:10477800062cef001a2cef00202cef00402cef0045
:10478800602cef000010200000648800001020005a
:1047980000658800001020000066880000802c005a
:1047a8001061880000802c001062880000802c00b6
:1047b8001063880000802c001064880000802c00a2
:1047c8001065880000802c0010668800242cef00fb
:1047d800442cef00642cef00842cef00a42cef0095
:1047e800c42cef00262cef00462cef00662cef00bf
:1047f800862cef00a62cef00c62cef00282cef002b
:10480800482cef00682cef00882cef00a82cef0054
:10481800c82cef002a2cef004a2cef006a2cef007e
:104828008a2cef00aa2cef00ca2cef002c2cef00ea
:104838004c2cef006c2cef008c2cef00ac2cef0014
:10484800cc2cef002e2cef004e2cef006e2cef003e
:104858008e2cef00ae2cef00ce2cef00302cef00aa
:10486800502cef00702cef00902cef00b02cef00d4
:10487800d02cef00322cef00522cef00722cef00fe
:10488800922cef00b22cef00d22cef00342cef006a
:10489800542cef00742cef00942cef00b42cef0094
:1048a800d42cef003a2cef005a2cef007a2cef00b2
:1048b8009a2cef00ba2cef00da2cef003c2cef001a
:1048c8005c2cef007c2cef009c2cef00bc2cef0044
:1048d800dc2cef003e2cef005e2cef007e2cef006e
:1048e8009e2cef00be2cef00de2cef00002cef001a
:1048f8000080fa00000006000000fa00022cef0019
:104908000e2cef00102cef0080ff2f009060880025
:10491800142cef00701d200020608800062cef008a
:104928001a2cef0000102000006188000010200001
:10493800006288000010200000638800802cef00cf
:10494800a02cef00c02cef0000802c001061880024
:1049580000802c001062880000802c001063880002
:1049680000802c001064880000802c0010658800ee
:1049780000802c0010668800242cef00442cef00e7
:10498800642cef00842cef00a42cef00c42cef0063
:10499800262cef00462cef00662cef00862cef004b
:1049a800a62cef00c62cef00282cef00482cef00b7
:1049b800682cef00882cef00a82cef00c82cef0023
:1049c8002a2cef004a2cef006a2cef008a2cef000b
:1049d800aa2cef00ca2cef002c2cef004c2cef0077
:1049e8006c2cef008c2cef00ac2cef00cc2cef00e3
:1049f8002e2cef004e2cef006e2cef008e2cef00cb
:104a0800ae2cef00ce2cef00302cef00502cef0036
:104a1800702cef00902cef00b02cef00d02cef00a2
:104a2800322cef00522cef00722cef00922cef008a
:104a3800b22cef00d22cef00342cef00542cef00f6
:104a4800742cef00942cef00b42cef00d42cef0062
:104a58003a2cef005a2cef007a2cef009a2cef003a
:104a6800ba2cef00da2cef003c2cef005c2cef00a6
:104a78007c2cef009c2cef00bc2cef00dc2cef0012
:104a88003e2cef005e2cef007e2cef009e2cef00fa
:104a9800be2cef00de2cef000080fa0000000600bc
:104aa8000000fa000080fa00000006000000fa008a
:104ab8003140800000202000008060000000e000fd
:104ac80002003200f6ff07000728a9000080fa005c
:104ad800000006000000fa000080fa00000006004e
:104ae8000000fa00314080000020200000806000b3
:104af8000000e00002003200f6ff07000bc8a90022
:104b08000080fa00000006000000fa000080fa00a9
:104b1800000006000000fa0031408000002020005c
:104b2800008060000000e00002003200f6ff07008d
:104b38000be8a9000080fa00000006000000fa0057
:104b48000080fa00000006000000fa0031408000f2
:104b580000202000008060000000e0000200320019
:104b6800f6ff07000c08a9000080fa000000060004
:104b78000000fa000080fa00000006000000fa00b9
:104b88003140800000202000008060000000e0002c
:104b980002003200f6ff07000c28a9000080fa0086
:104ba800000006000000fa000080fa00000006007d
:104bb8000000fa00314080000020200000806000e2
:104bc8000000e00002003200f6ff07000c48a900d0
:104bd8000080fa00000006000000fa000080fa00d9
:104be800000006000000fa0031408000002020008c
:104bf800008060000000e00002003200f6ff0700bd
:104c08000c68a9000080fa00000006000200fa0003
:104c1800000f7800cdfe0700000028000060880023
:104c28001e0078008000eb0075ef070022852b003e
:104c380063112400c7ef070053ef07000000780056
:104c4800506088000080fa00000006000000fa00aa
:104c5800befe0700002cef000080fa0000000600ee
:104c68000200fa00000f780023ff07000000280068
:104c7800006088001e0078008000eb0060ef0700ed
:104c880022852b0063112400b2ef07003eef0700d6
:104c980000007800506088000080fa0000000600dc
:104ca8000000fa0014ff0700002cef000080fa0053
:104cb800000006000000fa00003a80000080fa00b8
:104cc800000006000200fa00faff0700000f780053
:104cd8001e007800240007000004e00002003200f3
:104ce80000002800710007001e0078002a00070055
:104cf8000004e00002003200000024006b000700fe
:104d08001e007800320007000004e00002003200b4
:104d180000202000650007001e0078003a00070008
:104d28000004e00002003200000820005f000700d5
:104d38001e007800420007000004e0000200320074
:104d480000042000590007001e0078004a000700f0
:104d58000004e000020032000001200053000700b8
:104d68000080fa00000006000400fa00100798000e
:104d78000040eb00004f78001e0090000000e000ab
:104d880002003d0010c0b300004f78001e407800bc
:104d98000080fa00000006000400fa0010079800de
:104da8000040eb00004f78009e00900000002400b7
:104db800008060000000e0000200320010c0b30074
:104dc800004f78001e4078000080fa0000000600be
:104dd8000400fa00100798000040eb00004f78002c
:104de8009e00900000202000008060000000e0008d
:104df8000200320010c0b300004f78001e40780057
:104e08000080fa00000006000400fa00100798006d
:104e18000040eb00004f78009e0090000008200042
:104e2800008060000000e0000200320010c0b30003
:104e3800004f78001e4078000080fa00000006004d
:104e48000400fa00100798000040eb00004f7800bb
:104e58009e00900000042000008060000000e00038
:104e68000200320010c0b300004f78001e407800e6
:104e78000080fa00000006000400fa0010079800fd
:104e88000040eb00004f78001e00900070006000aa
:104e98000000e0000200320010c0b300004f7800ac
:104ea8001e4078000080fa00000006000200fa00a8
:104eb800000f78009e80ea00003a800000806000c1
:104ec800003a88000080fa00000006000000fa009e
:104ed8004027ef000080fa00000006000000fa00fa
:104ee8000021ef0000272000100888000003280098
:104ef80020088800d08180000000e00002003a000d
:104f0800008022003f0007000068a9002068a80070
:104f1800e0c821008040eb00014878000080fa00da
:104f2800000006003600f800809fbe00829fbe0089
:104f3800849fbe00869fbe000000fa00d0818000da
:104f48000000e00002003200d08180000000010073
:104f5800f0c82100104078008040e800f0c8210027
:104f680001487800e0c8210011c0b300014878006a
:104f78000068a9000080fa004f03be004f02be007f
:104f88004f01be004f00be003600f9000040060089
:104f98000200fa00000f78009e00780011088800cf
:104fa800e0c821008040eb00014878000080fa004a
:104fb800000006000000fa00100880000080fa00d7
:104fc800000006000200fa00000f78009e0078003a
:104fd80001088800e0c821008040eb000148780003
:104fe8000080fa00000006000000fa0000088000b7
:104ff8000080fa00000006000000fa000080fa00b5
:10500800000006000200fa00000f78002068a900de
:105018009e007800d18188002068a8000080fa00ee
:10502800000006000000fa00e0c821008040eb0004
:10503800014878002068a80005e1a8000080fa006f
:10504800000006000000fa0005e1a9002068a90098
:105058000080fa00000006000200fa00e0c8210003
:10506800104f78001e4078000004e0000300320072
:10507800e0c821008040eb00014878001e4078001d
:105088000080fa00000006000000fa00f0c82100c5
:10509800104078000080fb000080fa000000060045
:1050a8000000fa00f0c821008040eb0001487800b9
:0850b8000080fa000000060070
:020000040000fa
:1050c000541c000020000000800000003810000088
:1050d0000200000082000000ffff00008e1c0000a4
:1050e00002000000800000003a10000002000000f2
:1050f000800000003c1000009e0b000080000000bb
:10510000001000003200000080000000321000009b
:1051100006000000820000007a006e00007a0000a5
:10512000741c00001a00000082000000686a6c0015
:10513000747a4c0000000100000200000400080026
:1051400000100000000020002b2d23003000000084
:10515000da1b000058000000820000006e616e0043
:10516000004e41004e0069006e660000494e460048
:1051700000000000000000000024400000000000cb
:105180000000000059400000000000000088c3003b
:105190004000000000008400d79741000080e0003c
:1051a0003779c300414317006e05b500b5b89300c9
:1051b00046f5f9003fe903004f384d00321d30003d
:1051c000f9487700825a3c00bf737f00dd4f15001d
:1051d00075000000901c000002000000820000002a
:1051e00030000000321c000022000000820000009d
:1051f000303132003334350036373800394142001f
:105200004344450046003000313233003435360027
:105210003738390061626300646566000000000091
:04522000000000008a
:020000040000fa
:105224000000fa00042eef0000002f00a070880098
:10523400242eef00342eef00442eef00542eef0006
:10524400642eef00306c200000708800f0ff200016
:1052540080708800000027000071880080ef2f0014
:10526400807188000030200000728800f013230051
:1052740080728800303c2f00007388000c2eef00f1
:105284001c2eef002c2eef003c2eef004c2eef00d6
:105294005c2eef006c2eef000a2eef001a2eef00aa
:1052a4002a2eef003a2eef004a2eef005a2eef007e
:1052b4006a2eef00062eef00362eef00562eef007a
:1052c400662eef000060200070708800f0732000ec
:1052d400f070880000002600707188003e2eef00f8
:1052e4000030200070728800003c20007073880039
:1052f4000080fa00000006000000fa0060002000b0
:10530400303a8800213a8000f0f32f0000806000da
:10531400203a8800213a800000fe2f0000806000bf
:10532400203a88003200200080072000a1092000d4
:1053340033742000804978008149780082497800dc
:10534400103a8000000178000200a00060042000f0
:105354007105200023742000804978008149780079
:105364008249780000000000113a80000000270004
:105374008080600000002300808f5000faff3a0014
:1053840000000000113a800000022000008060004c
:105394000000e000fbff32000080fa00000006007d
:1053a4000200fa00000f780021028000200f200084
:1053b400008060001e007000200288000080fa0057
:1053c400000006000000fa00c3e8a8000000000086
:1053d400000000000080fa00000006000000fa004f
:1053e4008fff070022000700c3ff070029f9070009
:1053f400bbfe0700f3ff070000022000e8ff0700e0
:085404000080fa000000060020
:020000040000fa
:10540c00f03fb1000180b10006003500ee03090049
:10541c0000000000403fb1000180b100fbff3d00e7
:10542c001000b000203fb0000200350000800900e1
:08543c00000000000000060062
:020000040000fa
:105444000200fa00000f78009e007800c1818800f5
:10545400ffff37000000fa0040c5210080077800f4
:10546400c0c62100000188000080fa000000060088
:105474000000fa0001428000f0ff28000080600074
:1054840000c0a000004288000080fa00000006006e
:020000040000fa
:0200000401f009
:04000800cfff000026
:020000040000fa
:0200000401f009
:04000c0078ffff007a
:020000040000fa
:0200000401f009
:040010007dffff0071
:020000040000fa
:0200000401f009
:040014007fffff006b
:020000040000fa
:0200000401f009
:04001800efffff00f7
:020000040000fa
:0200000401f009
:04001c00dfffff0003
:020000040000fa
:0200000401f009
:04002000cfffff000f
:00000001FF
