:020000040000fa
:080000000002040000000000f2
:020000040000fa
:040008000e030000e3
:020000040000fa
:04000c00500300009d
:020000040000fa
:04001000b003000039
:020000040000fa
:040014002e030000b7
:020000040000fa
:040018007003000071
:020000040000fa
:04001c00900300004d
:020000040000fa
:04002000d003000009
:020000040000fa
:04002400fc030000d9
:020000040000fa
:04002800fc030000d5
:020000040000fa
:04002c00fc030000d1
:020000040000fa
:04003000fc030000cd
:020000040000fa
:04003400021c0000aa
:020000040000fa
:04003800fc030000c5
:020000040000fa
:04003c00fc030000c1
:020000040000fa
:04004000fc030000bd
:020000040000fa
:04004400fc030000b9
:020000040000fa
:04004800fc030000b5
:020000040000fa
:04004c00fc030000b1
:020000040000fa
:04005000fc030000ad
:020000040000fa
:04005400fc030000a9
:020000040000fa
:04005800fc030000a5
:020000040000fa
:04005c000c13000081
:020000040000fa
:04006000fc0300009d
:020000040000fa
:04006400fc03000099
:020000040000fa
:04006800fc03000095
:020000040000fa
:04006c00fc03000091
:020000040000fa
:04007000fc0300008d
:020000040000fa
:04007400fc03000089
:020000040000fa
:04007800fc03000085
:020000040000fa
:04007c00fc03000081
:020000040000fa
:04008000fc0300007d
:020000040000fa
:04008400fc03000079
:020000040000fa
:04008800fc03000075
:020000040000fa
:04008c00fc03000071
:020000040000fa
:04009000fc0300006d
:020000040000fa
:04009400fc03000069
:020000040000fa
:04009800fc03000065
:020000040000fa
:04009c00fc03000061
:020000040000fa
:0400a000fc0300005d
:020000040000fa
:0400a400fc03000059
:020000040000fa
:0400a800fc03000055
:020000040000fa
:0400ac00fc03000051
:020000040000fa
:0400b000fc0300004d
:020000040000fa
:0400b400fc03000049
:020000040000fa
:0400b800fc03000045
:020000040000fa
:0400bc00fc03000041
:020000040000fa
:0400c000fc0300003d
:020000040000fa
:0400c400fc03000039
:020000040000fa
:0400c800fc03000035
:020000040000fa
:0400cc00fc03000031
:020000040000fa
:0400d000fc0300002d
:020000040000fa
:0400d400fc03000029
:020000040000fa
:0400d800fc03000025
:020000040000fa
:0400dc00fc03000021
:020000040000fa
:0400e000fc0300001d
:020000040000fa
:0400e400fc03000019
:020000040000fa
:0400e800fc03000015
:020000040000fa
:0400ec00fc03000011
:020000040000fa
:0400f000fc0300000d
:020000040000fa
:0400f400fc03000009
:020000040000fa
:0400f800fc03000005
:020000040000fa
:0400fc00fc03000001
:020000040000fa
:04010000fc030000fc
:020000040000fa
:04010400fc030000f8
:020000040000fa
:04010800fc030000f4
:020000040000fa
:04010c00fc030000f0
:020000040000fa
:04011000fc030000ec
:020000040000fa
:04011400fc030000e8
:020000040000fa
:04011800fc030000e4
:020000040000fa
:04011c00fc030000e0
:020000040000fa
:04012000fc030000dc
:020000040000fa
:04012400fc030000d8
:020000040000fa
:04012800fc030000d4
:020000040000fa
:04012c00fc030000d0
:020000040000fa
:04013000fc030000cc
:020000040000fa
:04013400fc030000c8
:020000040000fa
:04013800fc030000c4
:020000040000fa
:04013c00fc030000c0
:020000040000fa
:04014000fc030000bc
:020000040000fa
:04014400fc030000b8
:020000040000fa
:04014800fc030000b4
:020000040000fa
:04014c00fc030000b0
:020000040000fa
:04015000fc030000ac
:020000040000fa
:04015400fc030000a8
:020000040000fa
:04015800fc030000a4
:020000040000fa
:04015c00fc030000a0
:020000040000fa
:04016000fc0300009c
:020000040000fa
:04016400fc03000098
:020000040000fa
:04016800fc03000094
:020000040000fa
:04016c00fc03000090
:020000040000fa
:04017000fc0300008c
:020000040000fa
:04017400fc03000088
:020000040000fa
:04017800fc03000084
:020000040000fa
:04017c00fc03000080
:020000040000fa
:04018000fc0300007c
:020000040000fa
:04018400fc03000078
:020000040000fa
:04018800fc03000074
:020000040000fa
:04018c00fc03000070
:020000040000fa
:04019000fc0300006c
:020000040000fa
:04019400fc03000068
:020000040000fa
:04019800fc03000064
:020000040000fa
:04019c00fc03000060
:020000040000fa
:0401a000fc0300005c
:020000040000fa
:0401a400fc03000058
:020000040000fa
:0401a800fc03000054
:020000040000fa
:0401ac00fc03000050
:020000040000fa
:0401b000fc0300004c
:020000040000fa
:0401b400fc03000048
:020000040000fa
:0401b800fc03000044
:020000040000fa
:0401bc00fc03000040
:020000040000fa
:0401c000fc0300003c
:020000040000fa
:0401c400fc03000038
:020000040000fa
:0401c800fc03000034
:020000040000fa
:0401cc00fc03000030
:020000040000fa
:0401d000fc0300002c
:020000040000fa
:0401d400fc03000028
:020000040000fa
:0401d800fc03000024
:020000040000fa
:0401dc00fc03000020
:020000040000fa
:0401e000fc0300001c
:020000040000fa
:0401e400fc03000018
:020000040000fa
:0401e800fc03000014
:020000040000fa
:0401ec00fc03000010
:020000040000fa
:0401f000fc0300000c
:020000040000fa
:0401f400fc03000008
:020000040000fa
:0401f800fc03000004
:020000040000fa
:0401fc00fc03000000
:020000040000fa
:04020000fc030000fb
:020000040000fa
:04020400fc030000f7
:020000040000fa
:04020800fc030000f3
:020000040000fa
:04020c00fc030000ef
:020000040000fa
:04021000fc030000eb
:020000040000fa
:04021400fc030000e7
:020000040000fa
:04021800fc030000e3
:020000040000fa
:04021c00fc030000df
:020000040000fa
:04022000fc030000db
:020000040000fa
:04022400fc030000d7
:020000040000fa
:04022800fc030000d3
:020000040000fa
:04022c00fc030000cf
:020000040000fa
:04023000fc030000cb
:020000040000fa
:04023400fc030000c7
:020000040000fa
:04023800fc030000c3
:020000040000fa
:04023c00fc030000bf
:020000040000fa
:04024000fc030000bb
:020000040000fa
:04024400fc030000b7
:020000040000fa
:04024800fc030000b3
:020000040000fa
:04024c00fc030000af
:020000040000fa
:04025000fc030000ab
:020000040000fa
:04025400fc030000a7
:020000040000fa
:04025800fc030000a3
:020000040000fa
:04025c00fc0300009f
:020000040000fa
:04026000fc0300009b
:020000040000fa
:04026400fc03000097
:020000040000fa
:10040000afd021000eff27000e0188000000000081
:10041000000020000000e000020032000001200087
:100420002002880014000700f50007000000e0002b
:1004300003003a0060d321000100200002003700d1
:100440000000200001002000810f70000100320038
:100450000f000700000020000000e0000200320052
:100460000000020000000000c815020000000000ab
:100470000040da000000fe00000320000000e00061
:1004800002003200002020009001880000000600d9
:10049000a1028800800478000000eb001f003700f4
:1004a000e284440054a0b4009905ba00e2844400f8
:1004b00054a0b4009906ba00e284440054a0b400e9
:1004c0000006eb00476fde00fd07b200ae018800ba
:1004d000636ce10003003a000ad801000000eb0061
:1004e0000e003700606ce10008003a00004deb00a0
:1004f0000a05e800020039003420ec000af0a000f0
:100500008b05e900f9ff3e00040037006168e10057
:10051000010032000086eb000b00070019c7ba008b
:100520001905ba000e04e00003003a000a00e000da
:10053000dbff3a0000000600fe07b200ae028800b2
:100540008a047800f5ff37000cd0a300e20f4d00bd
:100550001c00390089027800354dba000a05e80010
:10056000020039003420ec000af0a0008b05e900fd
:100570000f003200254dba000a05e80002003900dc
:100580003420ec000af0a0008b05e90008003200de
:100590000c00e0000600320015cdba000a05e800a4
:1005a000020039003420ec000af0a0008b05e900bd
:1005b0008984e80054a0b4000b00e000e2ff3a0098
:1005c000000006009902ba00055d78008b05e9007d
:1005d000f7ff3200c82ade00055d78008b05e900d0
:1005e000f3ff32000c00e000f1ff320019ddba0029
:1005f000eeff37006c1c040000000000e81004004f
:1006000000000000a211040000000000ec1404002f
:10061000000000006c060400000000003600f80036
:10062000809fbe00829fbe00849fbe00869fbe004a
:100630000000fa00c028a9000000eb008c0d0700a4
:100640000080fa004f03be004f02be004f01be0003
:100650004f00be003600f900004006003600f800ea
:10066000809fbe00829fbe00849fbe00869fbe000a
:100670000000fa00830d0700c048a9001000200008
:100680007b0d07000080fa004f03be004f02be0042
:100690004f01be004f00be003600f90000400600ca
:1006a0003600f800809fbe00829fbe00849fbe007f
:1006b000869fbe000000fa00c068a900200020004c
:1006c0006b0d07000080fa004f03be004f02be0012
:1006d0004f01be004f00be003600f900004006008a
:1006e0003600f800809fbe00829fbe00849fbe003f
:1006f000869fbe000000fa00c088a90030002000dc
:100700005b0d07000080fa004f03be004f02be00e1
:100710004f01be004f00be003600f9000040060049
:100720003600f800809fbe00829fbe00849fbe00fe
:10073000869fbe000000fa00c0a8a900400020006b
:100740004b0d07000080fa004f03be004f02be00b1
:100750004f01be004f00be003600f9000040060009
:100760003600f800809fbe00829fbe00849fbe00be
:10077000869fbe000000fa00c608a9007000200095
:100780003b0d07000080fa004f03be004f02be0081
:100790004f01be004f00be003600f90000400600c9
:1007a0003600f800809fbe00829fbe00849fbe007e
:1007b000869fbe000000fa00214680000002200053
:1007c000008060000000e00003003200c4a8a9001f
:1007d00090002000260d0700204680007000600079
:1007e0000000e00003003200c488a900a00020003f
:1007f0001f0d0700ffff37000040da000000fe0079
:1008000000000500889fbe008a9fbe008c1f7800f4
:1008100099000700a000330003866c006450e100db
:100820002e0032006420e100330032006150e1000c
:100830002f0032006120e100310032008585550033
:10084000eb07b00009002000080420000500370075
:100850000804440089844c000a0031000603430068
:1008600087834b000001530081815b00f8ff330058
:100870000203be000800a0000804440089844c0064
:10088000f6ff3900c639dd00830173000100320034
:10089000130020008904d1000884d3000998a30024
:1008a000050032000800a7000300a0008904d10061
:1008b0000884d3008b05e8008904d1000884d300a4
:1008c0000001eb000281d2003000070001f0a1001e
:1008d0000cf0a70001f0a000780037006420e100d0
:1008e0007a0032000801be000200be00f7ff3700a8
:1008f0006120e100750032006000b800f3ff3700ae
:100900000000200001f82700f0ff37000001be00c2
:10091000440007000470a70003f0a10003f8a3003f
:1009200013003a006509b1001000320009003500db
:100930006928e100020035000100280000000500e0
:1009400000004000818048008502e900fcff3a0079
:1009500000000600f88f4200050035008100d1003c
:100960000080d3008502e800fcff3a00000006008a
:100970008000eb00000005004f89de008201780056
:10098000890037006011b80097003700810020000f
:10099000618055000b003d000b00200061fe2f0020
:1009a0000100e1001d0034008281710061016400da
:1009b0008904d1000884d3000000e800faff3a005f
:1009c00071002000610064000300700002006000fc
:1009d0000900320061044400e0844c000988a5004d
:1009e000050032008b05e8006808e10002003a00cb
:1009f0008904d1000884d300f20f20000258e100de
:100a000005003d00c75ddd00f907b2008980750073
:100a100008007800000006000bf827008b00780023
:100a200000000500c70ade00f107b200f50fb200b2
:100a300008003200e1cf4200020032000170a00045
:100a400024000500810f7000010032000408050039
:100a500044000500810f700002003a0014000500f8
:100a60008502e9000000400081c04800fcff3b0017
:100a70000170a000240005000004be00e9ff07008b
:100a80000003be000405be000200be00e5ff070033
:100a9000844f7500000006000200be006450e100b3
:100aa000050036006420e100020036000968a3005a
:100ab00001003a000800be000160a0004f06780067
:100ac0004f05be004f04be0000000600f0ff2f00df
:100ad000f1ff2700f9ff3700889fbe008a9fbe0004
:100ae0008c1f7800e4ff0700ebff330003866c00e7
:100af0006450e100240032006420e100270032004d
:100b00006150e100220032006120e100210032004a
:100b10008b854200eb07b1000134b800003ab80001
:100b20000804420089844a00013ab8000030b80045
:100b30008880400009014a000400330000004000a2
:100b400081804800020149008b05e900c909dd00e8
:100b5000830170000100320013002000c814de0081
:100b60004814dd004709de001200b200c808de00ac
:100b70000884700085ff070001f0a1000cf0a700b9
:100b800001f0a000cdff37006120e100cfff32006f
:100b90000801be000200be00f7ff37006150e1000f
:100ba000fcff3a00c9ff3700881f78000304780073
:100bb0000300e00007003d0060001000e080180026
:100bc00060011900e081190002003b0001f02d00d6
:100bd000030037000400070008f0a70001f0a000a0
:100be0004f04780000000600889fbe008a9fbe0068
:100bf000008270000402710004827100260032003d
:100c00000004be000200be006011b8006b092000a5
:100c1000950220000182cf000a0039000541b10091
:100c20000082cf00070039000541b1000982cf00e2
:100c3000040039000541b1000882cf0001003900ed
:100c40000541b10005425200120032000a003b008b
:100c500082817100610164008100d1000080d300b5
:100c60008984d3000884d3008b05e8000442e8009f
:100c7000f7ff3a00070037000804440089844c005d
:100c800000004800818048008b05e9000442e9002b
:100c9000f9ff3a003dff07004f05be004f04be00bc
:100ca000000006008001780002003700b15978008a
:100cb0000201e9000200e000fcff3a00000006002b
:100cc00080007800010178003104e000fdff3a0067
:100cd0000000510000000600881f78000204780020
:100ce00008017800efff0700080040004f0478007b
:100cf000000006000000fa00881f78000004780059
:100d0000ea8157003fb9970088007800c06620004c
:100d1000070007000000e000020035000004440066
:100d2000004ceb004f0478000080fa000000060041
:100d30006200fa00889fbe008a1f780000057800d4
:100d400081047800020478008300780080f92f0085
:100d50000f004000b50307009a979f00a9979f00d6
:100d60000000eb00b09f9f001885fb008a04fb0089
:100d70000a05ea004f55de0050022000808f540023
:100d80000d003200e10f55000b003a000a01780017
:100d9000880078002f9097009f9197000300010032
:100da000a0979f000000e0008e0032003f9897005f
:100db0000000e800b09f9f000a0444005002200099
:100dc000808f5400040032000900e000e6ff3a0082
:100dd0003f989700840037000000eb00909f9f0031
:100de000809f9f00f0979f00e0979f00d0979f0003
:100df000c0979f000700370021d02100010050005c
:100e00000000400061cf2100808040005f98970083
:100e100011007000d09f9f008804780009047800ba
:100e2000384578008a00fb0020d0210080010700af
:100e30000000e000f0ff3a00a1c2b300814f55006e
:100e40000e003a00cf8897000180e900c08f9f0014
:100e500010007800c09f9f000000e00005003d00ea
:100e60000000ea00c09f9f005f9897000020a0004c
:100e7000d09f9f000904e8000f003700c09f9f002b
:100e80000000eb0005003700f2ff2700820f500042
:100e900002003200ea00b900008040000904780036
:100ea00088047800b900fb000103b100e98f50000d
:100eb000f5ff3600c09f9f00e0c2b300984f1000be
:100ec000020032000080eb0019003700a0c2b3001e
:100ed000d84f100007003a00cf8897000180e90042
:100ee000c08f9f0010007800a09f9f000804e800ba
:100ef000100037000000eb00a09f9f0088007800e2
:100f000005003700f3ff2700830f50000200320076
:100f1000ea00b90000004100010478008800780070
:100f20003101fb000203b100e90f5100f5ff36006b
:100f3000a09f9f00984478008900fb00e0ce21002c
:100f40003b0107000000e000020032000804e80056
:100f5000010037008044eb00c97f9f0080c6b300ca
:100f600080cf540004003a0098cf14000a003a00e1
:100f70006640500006003700c0c6b30080cf540062
:100f800005003a0098cf140003003a006540400085
:100f9000c07f9f000804e8001801fb00e3fb2f005e
:100fa0008f81410081f92f008f804000a0f92f0030
:100fb0000f004000100007000000e00009003a00a8
:100fc000e1fb2f008f804000a0f92f000f004000b0
:100fd0005a0207000000e000020035000804e800a3
:100fe00061ff37000080eb004f0578004f04be0022
:100ff0000080fa0000000600881f7800e4c6b300f5
:10100000844f5100bc00320010003c006b42520083
:10101000844f51001800320005003c0054c2b30058
:10102000844f5100f400320084c5b3000f00370034
:1010300044c6b300844f510015003200654242009f
:10104000844f5100ef003a001100370004c7b3008d
:10105000844f5100db0032005700350065424200ea
:10106000844f51005400320063424200844f5100cb
:10107000e4003a00500037001181e900820878004e
:10108000f00090008181410092497800e300370030
:1010900020629000c5c6b300854f520007003a0099
:1010a0009102780064825200840878001402be0025
:1010b0004fabde00860378001100370015c7b30080
:1010c000854f520003003200a5c6b300854f520081
:1010d00006003a0091027800688252008408780085
:1010e0005403be004402be00050037001182e9002f
:1010f0008408780014027800cfa2de00612bb900ca
:101100000498be000690be00a060900088c6b300a0
:1011100088cf50000d00320028c6b30088cf5000a1
:1011200004003a000402fb00cfa2de00612bb900ec
:101130000800370048c7b30088cf500003003200d2
:101140006644440088cf500004003a00cfa2de007d
:10115000612bb9000498be000690be003002be00ac
:101160002003be00f0009000e00f5200e08f5a0014
:10117000e00f5b00e08f5b0003003d000182410057
:10118000d5c2b3000a003700001290000418a30073
:101190000300320001824100b5c2b30004003700f1
:1011a0000408a3004f0032000182410005c2b300d1
:1011b000054a78004900370020629000c5c6b30098
:1011c000854f520006003a00910278006482520076
:1011d000840878001402be006033b80011003700a4
:1011e00015c7b300854f520003003200a5c6b300f7
:1011f000854f520006003a00910278006882520042
:10120000840878005403be004402be000500370085
:101210001182e90084087800140278008002eb0053
:101220006033b8000498be000690be00a060900035
:1012300088c6b30088cf50000d00320028c6b30026
:1012400088cf500004003a000482fb008002eb00cb
:101250006033b8000800370048c7b30088cf50009b
:10126000030032006644440088cf500004003a0076
:101270008002eb006033b8000498be000690be0008
:10128000801090000138a300160032003002be002a
:101290002003be00e00f5200e08f5a00e00f5b0019
:1012a000e08f5b000f00320081c7b300814f510017
:1012b0000300320081c5b300814f510009003a009c
:1012c000f00090000182410005c3b300054a780098
:1012d0008100e80001824100024a78008100e800b4
:1012e00071009800f0009000818141006300980037
:1012f000824078003e003700a0619000c4c6b30071
:101300001181e90084cf5100220032000a003c0024
:101310006442520084cf51002500320004c2e8002c
:1013200084cf5100130032006842520084cf510034
:101330001e003a000a00370044c7b30084cf5100b2
:101340001b0032006642420084cf51001800320078
:101350006942520084cf510014003a000500370062
:101360008208780092007800405890008048780009
:101370002c0037008208780092007800600a900004
:10138000cfa2de00612bb9008498be008690be001b
:1013900024003700820878009200780060099000ed
:1013a000cf91de008288be001e0037001181e90067
:1013b0008208780092007800600890008008780029
:1013c000180037001181e9008208780012027800c5
:1013d000cfa2de00612bb9000498be000690be00cb
:1013e000f0009000818141006300980081c7b30044
:1013f0001b0007000b003700f000900081814100c6
:1014000005003700f0009000818141000204e000f7
:1014100001003a0052c2b300824978008100e8001e
:10142000710098000000eb004f04780000000600f7
:10143000020037000304e0000600320000017800db
:1014400002007800b041780081cf5100f9ff3a00e6
:10145000010037000001eb000200780000000600e8
:10146000fc874700889fbe008a9fbe008c9fbe00fd
:101470008e1f78000006780080c5b30080cf500032
:101480000a0032007740400080cf50000a0032004e
:101490006940400080cf50000b003200d0cb2100cb
:1014a00080bf9f00ae0020000a003700c2ca2100a2
:1014b00082bf9f0006003700d3cb210083bf9f006f
:1014c0008e00200003003700d4cb210084bf9f0092
:1014d0000e0120003c02be002c03be000605be002b
:1014e0000404be0040c6b30080cf500003003200a9
:1014f0006540400080cf50000b003a00e00f5200e2
:10150000e08f5a00e00f5b00e08f5b0006003d00bb
:101510006000b8006011b8000404500085845800d1
:101520000605590087855900e80f5700040032006e
:1015300040002000f00f57003a003a000100370049
:1015400030002000e00f5400e08f5c00e00f5d00f1
:10155000e08f5d0004003a00dc0890008d0120005f
:101560000100e000070032008e00e9008880600082
:101570008fba97008180420091407800f1ef9f0080
:101580007d012000800078008100e9000500330023
:101590008b05d1000a85d3008984d3000884d30049
:1015a000f9ff3700089ebe000a96be001300370000
:1015b0008d06e9008e00e900848060000fb9970075
:1015c000810041001141780083fd2f008d81410091
:1015d00082f77900800178008301e900050033007b
:1015e0008783d1000683d3008582d3000482d30091
:1015f000f9ff3700049ebe000696be003c02be0006
:101600002c03be00e00f5200e08f5a00e00f5b0099
:10161000e08f5b00910034000d00e000e4ff3c002f
:101620008e0037002c60900081c6b300814f5000bf
:101630000b00320006003c000004e000080032000d
:10164000e6c05000814f500052003a0004003700bd
:10165000c1c6b300814f50004e003a00230037004e
:101660000800e00004003a005c0890008d012000b2
:101670000000e00007003200110009000e84d800cd
:101680000fba97000100420010407800f0ef9f0071
:101690007d012000110009000e84d8000b003700e6
:1016a000110009000e04d8008d06e9008e81b900f2
:1016b000020454008fb897000884400098417800d5
:1016c00082fd2f000d01410083777900000478002e
:1016d0000800e000020032000d00e000f0ff3c00d6
:1016e000cfc4de00614db90027003700e00f540081
:1016f000e08f5c0004003a005c0890008d0120003f
:101700000000e000080032006171b9000800be006e
:10171000670107000fba97008000420091407800ef
:10172000f1ef9f007d0120006171b9000800be004b
:101730004f0107000c0037006171b9000800be00be
:101740003c0107008d06e90080f1b9000204540055
:101750008fba9700088442009841780082fd2f00dc
:101760000d014100837779000004be00e00f5000b6
:10177000e08f5800020032000d00e000eeff3c0058
:101780004fcdde008a057800089ebe000a96be0096
:1017900032003700e00f5400e08f5c00e00f5d0086
:1017a000e08f5d0004003a005c0890008d0120008d
:1017b0000000e0000a0032006172b900612bb9003c
:1017c0000800be000a01be00dc0107000fba970046
:1017d0008000420091407800f1ef9f007d012000e1
:1017e0006172b900612bb9000800be000a01be0099
:1017f000cb0107000e0037006172b900612bb90000
:101800000800be000a01be00d00107008d06e900f5
:1018100080f2b900040454008fba97000884420093
:101820009842780084fd2f000d02420085777a00ef
:10183000009ebe000296be003c04be002c05be0009
:10184000e00f5400e08f5c00e00f5d00e08f5d0072
:10185000020034000d00e000e7ff3c00e80f5700f5
:1018600010003a000c1090000038a3000d00320068
:10187000f78f560006003e0080fd2f000d0040004f
:10188000ef40780000c3b30080cf50000500320065
:1018900002c3b30071fd2f008d8040008d06e9006a
:1018a00082f7780078811600120e98006c00900084
:1018b00083fd2f008f8141008d804100f9fc0700de
:1018c0001c089000dc089000810f500006003d00cd
:1018d00000805000000e98000c1090000040a10005
:1018e000001698000f0037000100e0000d003d00d9
:1018f0008c109000f4806000f08f500009003a00d6
:101900007c099000fc009000810051000c099000bf
:1019100082805000008050004240a9000100340045
:10192000000e98004f0778004f06be004f05be001e
:101930004f04be00cf01b100000006000400fa0011
:10194000889fbe008a9fbe008c1f7800000478002c
:1019500001067800f80d9000780090008085550011
:101960000808900080855500180890008085550073
:101970002808900080855500380890008085550023
:1019800048089000808555000002220090bf9f000b
:1019900000032300a0bf9f00081090000028a300b0
:1019a00015003a000b00e000130034000b0578002e
:1019b0008a047800e20f550001003600290020005b
:1019c000c801900009017800ee805700580090008f
:1019d00003000100500498000000e0008c00320079
:1019e0006808900009004000600c98000905550047
:1019f0004240a900eeff3c00780190000200e000a8
:101a00000c003400c80190008c0078005800900051
:101a100003000100500498008080eb000000e0000b
:101a20007c003200e80890007800900000804000c0
:101a3000600c9800880c90000900e0001100340050
:101a400009057800e28f5400010036002a002000ca
:101a5000c80190000a017800ec80570058009000ff
:101a600003000100500498000000e000680032000c
:101a7000680890000a004000600c98008a845400b6
:101a8000edff3700180990000200e0000c00340060
:101a9000c8019000e8009000580090000300010089
:101aa000500498008080eb000000e00059003200f4
:101ab000e80890001808900000804000600c980032
:101ac000a80c90000900e00011003400090578001e
:101ad000e28f5400010036002a002000c801900067
:101ae0000a017800ec8057005800900003000100c4
:101af000500498000000e0004500320068089000a3
:101b00000a004000600c98008a845400edff370002
:101b1000380990000200e0000e003400e800900058
:101b20001808900080804000c80190005800900084
:101b300003000100500498008080eb000000e000ea
:101b400034003200e808900038089000008040001f
:101b5000600c9800c80c90000900e00011003400ef
:101b600009057800e28f5400010036002a002000a9
:101b7000c80190000a017800ec80570058009000de
:101b800003000100500498000000e0002000320033
:101b9000680890000a004000600c98008a84540095
:101ba000edff3700081090008000eb000028a30034
:101bb000180032000b00e000160034008b0478009f
:101bc00009057800e28f5400010036002a00200049
:101bd000c80190000a017800ee805700580090007c
:101be00003000100500498000000e00008003200eb
:101bf000680890000a004000600c98008a84540035
:101c00004240a900eeff3c008000eb0001003700dd
:101c10008080eb00010078004f0678004f05be0081
:101c20004f04be000080fa000000060001087800a2
:101c300000000600839f68000100e00002003d00f4
:101c400060001000e08018000300e00002003d008a
:101c500060011100e0811900050007004f00e0005d
:101c600002003b0060001000e08018000000060049
:101c70006022b800060220000000d0008180d2005f
:101c80000482d2008582d2000000a000020252002d
:101c900083825a00030031000202420083824a001c
:101ca0000000a1000603e900f3ff3a00000006006f
:101cb000efff07000400be0000000600889fbe0082
:101cc0008a9fbe0030044200b0844a0030054b00b9
:101cd00090854b006000b1000898be000a90be00dd
:101ce0000440e10005c8e10006d0e10007d8e100aa
:101cf00002003100680040001008e8004f05be00f7
:101d00004f04be0000000600889fbe008a9fbe00f0
:101d10003004be002005be000418540005985c0085
:101d200006185d0007985d00110020000440e100e6
:101d300005c8e10006d0e10007d8e1000100390044
:101d40008000eb00108810004f05be004f04be005d
:101d5000000006001200fa00889fbe008a9fbe00a5
:101d60008c9fbe00e0b79f00f1b79f0082bf9f002d
:101d700093bf9f000605be000404be000000eb00f8
:101d8000d0b79f00c0b79f00b0b79f00a0b79f001b
:101d900090b79f000006eb005fb19700cfb09700af
:101da000820141003fb097000200e00004003d00c6
:101db000370007007e805700c0ff07000300370090
:101dc000330007007e805700cfff0700dfb6970083
:101dd0000d00e0000c0035006fb29700ffb29700d5
:101de0000fbb97009fbb9700100020000100200050
:101df0006011b80000027200818272000203730059
:101e0000838373001b0007000c06e8000104200018
:101e1000810f5600e0ff3a000d00e00004003d0095
:101e20000802be000a03be007e805700a3ff070021
:101e30005fa897000000e00005003a001fb297007d
:101e4000afb297003fb39700cfb3970009000700e8
:101e50006fb09700ffb097000fb997009fb9970038
:101e60004f06be004f05be004f04be000080fa00c2
:101e7000000006000100070000000600a4b79f0054
:101e8000b5b79f00c6b79f00d7b79f0000000600f8
:101e90004f09de0082817100b3b79f004f01de0061
:101ea0008180400082807000a1b79f008fb09700b2
:101eb0004f09de00000040000200700090b79f0054
:101ec0007fa897004f01de00818040008280700073
:101ed00081b79f000d0007004f3ade000000400070
:101ee00004007000f0af9f000800070004024200e9
:101ef00085824a0006034b0087834b00dfff070003
:101f00000802be000a03be00000006002fb29700c0
:101f1000bfb297004fb39700dfb3970000000600f1
:101f2000881f780018002000881f780089ff0700ac
:101f30008f87e9004f04780000000600801feb0047
:101f400084ff07008f87e90000000600889fbe001d
:101f50008a9fbe00e00f5000e08f5800e00f59004c
:101f6000e08f59000c003d006044b8006055b80097
:101f70000000540081805c0002015d0083815d00ef
:101f8000180020001500070008003d001800070099
:101f90000004eb00050037000004eb000f00070011
:101fa00002003d001200070018002000dcff0700bf
:101fb0000800e000060032006022b8006033b8007c
:101fc0000000520081805a0002015b0083815b00a7
:101fd0004f05be004f04be0000000600e00f520097
:101fe000e08f5a00e00f5b00e08f5b00000006000e
:101ff0006044b8006055b8000402540085825c005b
:1020000006035d0087835d0000000600889fbe0018
:102010008a9fbe008c1f7800e00f5000e08f5800b0
:10202000e00f5900e08f59000d003d006044b800fa
:102030006055b8000000540081805c0002015d0022
:1020400083815d001c0020000820e10009a8e10058
:102050000ab0e1000bb8e1000d003d0008003700b8
:102060000006eb00e00f5200e08f5a00e00f5b002b
:10207000e08f5b0006003d006044b8006055b8008a
:102080000402540085825c0006035d0087835d00c6
:10209000aaff07000c00e000060032006022b80032
:1020a0006033b8000000520081805a0002015b00da
:1020b00083815b004f0678004f05be004f04be00d1
:0420c0000000060016
:020000040000fa
:1020c40025640000003d000043540000330000007c
:1020d4003d43000054320000003d00004354000022
:1020e400310000003d5600005f590000003d000033
:1020f4005242000043560000003d000045420000eb
:1021040043560000003d000042410000545f0000bf
:102114004f5000005f4400004356000000000000e0
:020000040000fa
:102124000000fa0000ff2f0080718800600ea900f3
:10213400602ea900810e2100300020000100010062
:1021440000482800e1012000ba060700810e2100a2
:1021540030002000010001000005200001002000e3
:10216400b4060700810e21003000200001000100a8
:102174000005200001002000ae060700810e2100aa
:102184002000200001000100810e210080022000b7
:1021940001000100810e2100e00020000100010087
:1021a400810e21006000200001000100810e210049
:1021b400100020000100010000482800e101200077
:1021c4009c0607000080fa00000006000200fa00e6
:1021d400004f78001e80fb004400de0000407800c1
:1021e4000080fb00a0718800640ea900642ea80082
:1021f40000322000010020008e060700642ea90092
:102204001e80fb006f006000a0718800642ea8008f
:10221400003220000100200086060700642ea90079
:102224000080fa00000006000200fa00004f780067
:102234001e80fb004400de00004078000080fb00ac
:10224400a0718800640ea800642ea800003220004b
:102254000100200077060700642ea9001e80fb0001
:102264006f006000a0718800642ea8000032200076
:10227400010020006f060700642ea9000080fa0008
:10228400000006000200fa00000f78000400370086
:102294001e00780010407800e3ff07001e0fe800de
:1022a4001e007800104078000004e000f8ff3a00b7
:1022b4000080fa00000006000600fa00204798009b
:1022c40031479800220798000040eb00004f780047
:1022d4002e409000e14f500007003c003e4090002b
:1022e400ef40600000c8b30000cf70001e407800cb
:1022f400b6ff0700060037003e409000ef40600044
:1023040000ccb30000cf70001e407800afff070080
:102314002e009000dbff07000080fa00000006009a
:102324000000fa0010c0b300a8ff0700211a210022
:1023340050002000010001000080fa0000000600a7
:102344000600fa00200798000000eb00000f780058
:102354000b0037000000eb00100798000300370063
:102364001e0090000000e800100798009e009000f6
:10237400400a2000808f5000f9ff36001e0fe8004d
:102384002e0090009e007800808f5000f1ff3900ed
:102394000080fa00000006000000fa00044ea900c4
:1023a400046ea900048ea90004aea9000080fa00fe
:1023b400000006000000fa0004aea80000a02500fa
:1023c400212620001b060700044ea80000902000d0
:1023d400d10320001706070004aea9000080fa000c
:1023e400000006000000fa00048ea80000a02500ea
:1023f400212620000f060700046ea800009020008c
:10240400d10320000b060700048ea9000080fa0007
:10241400000006000000fa00158ea90000a02500a7
:10242400212620000306070015aea900158ea8007a
:102434000080fa00000006000000fa00158ea800d3
:1024440015aea80015cea80015eea8000080fa006d
:10245400000006000000fa0015cea90000a0250027
:1024640021262000f305070015eea90015cea800cb
:102474000080fa00000006000000fa004e2eef0073
:10248400707280007073880070738000f07188002f
:10249400f071800070718800707180007070880025
:1024a40070708000f070880070102000f070880058
:1024b400404e200000198800c040220010198800f6
:1024c400f0f02000201988003223ef002e23ef00c3
:1024d40070102000801988004119800000fe2f0030
:1024e400008060004019880028e3a90021e3a800c7
:1024f4000019200001002000ce0507000080fa002a
:10250400000006000000fa0001198000f0cf2f003f
:10251400008060000019880001198000f0f12f008c
:10252400008060000060a000001988002083a900da
:102534002043a8002143a8002343a80011198000c8
:10254400f0ff21000080600000d0a0001019880076
:1025540011198000f0cf2f0000806000101988004e
:1025640025e3a900f0c0b30024e3b70011198000eb
:1025740030f82f00008060000050a000101988007f
:102584003303a8002e23ef003003a8003023a80053
:102594003043a8003063a8003083a80030a3a8000b
:1025a4003103a8003123a8003143a800f0732000b0
:1025b400f0708800100ea800102ea800108ea8003d
:1025c40010aea800110ea800112ea800114ea800ec
:1025d40001a8a90021a8a80021e3a80080022000e6
:1025e40001002000930507000080fa0000000600a7
:1025f4000000fa000a21ef007038210070088800fa
:102604000108a9002108a90013e1a8000080fa002c
:1026140000000600809fbe00821f78000000fa00c0
:1026240000808000e10f500007003a001080800015
:1026340001188000000140008003210000004100d7
:1026440001087800010037000000000000808000cd
:102654000000e8000080880000808000e90f50003e
:1026640004003a000030ef00108080000000e80011
:102674001080880010808000e80f500001003a00ac
:102684000230ef0001a8a9000080fa004f01780091
:102694004f00be00004006000000fa00881f7800ca
:1026a40010808000800040008008210000804000ed
:1026b4001000780080808800108080008000400036
:1026c400800921000080400010007800908088007c
:1026d4001080800080004000800a210000804000bb
:1026e40010007800a080880010c0b300b7fe070077
:1026f40000c42900010020004e05070081808000ed
:10270400807e2100811f780021062900811f780026
:1027140077f90700e4875700887e2100807e210036
:1027240066f9070000004400520020005106290009
:102734005bf90700807e2100000178008040eb00f7
:1027440010c0b300dcfe07009180800000812100ee
:10275400811f780021062900811f780064f9070091
:10276400e4875700088121000081210053f9070004
:102774000000440052002000a106290048f9070087
:10278400008121000001780091c0b30010c0b300a3
:10279400c9fe0700a180800080832100811f78008a
:1027a40021062900811f780051f90700e4875700aa
:1027b400888321008083210040f907000000440041
:1027c40052002000f106290035f90700808321001a
:1027d400000178008040eb0020c0b300b6fe070083
:1027e400007c220091002000120507004f047800ad
:1027f4000080fa00000006000200fa00881f78003a
:102804001080800080004000800321000080400090
:10281400100f7800002721009e1f78002106290050
:10282400811f780032f90700e48757000827210048
:102834000027210021f90700000044005200200075
:102844004107290016f9070000272100000178003c
:1028540081c0b30010c0b30097fe070000a8210098
:1028640061002000f30407004f0478000080fa00a0
:10287400000006000000fa00881f78001080800025
:102884008000400080052100008040001000780096
:102894005080880010808000800040008006210065
:1028a4000080400010007800608088001080800064
:1028b4008000400080072100008040001000780064
:1028c4007080880010c0b30040fe070000c42900d7
:1028d40001002000d704070051808000005e210021
:1028e400811f780021062900811f780000f9070064
:1028f400e4875700085e2100005e2100eff807001e
:10290400000044006200200091072900e4f8070059
:10291400005e2100000178008040eb0010c0b3008d
:1029240065fe07006180800080792100811f7800a6
:1029340021062900811f7800edf80700e48757007d
:102944008879210080792100dcf807000000440028
:1029540062002000f1072900d1f8070080792100e6
:102964000001780091c0b30010c0b30052fe07000c
:1029740071808000007c2100811f780021062900dd
:10298400811f7800daf80700e4875700087c2100eb
:10299400007c2100c9f8070000004400c2002000a8
:1029a40051082900bef80700007c210000017800ce
:1029b4008040eb0020c0b3003ffe0700007c2200f3
:1029c400910020009b0407004f0478000080fa0067
:1029d400000006000000fa00a7fe07001a30ef000e
:1029e4006400370000000000014080000000220065
:1029f400008060000000e000fbff320001a8a90095
:102a0400d0808000011880000001400080a12100d6
:102a14000000410001087800d08080001118800077
:102a24000001400040af210000004100010878008f
:102a3400d0808000211880000001400000bd2100ea
:102a44000000410001087800d08080008000400030
:102a540080a121000080400090007800c0d0800058
:102a6400808f500010003c00d08080008000400027
:102a740040af21000080400090007800a0d7800083
:102a8400808f500008003c00d0808000800040000f
:102a940000bd2100008040009000780080de8000ae
:102aa400808f500012003400d080800080004000ed
:102ab40080a121000080400010007800c0d0880070
:102ac400d08080008000400040af210000804000a2
:102ad40010007800a0d78800d080800080004000db
:102ae40000bd2100008040001000780080de8800d6
:102af400c1d08000706c2f0000804000cf80de00c9
:102b04009cf70700a2992900130924003cf7070049
:102b1400b0808800c1808800a1d78000906c2f000d
:102b240000804000cf80de0092f70700a2992900c0
:102b34001309240032f70700e0808800f180880040
:102b440081de8000d06c2f0000804000cf80de004a
:102b540088f70700a29929001309240028f7070021
:102b64000081880011818800d08080000000e80086
:102b7400d0808800d180800030062000808f5000f3
:102b840098ff34000080fa00000006001200fa00ea
:102b94001d04070062fd0700c04e2100500307001a
:102ba4005703070050002000000f78001000200099
:102bb4001007980010002000200798000300370039
:102bc4000000000001003700000000009072800047
:102bd4004500de00614060000080fb003007980083
:102be400107380004d00de00614060000080fb0037
:102bf40040079800107080004600de0061406000cd
:102c04000080fb0050079800107080004700de0031
:102c1400614060000080fb006007980090718000b4
:102c24004600de00614060000080fb0070079800f1
:102c3400907180004700de00614060000080fb006e
:102c4400000f9800c1d08000800b2100811f780004
:102c540021062900811f780025f80700e487570022
:102c6400800b21000001780011c0b3000040eb008c
:102c740091fd0700a1d7800000272100811f780063
:102c840021062900811f780019f80700e4875700fe
:102c9400002721000001780081c0b3000040eb0050
:102ca40085fd070081de800080422100811f7800bd
:102cb40021062900811f78000df80700e4875700da
:102cc400804221000001780011c0b30020c0b3008d
:102cd40079fd070000d4200031002000d50307004f
:102ce400a1d78000c0d02000808f50005c00340049
:102cf40081de8000c0d02000808f50005800340056
:102d0400c1d08000e0922000808f50005400340035
:102d140005eea900190207001e009000e10f500003
:102d240005003a009cfd0700aefd07000000eb0023
:102d34001007980098fd0700b40007007e0090007b
:102d44000000e0003a003a003e0090000000e0007d
:102d540010003a004e009000e10f50000d003a00c0
:102d64001e0fe800200320009e007800808f500092
:102d74000200340020032000000f78001e007800b9
:102d8400d90107000032200001002000a903070038
:102d94002d0037003e009000e10f500010003a0073
:102da4004e0090000000e0000d003a001e0fe90004
:102db4001e007800e50f500002003c006000200077
:102dc400000f78001e007800c701070000322000c1
:102dd4000100200097030700000000001a003700dc
:102de4003e0090000000a20000f0a7000000ea00ee
:102df4000000e9004f00de00804078004e009000a3
:102e04000000a20000f0a7000000ea000000e900b2
:102e14004f00de000040780000c060000004e000c5
:102e2400080032001e007800af01070006003700da
:102e34007e009000e10f500003003a00ba01070041
:102e440001003700000000000000eb0010079800ac
:102e54001000200020079800000000005bff3700ee
:102e6400c1d08000e0922000808f50000400340024
:102e7400c1d0800090932000808f50001000340057
:102e8400a1d78000e0922000808f5000040034001d
:102e9400a1d7800090932000808f50000800340058
:102ea40081de8000e0922000808f500044ff3400d7
:102eb40081de800090932000808f500042ff3c0010
:102ec40005eea800980107002e009000e10f5000c5
:102ed40005003a0030fd070036fd07000000eb0056
:102ee400200798002cfd0700b60007000e0890008c
:102ef4000000e0003a003a003e0090000000e000cc
:102f040010003a004e009000e10f50000d003a000e
:102f14001e0fe800200320009e007800808f5000e0
:102f24000200340020032000000f78001e00780007
:102f34008201070000322000010020003d03070049
:102f44002d0037003e009000e10f500010003a00c1
:102f54004e0090000000e0000d003a001e0fe90052
:102f64001e007800e50f500002003c0060002000c5
:102f7400000f78001e007800700107000032200066
:102f8400010020002b030700000000001a00370096
:102f94003e0090000000a20000f0a7000000ea003c
:102fa4000000e9004f00de00804078004e009000f1
:102fb4000000a20000f0a7000000ea000000e90001
:102fc4004f00de000040780000c060000004e00014
:102fd400080032001e007800580107000600370080
:102fe4000e089000e10f500003003a00630107004f
:102ff40001003700000000000000eb0020079800eb
:103004001000200010079800f0fe37000000fa00be
:10301400022cef000e2cef00102cef0080ff2f008d
:1030240090608800142cef00a034200020608800f9
:10303400062cef00501a2000506088001a2cef0074
:10304400202cef00402cef00602cef00001020003b
:103054000064880000102000006588000010200033
:103064000066880000002c001061880000002c001d
:103074001062880000002c001063880000002c00ff
:103084001064880000002c001065880000002c00eb
:1030940010668800242cef00442cef00642cef0011
:1030a400842cef00a42cef00c42cef00262cef009e
:1030b400462cef00662cef00862cef00a62cef00c8
:1030c400c62cef00282cef00482cef00682cef00f2
:1030d400882cef00a82cef00c82cef002a2cef005e
:1030e4004a2cef006a2cef008a2cef00aa2cef0088
:1030f400ca2cef002c2cef004c2cef006c2cef00b2
:103104008c2cef00ac2cef00cc2cef002e2cef001d
:103114004e2cef006e2cef008e2cef00ae2cef0047
:10312400ce2cef00302cef00502cef00702cef0071
:10313400902cef00b02cef00d02cef00322cef00dd
:10314400522cef00722cef00922cef00b22cef0007
:10315400d22cef00342cef00542cef00742cef0031
:10316400942cef00b42cef00d42cef003a2cef0099
:103174005a2cef007a2cef009a2cef00ba2cef00b7
:10318400da2cef003c2cef005c2cef007c2cef00e1
:103194009c2cef00bc2cef00dc2cef003e2cef004d
:1031a4005e2cef007e2cef009e2cef00be2cef0077
:1031b400de2cef0000002800006088000080fa0088
:1031c400000006000000fa00022cef000e2cef00b5
:1031d400102cef0080ff2f0090608800142cef006b
:1031e400a034200020608800062cef00501a200034
:1031f400506088001a2cef00001020000061880045
:103204000010200000628800001020000063880085
:10321400802cef00a02cef00c02cef0000002c004d
:103224001061880000002c001062880000002c004f
:103234001063880000002c001064880000002c003b
:103244001065880000002c0010668800242cef0014
:10325400442cef00642cef00842cef00a42cef002e
:10326400c42cef00262cef00462cef00662cef0058
:10327400862cef00a62cef00c62cef00282cef00c4
:10328400482cef00682cef00882cef00a82cef00ee
:10329400c82cef002a2cef004a2cef006a2cef0018
:1032a4008a2cef00aa2cef00ca2cef002c2cef0084
:1032b4004c2cef006c2cef008c2cef00ac2cef00ae
:1032c400cc2cef002e2cef004e2cef006e2cef00d8
:1032d4008e2cef00ae2cef00ce2cef00302cef0044
:1032e400502cef00702cef00902cef00b02cef006e
:1032f400d02cef00322cef00522cef00722cef0098
:10330400922cef00b22cef00d22cef00342cef0003
:10331400542cef00742cef00942cef00b42cef002d
:10332400d42cef003a2cef005a2cef007a2cef004b
:103334009a2cef00ba2cef00da2cef003c2cef00b3
:103344005c2cef007c2cef009c2cef00bc2cef00dd
:10335400dc2cef003e2cef005e2cef007e2cef0007
:103364009e2cef00be2cef00de2cef0000002800a6
:10337400006088000080fa00000006000000fa00e7
:103384000080fa00000006000000fa0031408000ce
:1033940000202000008060000000e00002003200f5
:1033a400f6ff07000728a9000080fa0000000600c5
:1033b4000000fa000080fa00000006000000fa0095
:1033c4003140800000202000008060000000e00008
:1033d40002003200f6ff07000bc8a9000080fa00c3
:1033e400000006000000fa000080fa000000060059
:1033f4000000fa00314080000020200000806000be
:103404000000e00002003200f6ff07000be8a9000c
:103414000080fa00000006000000fa000080fa00b4
:10342400000006000000fa00314080000020200067
:10343400008060000000e00002003200f6ff070098
:103444000c08a9000080fa00000006000000fa0041
:103454000080fa00000006000000fa0031408000fd
:1034640000202000008060000000e0000200320024
:10347400f6ff07000c28a9000080fa0000000600ef
:103484000000fa000080fa00000006000000fa00c4
:103494003140800000202000008060000000e00037
:1034a40002003200f6ff07000c48a9000080fa0071
:1034b400000006000000fa000080fa000000060088
:1034c4000000fa00314080000020200000806000ed
:1034d4000000e00002003200f6ff07000c68a900bb
:1034e4000080fa00000006000200fa00000f7800d5
:1034f400c6fe070000002800006088001e00780057
:103504008000eb001ef5070022852b0063102400c9
:1035140070f50700fcf40700000078005060880094
:103524000080fa00000006000000fa00b7fe070061
:10353400002cef000080fa00000006000200fa00f0
:10354400000f78001fff07000000280000608800bb
:103554001e0078008000eb0009f5070022852b008f
:10356400631024005bf50700e7f40700000078000f
:10357400506088000080fa00000006000000fa0095
:1035840010ff0700002cef000080fa000000060086
:103594000000fa00003a80000080fa0000000600f3
:1035a4000200fa00faff0700000f78001e007800fe
:1035b400240007000004e00002003200000028009c
:1035c400710007001e0078002a0007000004e000d4
:1035d40002003200000024006b0007001e00780087
:1035e400320007000004e000020032000020200046
:1035f400650007001e0078003a0007000004e000a0
:1036040002003200000820005f0007001e0078005e
:10361400420007000004e000020032000004200021
:10362400590007001e0078004a0007000004e0006b
:103634000200320000012000530007000080fa005d
:10364400000006000400fa00100798000040eb0098
:10365400004f78001e0090000000e00002003d00d2
:1036640010c0b300004f78001e4078000080fa00bc
:10367400000006000400fa00100798000040eb0068
:10368400004f78009e00900000002400008060003d
:103694000000e0000200320010c0b300004f7800c8
:1036a4001e4078000080fa00000006000400fa00c2
:1036b400100798000040eb00004f78009e00900037
:1036c40000202000008060000000e00002003200c2
:1036d40010c0b300004f78001e4078000080fa004c
:1036e400000006000400fa00100798000040eb00f8
:1036f400004f78009e0090000008200000806000c9
:103704000000e0000200320010c0b300004f780057
:103714001e4078000080fa00000006000400fa0051
:10372400100798000040eb00004f78009e009000c6
:1037340000042000008060000000e000020032006d
:1037440010c0b300004f78001e4078000080fa00db
:10375400000006000400fa00100798000040eb0087
:10376400004f78001e009000700060000000e00030
:103774000200320010c0b300004f78001e407800f1
:103784000080fa00000006000200fa00000f780032
:103794009e80ea00003a800000806000003a8800c1
:1037a4000080fa00000006000000fa004027ef0045
:1037b4000080fa00000006000000fa000021ef007b
:1037c4000027200010088800000328002008880033
:1037d400308180000000e00002003a00c0c62100f1
:1037e4003f0007000068a9002068a80080d02100dd
:1037f4008040eb00014878000080fa0000000600d9
:103804003600f800809fbe00829fbe00849fbe00e9
:10381400869fbe000000fa00308180000000e000b6
:1038240002003200308180000000010090d02100ad
:10383400104078008040e80090d0210001487800d2
:1038440080d0210011c0b300014878000068a900ad
:103854000080fa004f03be004f02be004f01be00bd
:103864004f00be003600f900004006000200fa00d6
:10387400000f78009e0078001108880080d0210095
:103884008040eb00014878000080fa000000060048
:103894000000fa00100880000080fa000000060012
:1038a4000200fa00000f78009e00780001088800ea
:1038b40080d021008040eb00014878000080fa00ad
:1038c400000006000000fa00000880000080fa00f2
:1038d400000006000000fa000080fa000000060064
:1038e4000200fa00000f78002068a9009e0078000a
:1038f400318188002068a8000080fa0000000600da
:103904000000fa0080d021008040eb0001487800dc
:103914002068a80005e1a8000080fa000000060065
:103924000000fa0005e1a9002068a9000080fa005f
:10393400000006000200fa0080d02100104f780039
:103944001e4078000004e0000300320080d0210013
:103954008040eb00014878001e4078000080fa00a7
:10396400000006000000fa0090d02100104078000a
:103974000080fb000080fa00000006000000fa004e
:1039840090d021008040eb00014878000080fa00cc
:10399400000006000000fa00042eef00142eef00d1
:1039a400242eef00342eef00442eef00542eef00af
:1039b400642eef00306c200000708800f0ff2000bf
:1039c40080708800000027000071880080ef2f00bd
:1039d400807188000030200000728800f0132300fa
:1039e40080728800303c2f00007388000c2eef009a
:1039f4001c2eef002c2eef003c2eef004c2eef007f
:103a04005c2eef006c2eef000a2eef001a2eef0052
:103a14002a2eef003a2eef004a2eef005a2eef0026
:103a24006a2eef00062eef00362eef00562eef0022
:103a3400662eef000060200070708800f073200094
:103a4400f070880000002600707188003e2eef00a0
:103a54000030200070728800003c200070738800e1
:083a64000080fa0000000600da
:020000040000fa
:103a6c00ce1c00002000000080000000241000008c
:103a7c000200000082000000ffff0000081d000093
:103a8c000200000080000000261000000200000070
:103a9c008000000028100000840c00008000000052
:103aac00001000002400000080000000ee1c00004c
:103abc001a00000082000000686a6c00747a4c00e6
:103acc0000000100000200000400080000100000cb
:103adc00000020002b2d230030000000ac1c000047
:103aec0022000000820000003031320033343500f7
:103afc003637380039414200434445004600300017
:103b0c0031323300343536003738390061626300a6
:0c3b1c006465660000000000000000006e
:020000040000fa
:103b28000000fa0060002000303a8800213a800046
:103b3800f0f32f0000806000203a8800213a8000ce
:103b480000fe2f0000806000203a8800320020002c
:103b580080072000a10920003374200080497800e4
:103b68008149780082497800103a80000001780085
:103b78000200a000600420007105200023742000ca
:103b88008049780081497800824978000000000067
:103b9800113a8000000027008080600000002300a8
:103ba800808f5000faff3a0000000000113a8000b0
:103bb80000022000008060000000e000fbff3200ef
:103bc8000080fa00000006000200fa00000f7800ea
:103bd80021028000200f2000008060001e0070007d
:103be800200288000080fa00000006000000fa00a9
:103bf800c3e8a80000000000000000000080fa00f0
:103c0800000006000000fa0061ff0700220007001c
:103c1800c3ff070041f90700e6fe0700f3ff0700ae
:103c280000022000e8ff07000080fa0000000600fc
:020000040000fa
:103c3800f03fb1000180b10006003500ee03090035
:103c480000000000403fb1000180b100fbff3d00d3
:103c58001000b000203fb0000200350000800900cd
:083c680000000000000006004e
:020000040000fa
:103c70000200fa00000f78009e0078002181880081
:103c8000ffff37000000fa00e0cc21008007780039
:103c900060ce2100000188000080fa0000000600cc
:103ca0000000fa0001428000f0ff28000080600060
:103cb00000c0a000004288000080fa00000006005a
:020000040000fa
:0200000401f009
:04000800cfff000026
:020000040000fa
:0200000401f009
:04000c0078ffff007a
:020000040000fa
:0200000401f009
:040010007dffff0071
:020000040000fa
:0200000401f009
:040014007fffff006b
:020000040000fa
:0200000401f009
:04001800efffff00f7
:020000040000fa
:0200000401f009
:04001c00dfffff0003
:020000040000fa
:0200000401f009
:04002000cfffff000f
:00000001FF
